{
  "contractName": "CDPTracker",
  "abi": [
    {
      "inputs": [
        {
          "internalType": "address",
          "name": "ORC",
          "type": "address"
        },
        {
          "internalType": "uint256",
          "name": "DUST",
          "type": "uint256"
        }
      ],
      "stateMutability": "nonpayable",
      "type": "constructor"
    },
    {
      "anonymous": false,
      "inputs": [
        {
          "indexed": false,
          "internalType": "address",
          "name": "account",
          "type": "address"
        }
      ],
      "name": "AddAuthorization",
      "type": "event"
    },
    {
      "anonymous": false,
      "inputs": [
        {
          "indexed": false,
          "internalType": "address",
          "name": "account",
          "type": "address"
        }
      ],
      "name": "RemoveAuthorization",
      "type": "event"
    },
    {
      "anonymous": false,
      "inputs": [
        {
          "indexed": false,
          "internalType": "address",
          "name": "surplusDst",
          "type": "address"
        },
        {
          "indexed": false,
          "internalType": "int256",
          "name": "rateMultiplier",
          "type": "int256"
        },
        {
          "indexed": false,
          "internalType": "uint256",
          "name": "globalDebt",
          "type": "uint256"
        }
      ],
      "name": "UpdateAccumulatedRate",
      "type": "event"
    },
    {
      "inputs": [
        {
          "internalType": "address",
          "name": "",
          "type": "address"
        }
      ],
      "name": "authorizedAccounts",
      "outputs": [
        {
          "internalType": "uint256",
          "name": "",
          "type": "uint256"
        }
      ],
      "stateMutability": "view",
      "type": "function"
    },
    {
      "inputs": [
        {
          "internalType": "address",
          "name": "",
          "type": "address"
        }
      ],
      "name": "collateral",
      "outputs": [
        {
          "internalType": "uint256",
          "name": "",
          "type": "uint256"
        }
      ],
      "stateMutability": "view",
      "type": "function"
    },
    {
      "inputs": [
        {
          "internalType": "address",
          "name": "",
          "type": "address"
        }
      ],
      "name": "debtIssued",
      "outputs": [
        {
          "internalType": "uint256",
          "name": "",
          "type": "uint256"
        }
      ],
      "stateMutability": "view",
      "type": "function"
    },
    {
      "inputs": [],
      "name": "globalDebt",
      "outputs": [
        {
          "internalType": "uint256",
          "name": "",
          "type": "uint256"
        }
      ],
      "stateMutability": "view",
      "type": "function"
    },
    {
      "inputs": [
        {
          "internalType": "address",
          "name": "",
          "type": "address"
        }
      ],
      "name": "initTime",
      "outputs": [
        {
          "internalType": "uint256",
          "name": "",
          "type": "uint256"
        }
      ],
      "stateMutability": "view",
      "type": "function"
    },
    {
      "inputs": [],
      "name": "lastAR",
      "outputs": [
        {
          "internalType": "uint256",
          "name": "",
          "type": "uint256"
        }
      ],
      "stateMutability": "view",
      "type": "function"
    },
    {
      "inputs": [
        {
          "internalType": "address",
          "name": "",
          "type": "address"
        }
      ],
      "name": "safes",
      "outputs": [
        {
          "internalType": "uint256",
          "name": "collateral",
          "type": "uint256"
        },
        {
          "internalType": "uint256",
          "name": "debtIssued",
          "type": "uint256"
        },
        {
          "internalType": "uint256",
          "name": "updateTime",
          "type": "uint256"
        },
        {
          "internalType": "uint256",
          "name": "originRate",
          "type": "uint256"
        }
      ],
      "stateMutability": "view",
      "type": "function"
    },
    {
      "inputs": [
        {
          "internalType": "address",
          "name": "account",
          "type": "address"
        }
      ],
      "name": "addAuthorization",
      "outputs": [],
      "stateMutability": "nonpayable",
      "type": "function"
    },
    {
      "inputs": [
        {
          "internalType": "address",
          "name": "account",
          "type": "address"
        }
      ],
      "name": "removeAuthorization",
      "outputs": [],
      "stateMutability": "nonpayable",
      "type": "function"
    },
    {
      "inputs": [
        {
          "internalType": "address",
          "name": "STABLE",
          "type": "address"
        }
      ],
      "name": "setCoin",
      "outputs": [],
      "stateMutability": "nonpayable",
      "type": "function"
    },
    {
      "inputs": [
        {
          "internalType": "uint256",
          "name": "newRATE",
          "type": "uint256"
        }
      ],
      "name": "newAR",
      "outputs": [],
      "stateMutability": "nonpayable",
      "type": "function"
    },
    {
      "inputs": [
        {
          "internalType": "uint256",
          "name": "newDebt",
          "type": "uint256"
        }
      ],
      "name": "updateGlobalDebt",
      "outputs": [],
      "stateMutability": "nonpayable",
      "type": "function"
    },
    {
      "inputs": [
        {
          "internalType": "uint256",
          "name": "amount",
          "type": "uint256"
        },
        {
          "internalType": "address",
          "name": "treasury",
          "type": "address"
        }
      ],
      "name": "issueSurplus",
      "outputs": [],
      "stateMutability": "nonpayable",
      "type": "function"
    },
    {
      "inputs": [
        {
          "internalType": "address",
          "name": "user",
          "type": "address"
        }
      ],
      "name": "updateUserDebt",
      "outputs": [
        {
          "internalType": "uint256",
          "name": "",
          "type": "uint256"
        }
      ],
      "stateMutability": "nonpayable",
      "type": "function"
    },
    {
      "inputs": [],
      "name": "updateAccumulatedRate0",
      "outputs": [
        {
          "internalType": "uint256",
          "name": "",
          "type": "uint256"
        }
      ],
      "stateMutability": "nonpayable",
      "type": "function"
    },
    {
      "inputs": [],
      "name": "updateAccumulatedRate1",
      "outputs": [
        {
          "internalType": "uint256",
          "name": "",
          "type": "uint256"
        }
      ],
      "stateMutability": "nonpayable",
      "type": "function"
    },
    {
      "inputs": [
        {
          "internalType": "address",
          "name": "user",
          "type": "address"
        }
      ],
      "name": "updateUserDebt1",
      "outputs": [
        {
          "internalType": "uint256",
          "name": "",
          "type": "uint256"
        }
      ],
      "stateMutability": "nonpayable",
      "type": "function"
    },
    {
      "inputs": [
        {
          "internalType": "address",
          "name": "user",
          "type": "address"
        }
      ],
      "name": "updateUserDebt2",
      "outputs": [
        {
          "internalType": "uint256",
          "name": "",
          "type": "uint256"
        }
      ],
      "stateMutability": "nonpayable",
      "type": "function"
    },
    {
      "inputs": [],
      "name": "depositCollateral",
      "outputs": [],
      "stateMutability": "payable",
      "type": "function"
    },
    {
      "inputs": [
        {
          "internalType": "uint256",
          "name": "amount",
          "type": "uint256"
        }
      ],
      "name": "takeDebt",
      "outputs": [],
      "stateMutability": "nonpayable",
      "type": "function"
    },
    {
      "inputs": [
        {
          "internalType": "uint256",
          "name": "amount",
          "type": "uint256"
        }
      ],
      "name": "returnDebt",
      "outputs": [],
      "stateMutability": "nonpayable",
      "type": "function"
    },
    {
      "inputs": [
        {
          "internalType": "uint256",
          "name": "amount",
          "type": "uint256"
        }
      ],
      "name": "redeemCoins",
      "outputs": [],
      "stateMutability": "payable",
      "type": "function"
    },
    {
      "inputs": [
        {
          "internalType": "uint256",
          "name": "amount",
          "type": "uint256"
        }
      ],
      "name": "removeCollateral",
      "outputs": [],
      "stateMutability": "payable",
      "type": "function"
    }
  ],
  "bytecode": "0x60806040526b033b2e5b3c9df15b51bc8362600a60006101000a8154816fffffffffffffffffffffffffffffffff02191690836fffffffffffffffffffffffffffffffff16021790555073950fc41ba7fe437121340955dbaebe4de8fb0eb5600b60006101000a81548173ffffffffffffffffffffffffffffffffffffffff021916908373ffffffffffffffffffffffffffffffffffffffff1602179055503480156100aa57600080fd5b50604051612bc0380380612bc0833981810160405260408110156100cd57600080fd5b810190808051906020019092919080519060200190929190505050816000806101000a81548173ffffffffffffffffffffffffffffffffffffffff021916908373ffffffffffffffffffffffffffffffffffffffff160217905550806002819055506001601360003373ffffffffffffffffffffffffffffffffffffffff1673ffffffffffffffffffffffffffffffffffffffff16815260200190815260200160002081905550426009819055505050612a348061018c6000396000f3fe6080604052600436106101405760003560e01c80638543d5e0116100b6578063d26661ac1161006f578063d26661ac146105e9578063d2cedf041461064e578063db4f2d3414610689578063e8284910146106ee578063f47f43fd14610729578063fe07d90a146107a357610140565b80638543d5e01461041d57806394f3f81d14610448578063a5fdc5de14610499578063b5c9d799146104fe578063bec241c514610529578063d1715b6d1461058e57610140565b806335b281531161010857806335b281531461027957806339eb283c146102ca578063407ceabc146102f85780636f7581401461035d578063769194091461036757806382e46b75146103cc57610140565b80631ee17f2d1461014557806324ba5884146101805780632a8f2634146101e55780632fd97af3146102105780633237c1581461024b575b600080fd5b34801561015157600080fd5b5061017e6004803603602081101561016857600080fd5b81019080803590602001909291905050506107ce565b005b34801561018c57600080fd5b506101cf600480360360208110156101a357600080fd5b81019080803573ffffffffffffffffffffffffffffffffffffffff16906020019092919050505061088d565b6040518082815260200191505060405180910390f35b3480156101f157600080fd5b506101fa6108a5565b6040518082815260200191505060405180910390f35b34801561021c57600080fd5b506102496004803603602081101561023357600080fd5b8101908080359060200190929190505050610919565b005b6102776004803603602081101561026157600080fd5b8101908080359060200190929190505050610c1b565b005b34801561028557600080fd5b506102c86004803603602081101561029c57600080fd5b81019080803573ffffffffffffffffffffffffffffffffffffffff169060200190929190505050610e64565b005b6102f6600480360360208110156102e057600080fd5b8101908080359060200190929190505050610fc4565b005b34801561030457600080fd5b506103476004803603602081101561031b57600080fd5b81019080803573ffffffffffffffffffffffffffffffffffffffff16906020019092919050505061128e565b6040518082815260200191505060405180910390f35b610365611574565b005b34801561037357600080fd5b506103b66004803603602081101561038a57600080fd5b81019080803573ffffffffffffffffffffffffffffffffffffffff169060200190929190505050611656565b6040518082815260200191505060405180910390f35b3480156103d857600080fd5b5061041b600480360360208110156103ef57600080fd5b81019080803573ffffffffffffffffffffffffffffffffffffffff1690602001909291905050506117e9565b005b34801561042957600080fd5b506104326118e2565b6040518082815260200191505060405180910390f35b34801561045457600080fd5b506104976004803603602081101561046b57600080fd5b81019080803573ffffffffffffffffffffffffffffffffffffffff1690602001909291905050506118e8565b005b3480156104a557600080fd5b506104e8600480360360208110156104bc57600080fd5b81019080803573ffffffffffffffffffffffffffffffffffffffff169060200190929190505050611a48565b6040518082815260200191505060405180910390f35b34801561050a57600080fd5b50610513611a60565b6040518082815260200191505060405180910390f35b34801561053557600080fd5b506105786004803603602081101561054c57600080fd5b81019080803573ffffffffffffffffffffffffffffffffffffffff169060200190929190505050611a66565b6040518082815260200191505060405180910390f35b34801561059a57600080fd5b506105e7600480360360408110156105b157600080fd5b8101908080359060200190929190803573ffffffffffffffffffffffffffffffffffffffff169060200190929190505050611a7e565b005b3480156105f557600080fd5b506106386004803603602081101561060c57600080fd5b81019080803573ffffffffffffffffffffffffffffffffffffffff169060200190929190505050611c5b565b6040518082815260200191505060405180910390f35b34801561065a57600080fd5b506106876004803603602081101561067157600080fd5b8101908080359060200190929190505050611dee565b005b34801561069557600080fd5b506106d8600480360360208110156106ac57600080fd5b81019080803573ffffffffffffffffffffffffffffffffffffffff16906020019092919050505061202b565b6040518082815260200191505060405180910390f35b3480156106fa57600080fd5b506107276004803603602081101561071157600080fd5b8101908080359060200190929190505050612043565b005b34801561073557600080fd5b506107786004803603602081101561074c57600080fd5b81019080803573ffffffffffffffffffffffffffffffffffffffff169060200190929190505050612102565b6040518085815260200184815260200183815260200182815260200194505050505060405180910390f35b3480156107af57600080fd5b506107b8612132565b6040518082815260200191505060405180910390f35b6001601360003373ffffffffffffffffffffffffffffffffffffffff1673ffffffffffffffffffffffffffffffffffffffff1681526020019081526020016000205414610883576040517f08c379a000000000000000000000000000000000000000000000000000000000815260040180806020018281038252601b8152602001807f436f696e2f6163636f756e742d6e6f742d617574686f72697a6564000000000081525060200191505060405180910390fd5b8060088190555050565b60136020528060005260406000206000915090505481565b60008062015186905060006108f4600a60009054906101000a90046fffffffffffffffffffffffffffffffff166fffffffffffffffffffffffffffffffff168367ffffffffffffffff166121a4565b9050806fffffffffffffffffffffffffffffffff166008819055506008549250505090565b60006109456000809054906101000a900473ffffffffffffffffffffffffffffffffffffffff16612227565b90506000339050600061095733611656565b905060008184039050848110156109b9576040517f08c379a00000000000000000000000000000000000000000000000000000000081526004018080602001828103825260328152602001806129626032913960400191505060405180910390fd5b600160009054906101000a900473ffffffffffffffffffffffffffffffffffffffff16601260006101000a81548173ffffffffffffffffffffffffffffffffffffffff021916908373ffffffffffffffffffffffffffffffffffffffff160217905550610a68600f60003373ffffffffffffffffffffffffffffffffffffffff1673ffffffffffffffffffffffffffffffffffffffff1681526020019081526020016000206001015486612413565b600f60003373ffffffffffffffffffffffffffffffffffffffff1673ffffffffffffffffffffffffffffffffffffffff1681526020019081526020016000206001018190555084600560008282540192505081905550601260009054906101000a900473ffffffffffffffffffffffffffffffffffffffff1673ffffffffffffffffffffffffffffffffffffffff166340c10f1933876040518363ffffffff1660e01b8152600401808373ffffffffffffffffffffffffffffffffffffffff1673ffffffffffffffffffffffffffffffffffffffff16815260200182815260200192505050600060405180830381600087803b158015610b6757600080fd5b505af1158015610b7b573d6000803e3d6000fd5b5050505042600f60003373ffffffffffffffffffffffffffffffffffffffff1673ffffffffffffffffffffffffffffffffffffffff16815260200190815260200160002060020181905550610bce612132565b600f60003373ffffffffffffffffffffffffffffffffffffffff1673ffffffffffffffffffffffffffffffffffffffff168152602001908152602001600020600301819055505050505050565b600254811015610c76576040517f08c379a00000000000000000000000000000000000000000000000000000000081526004018080602001828103825260288152602001806129d76028913960400191505060405180910390fd5b6000600c60003373ffffffffffffffffffffffffffffffffffffffff1673ffffffffffffffffffffffffffffffffffffffff16815260200190815260200160002054905080821115610d13576040517f08c379a00000000000000000000000000000000000000000000000000000000081526004018080602001828103825260228152602001806129946022913960400191505060405180910390fd5b6000600f60003373ffffffffffffffffffffffffffffffffffffffff1673ffffffffffffffffffffffffffffffffffffffff16815260200190815260200160002060010154905060008114610dd0576040517f08c379a000000000000000000000000000000000000000000000000000000000815260040180806020018281038252601a8152602001807f434450547261636b65722f646562742d6e6f742d72657061696400000000000081525060200191505060405180910390fd5b82600c60003373ffffffffffffffffffffffffffffffffffffffff1673ffffffffffffffffffffffffffffffffffffffff1681526020019081526020016000205403600c60003373ffffffffffffffffffffffffffffffffffffffff1673ffffffffffffffffffffffffffffffffffffffff16815260200190815260200160002081905550610e5f3384612479565b505050565b6001601360003373ffffffffffffffffffffffffffffffffffffffff1673ffffffffffffffffffffffffffffffffffffffff1681526020019081526020016000205414610f19576040517f08c379a000000000000000000000000000000000000000000000000000000000815260040180806020018281038252601b8152602001807f436f696e2f6163636f756e742d6e6f742d617574686f72697a6564000000000081525060200191505060405180910390fd5b6001601360008373ffffffffffffffffffffffffffffffffffffffff1673ffffffffffffffffffffffffffffffffffffffff168152602001908152602001600020819055507f599a298163e1678bb1c676052a8930bf0b8a1261ed6e01b8a2391e55f700010281604051808273ffffffffffffffffffffffffffffffffffffffff1673ffffffffffffffffffffffffffffffffffffffff16815260200191505060405180910390a150565b600160009054906101000a900473ffffffffffffffffffffffffffffffffffffffff16601260006101000a81548173ffffffffffffffffffffffffffffffffffffffff021916908373ffffffffffffffffffffffffffffffffffffffff16021790555080601260009054906101000a900473ffffffffffffffffffffffffffffffffffffffff1673ffffffffffffffffffffffffffffffffffffffff166370a08231336040518263ffffffff1660e01b8152600401808273ffffffffffffffffffffffffffffffffffffffff1673ffffffffffffffffffffffffffffffffffffffff16815260200191505060206040518083038186803b1580156110c757600080fd5b505afa1580156110db573d6000803e3d6000fd5b505050506040513d60208110156110f157600080fd5b81019080805190602001909291905050501015611176576040517f08c379a000000000000000000000000000000000000000000000000000000000815260040180806020018281038252601a8152602001807f434450547261636b65722f657863656564732d62616c616e636500000000000081525060200191505060405180910390fd5b60006111a26000809054906101000a900473ffffffffffffffffffffffffffffffffffffffff1661255e565b90506000620f42406111b48385612711565b816111bb57fe5b049050601260009054906101000a900473ffffffffffffffffffffffffffffffffffffffff1673ffffffffffffffffffffffffffffffffffffffff16639dc29fac33856040518363ffffffff1660e01b8152600401808373ffffffffffffffffffffffffffffffffffffffff1673ffffffffffffffffffffffffffffffffffffffff16815260200182815260200192505050600060405180830381600087803b15801561126757600080fd5b505af115801561127b573d6000803e3d6000fd5b505050506112893382612479565b505050565b600080600f60008473ffffffffffffffffffffffffffffffffffffffff1673ffffffffffffffffffffffffffffffffffffffff168152602001908152602001600020600101549050600f60008473ffffffffffffffffffffffffffffffffffffffff1673ffffffffffffffffffffffffffffffffffffffff16815260200190815260200160002060020154421061156b576000600f60008573ffffffffffffffffffffffffffffffffffffffff1673ffffffffffffffffffffffffffffffffffffffff1681526020019081526020016000206003015490506000600b60009054906101000a900473ffffffffffffffffffffffffffffffffffffffff1673ffffffffffffffffffffffffffffffffffffffff166364dbfd816040518163ffffffff1660e01b8152600401602060405180830381600087803b1580156113d257600080fd5b505af11580156113e6573d6000803e3d6000fd5b505050506040513d60208110156113fc57600080fd5b810190808051906020019092919050505090506000611478611430836fffffffffffffffffffffffffffffffff168561273d565b600f60008973ffffffffffffffffffffffffffffffffffffffff1673ffffffffffffffffffffffffffffffffffffffff16815260200190815260200160002060010154612779565b9050816fffffffffffffffffffffffffffffffff16600f60008873ffffffffffffffffffffffffffffffffffffffff1673ffffffffffffffffffffffffffffffffffffffff16815260200190815260200160002060030181905550600042905081600f60008973ffffffffffffffffffffffffffffffffffffffff1673ffffffffffffffffffffffffffffffffffffffff1681526020019081526020016000206001018190555080600f60008973ffffffffffffffffffffffffffffffffffffffff1673ffffffffffffffffffffffffffffffffffffffff16815260200190815260200160002060020181905550505050505b80915050919050565b6002543410156115cf576040517f08c379a00000000000000000000000000000000000000000000000000000000081526004018080602001828103825260288152602001806129d76028913960400191505060405180910390fd5b34600c60003373ffffffffffffffffffffffffffffffffffffffff1673ffffffffffffffffffffffffffffffffffffffff1681526020019081526020016000205401600c60003373ffffffffffffffffffffffffffffffffffffffff1673ffffffffffffffffffffffffffffffffffffffff16815260200190815260200160002081905550565b600080600f60003373ffffffffffffffffffffffffffffffffffffffff1673ffffffffffffffffffffffffffffffffffffffff16815260200190815260200160002060030154905060006116a8612132565b905060006117016116b9838561273d565b600f60003373ffffffffffffffffffffffffffffffffffffffff1673ffffffffffffffffffffffffffffffffffffffff16815260200190815260200160002060010154612779565b905080600f60008773ffffffffffffffffffffffffffffffffffffffff1673ffffffffffffffffffffffffffffffffffffffff1681526020019081526020016000206001018190555081600f60003373ffffffffffffffffffffffffffffffffffffffff1673ffffffffffffffffffffffffffffffffffffffff16815260200190815260200160002060030181905550600042905080600f60008873ffffffffffffffffffffffffffffffffffffffff1673ffffffffffffffffffffffffffffffffffffffff1681526020019081526020016000206002018190555081945050505050919050565b6001601360003373ffffffffffffffffffffffffffffffffffffffff1673ffffffffffffffffffffffffffffffffffffffff168152602001908152602001600020541461189e576040517f08c379a000000000000000000000000000000000000000000000000000000000815260040180806020018281038252601b8152602001807f436f696e2f6163636f756e742d6e6f742d617574686f72697a6564000000000081525060200191505060405180910390fd5b80600160006101000a81548173ffffffffffffffffffffffffffffffffffffffff021916908373ffffffffffffffffffffffffffffffffffffffff16021790555050565b60055481565b6001601360003373ffffffffffffffffffffffffffffffffffffffff1673ffffffffffffffffffffffffffffffffffffffff168152602001908152602001600020541461199d576040517f08c379a000000000000000000000000000000000000000000000000000000000815260040180806020018281038252601b8152602001807f436f696e2f6163636f756e742d6e6f742d617574686f72697a6564000000000081525060200191505060405180910390fd5b6000601360008373ffffffffffffffffffffffffffffffffffffffff1673ffffffffffffffffffffffffffffffffffffffff168152602001908152602001600020819055507f8834a87e641e9716be4f34527af5d23e11624f1ddeefede6ad75a9acfc31b90381604051808273ffffffffffffffffffffffffffffffffffffffff1673ffffffffffffffffffffffffffffffffffffffff16815260200191505060405180910390a150565b600c6020528060005260406000206000915090505481565b60075481565b600e6020528060005260406000206000915090505481565b6001601360003373ffffffffffffffffffffffffffffffffffffffff1673ffffffffffffffffffffffffffffffffffffffff1681526020019081526020016000205414611b33576040517f08c379a000000000000000000000000000000000000000000000000000000000815260040180806020018281038252601b8152602001807f436f696e2f6163636f756e742d6e6f742d617574686f72697a6564000000000081525060200191505060405180910390fd5b600160009054906101000a900473ffffffffffffffffffffffffffffffffffffffff16601260006101000a81548173ffffffffffffffffffffffffffffffffffffffff021916908373ffffffffffffffffffffffffffffffffffffffff160217905550601260009054906101000a900473ffffffffffffffffffffffffffffffffffffffff1673ffffffffffffffffffffffffffffffffffffffff166340c10f1982846040518363ffffffff1660e01b8152600401808373ffffffffffffffffffffffffffffffffffffffff1673ffffffffffffffffffffffffffffffffffffffff16815260200182815260200192505050600060405180830381600087803b158015611c3f57600080fd5b505af1158015611c53573d6000803e3d6000fd5b505050505050565b600080600f60003373ffffffffffffffffffffffffffffffffffffffff1673ffffffffffffffffffffffffffffffffffffffff1681526020019081526020016000206003015490506000611cad6108a5565b90506000611d06611cbe838561273d565b600f60003373ffffffffffffffffffffffffffffffffffffffff1673ffffffffffffffffffffffffffffffffffffffff16815260200190815260200160002060010154612779565b905080600f60008773ffffffffffffffffffffffffffffffffffffffff1673ffffffffffffffffffffffffffffffffffffffff1681526020019081526020016000206001018190555081600f60003373ffffffffffffffffffffffffffffffffffffffff1673ffffffffffffffffffffffffffffffffffffffff16815260200190815260200160002060030181905550600042905080600f60008873ffffffffffffffffffffffffffffffffffffffff1673ffffffffffffffffffffffffffffffffffffffff1681526020019081526020016000206002018190555081945050505050919050565b6000611df933611c5b565b905081811015611e71576040517f08c379a000000000000000000000000000000000000000000000000000000000815260040180806020018281038252601e8152602001807f434450547261636b65722f657863656564732d646562742d616d6f756e74000081525060200191505060405180910390fd5b600160009054906101000a900473ffffffffffffffffffffffffffffffffffffffff16601260006101000a81548173ffffffffffffffffffffffffffffffffffffffff021916908373ffffffffffffffffffffffffffffffffffffffff160217905550611f20600f60003373ffffffffffffffffffffffffffffffffffffffff1673ffffffffffffffffffffffffffffffffffffffff16815260200190815260200160002060010154836127c1565b600f60003373ffffffffffffffffffffffffffffffffffffffff1673ffffffffffffffffffffffffffffffffffffffff16815260200190815260200160002060010181905550601260009054906101000a900473ffffffffffffffffffffffffffffffffffffffff1673ffffffffffffffffffffffffffffffffffffffff16639dc29fac33846040518363ffffffff1660e01b8152600401808373ffffffffffffffffffffffffffffffffffffffff1673ffffffffffffffffffffffffffffffffffffffff16815260200182815260200192505050600060405180830381600087803b15801561200f57600080fd5b505af1158015612023573d6000803e3d6000fd5b505050505050565b600d6020528060005260406000206000915090505481565b6001601360003373ffffffffffffffffffffffffffffffffffffffff1673ffffffffffffffffffffffffffffffffffffffff16815260200190815260200160002054146120f8576040517f08c379a000000000000000000000000000000000000000000000000000000000815260040180806020018281038252601b8152602001807f436f696e2f6163636f756e742d6e6f742d617574686f72697a6564000000000081525060200191505060405180910390fd5b8060058190555050565b600f6020528060005260406000206000915090508060000154908060010154908060020154908060030154905084565b60008060069050600061217f600a60009054906101000a90046fffffffffffffffffffffffffffffffff166fffffffffffffffffffffffffffffffff168367ffffffffffffffff166121a4565b9050806fffffffffffffffffffffffffffffffff166008819055506008549250505090565b600080600283816121b157fe5b0614156121ca576b033b2e3c9fd0803ce80000006121cc565b825b9050600282816121d857fe5b0491505b60008214612221576121ee8384612779565b92506000600283816121fc57fe5b061461220f5761220c8184612779565b90505b6002828161221957fe5b0491506121dc565b92915050565b600081601160006101000a81548173ffffffffffffffffffffffffffffffffffffffff021916908373ffffffffffffffffffffffffffffffffffffffff1602179055506000600c60003373ffffffffffffffffffffffffffffffffffffffff1673ffffffffffffffffffffffffffffffffffffffff1681526020019081526020016000205490506000601160009054906101000a900473ffffffffffffffffffffffffffffffffffffffff1673ffffffffffffffffffffffffffffffffffffffff16631ef476b76040518163ffffffff1660e01b8152600401602060405180830381600087803b15801561231a57600080fd5b505af115801561232e573d6000803e3d6000fd5b505050506040513d602081101561234457600080fd5b810190808051906020019092919050505090506000601160009054906101000a900473ffffffffffffffffffffffffffffffffffffffff1673ffffffffffffffffffffffffffffffffffffffff1663d513c5106040518163ffffffff1660e01b8152600401602060405180830381600087803b1580156123c357600080fd5b505af11580156123d7573d6000803e3d6000fd5b505050506040513d60208110156123ed57600080fd5b810190808051906020019092919050505090506000818402905080945050505050919050565b6000828284019150811015612473576040517f08c379a00000000000000000000000000000000000000000000000000000000081526004018080602001828103825260218152602001806129b66021913960400191505060405180910390fd5b92915050565b600060608373ffffffffffffffffffffffffffffffffffffffff168360405180600001905060006040518083038185875af1925050503d80600081146124db576040519150601f19603f3d011682016040523d82523d6000602084013e6124e0565b606091505b509150915081612558576040517f08c379a00000000000000000000000000000000000000000000000000000000081526004018080602001828103825260138152602001807f4661696c656420746f2073656e6420524254430000000000000000000000000081525060200191505060405180910390fd5b50505050565b600081601160006101000a81548173ffffffffffffffffffffffffffffffffffffffff021916908373ffffffffffffffffffffffffffffffffffffffff1602179055506000601160009054906101000a900473ffffffffffffffffffffffffffffffffffffffff1673ffffffffffffffffffffffffffffffffffffffff16631ef476b76040518163ffffffff1660e01b8152600401602060405180830381600087803b15801561260d57600080fd5b505af1158015612621573d6000803e3d6000fd5b505050506040513d602081101561263757600080fd5b810190808051906020019092919050505090506000601160009054906101000a900473ffffffffffffffffffffffffffffffffffffffff1673ffffffffffffffffffffffffffffffffffffffff1663fe1d92346040518163ffffffff1660e01b8152600401602060405180830381600087803b1580156126b657600080fd5b505af11580156126ca573d6000803e3d6000fd5b505050506040513d60208110156126e057600080fd5b81019080805190602001909291905050509050600082620f424083028161270357fe5b049050809350505050919050565b60008082148061272e575082828385029250828161272b57fe5b04145b61273757600080fd5b92915050565b600081612769612759856b033b2e3c9fd0803ce8000000612827565b6002858161276357fe5b046128bc565b8161277057fe5b04905092915050565b60006b033b2e3c9fd0803ce80000006127b16127958585612827565b60026b033b2e3c9fd0803ce8000000816127ab57fe5b046128bc565b816127b857fe5b04905092915050565b6000828284039150811115612821576040517f08c379a00000000000000000000000000000000000000000000000000000000081526004018080602001828103825260228152602001806129406022913960400191505060405180910390fd5b92915050565b600080821480612844575082828385029250828161284157fe5b04145b6128b6576040517f08c379a00000000000000000000000000000000000000000000000000000000081526004018080602001828103825260148152602001807f64732d6d6174682d6d756c2d6f766572666c6f7700000000000000000000000081525060200191505060405180910390fd5b92915050565b6000828284019150811015612939576040517f08c379a00000000000000000000000000000000000000000000000000000000081526004018080602001828103825260148152602001807f64732d6d6174682d6164642d6f766572666c6f7700000000000000000000000081525060200191505060405180910390fd5b9291505056fe53414645456e67696e652f7375622d75696e742d75696e742d756e646572666c6f77434450547261636b65722f696e73756666696369656e742d636f6c6c61746572616c2d746f2d6d696e742d737461626c6573434450547261636b65722f616d6f756e742d657863656564732d6465706f7369747353414645456e67696e652f6164642d75696e742d75696e742d6f766572666c6f77434450547261636b65722f6e6f6e2d64757374792d636f6c6c61746572616c2d7265717569726564a26469706673582212205bd3a35ec3520410ba2f695340a614faa91f0447c10d62207452538a21238a2864736f6c63430006070033",
  "immutableReferences": {},
  "source": "pragma solidity 0.6.7;\n\nimport \"./dsmath.sol\";\n\n\ncontract CoinLike{\n  mapping (address => uint256)                      public balanceOf;\n  // Mapping of allowances\n  mapping (address => mapping (address => uint256)) public allowance;\n  // Mapping of nonces used for permits\n  mapping (address => uint256)                      public nonces;\n  function addAuthorization(address account) external {}\n  function removeAuthorization(address account) external {}\n  function transfer(address dst, uint256 amount) external returns (bool) {}\n  function transferFrom(address src, address dst, uint256 amount)\n        public returns (bool){}\n  function mint(address usr, uint256 amount) external {}\n  function burn(address usr, uint256 amount) external {}\n  function approve(address usr, uint256 amount) external returns (bool) {}\n  function push(address usr, uint256 amount) external {}\n  function pull(address usr, uint256 amount) external {}\n  function move(address src, address dst, uint256 amount) external {}\n  function permit(\n        address holder,\n        address spender,\n        uint256 nonce,\n        uint256 expiry,\n        bool allowed,\n        uint8 v,\n        bytes32 r,\n        bytes32 s\n    ) external\n    {}\n}\n\ncontract OracleLike{\n  function addAuthorization(address account) external {}\n  function removeAuthorization(address account) external {}\n  function setCollateralRatio(uint256 ratio) external {}\n  function peekCollateralRatio() external returns(uint256) {}\n  function peekBSMA() external returns(uint256){}\n  function peekBX() external returns(uint256){}\n\n\n}\n\ncontract TaxCollectorLike{\n  function updateAR() public returns (uint256) {}\n  function updateAccumulatedRate() public returns (uint128) {}\n}\ncontract CDPTracker is DSMath {\n\naddress Oracle;\naddress Coin;\nuint256 dust; //Minimum amount of collateral deposited\nuint256 Interest; // Interest rate set by governance. Applies from next calculation after rate is set.\n\nuint256 totalDebt;\nuint256 public globalDebt;\nuint256 totalSurplus;\nuint256 public lastAR; // last AR for system surplus calculation.\nuint256 RATE;\nuint256 INIT;\n\nuint128 globalStabilityFee= 1000000564701133626865910626; //[ray] per second rate, 5% per day setting for testing.\nTaxCollectorLike TC = TaxCollectorLike(0x950fc41BA7Fe437121340955dBaEBe4dE8fb0EB5);\n\n// mapping (address => uint256) LastupdateTime;\n// mapping (address => uint128) originRate;\n\nstruct SAFE {\n    // Total amount of collateral locked in a SAFE\n      uint256 collateral;\n      // Total amount of debt generated by a SAFE, including interest\n      uint256 debtIssued;  // [wad]\n      // last interest rate update timestamp\n      uint256 updateTime;     // [wad]\n      // global AR at last update\n      uint256 originRate; // [RAY]\n  }\n\nmapping (address=>uint256) public collateral; // collateral deposited by UserAddress\nmapping (address=>uint256) public debtIssued; // debt issued by UserAddress\n// mapping (address=>uint256) public interestDue; // interest due by UserAddress\nmapping (address=>uint256) public initTime;\nmapping (address => SAFE) public safes;\n\nuint256 LastupdateTime;\nOracleLike Orc;\nCoinLike coin;\n\nconstructor(address ORC, uint256 DUST) public {\n  Oracle = ORC;\n  dust = DUST;\n  authorizedAccounts[msg.sender] = 1;\n  INIT = block.timestamp;\n}\nevent AddAuthorization(address account);\nevent RemoveAuthorization(address account);\n\nmapping (address => uint256) public authorizedAccounts;\n/**\n * @notice Add auth to an account\n * @param account Account to add auth to\n */\nfunction addAuthorization(address account) external isAuthorized {\n    authorizedAccounts[account] = 1;\n    emit AddAuthorization(account);\n}\n/**\n * @notice Remove auth from an account\n * @param account Account to remove auth from\n */\nfunction removeAuthorization(address account) external isAuthorized {\n    authorizedAccounts[account] = 0;\n    emit RemoveAuthorization(account);\n}\n/**\n* @notice Checks whether msg.sender can call an authed function\n**/\n\nevent UpdateAccumulatedRate(\n    address surplusDst,\n    int256 rateMultiplier,\n    uint256 globalDebt\n);\n\nmodifier isAuthorized {\n    require(authorizedAccounts[msg.sender] == 1, \"Coin/account-not-authorized\");\n    _;\n}\n\n// math\nfunction add(uint256 x, int256 y) internal pure returns (uint256 z) {\n    z = x + uint256(y);\n    require(y >= 0 || z <= x, \"SAFEEngine/add-uint-int-overflow\");\n    require(y <= 0 || z >= x, \"SAFEEngine/add-uint-int-underflow\");\n}\nfunction add(int256 x, int256 y) internal pure returns (int256 z) {\n    z = x + y;\n    require(y >= 0 || z <= x, \"SAFEEngine/add-int-int-overflow\");\n    require(y <= 0 || z >= x, \"SAFEEngine/add-int-int-underflow\");\n}\nfunction sub(uint256 x, int256 y) internal pure returns (uint256 z) {\n    z = x - uint256(y);\n    require(y <= 0 || z <= x, \"SAFEEngine/sub-uint-int-overflow\");\n    require(y >= 0 || z >= x, \"SAFEEngine/sub-uint-int-underflow\");\n}\nfunction sub(int256 x, int256 y) internal pure returns (int256 z) {\n    z = x - y;\n    require(y <= 0 || z <= x, \"SAFEEngine/sub-int-int-overflow\");\n    require(y >= 0 || z >= x, \"SAFEEngine/sub-int-int-underflow\");\n}\nfunction mul(uint256 x, int256 y) internal pure returns (int256 z) {\n    z = int256(x) * y;\n    require(int256(x) >= 0, \"SAFEEngine/mul-uint-int-null-x\");\n    require(y == 0 || z / y == int256(x), \"SAFEEngine/mul-uint-int-overflow\");\n}\nfunction mul(uint x, uint y) internal pure returns (uint z) {\n    require(y == 0 || (z = x * y) / y == x);\n}\n\nfunction add(uint256 x, uint256 y) internal pure returns (uint256 z) {\n    require((z = x + y) >= x, \"SAFEEngine/add-uint-uint-overflow\");\n}\nfunction sub(uint256 x, uint256 y) internal pure returns (uint256 z) {\n    require((z = x - y) <= x, \"SAFEEngine/sub-uint-uint-underflow\");\n}\n\n\nfunction setCoin(address STABLE) external isAuthorized {\n  Coin = STABLE;\n}\n\n// Function called by TaxCollector Contract\nfunction newAR(uint256 newRATE) external isAuthorized {\n  RATE = newRATE;\n}\n\n// Function called by TaxCollector Contract\nfunction updateGlobalDebt(uint256 newDebt) external isAuthorized {\n  globalDebt = newDebt;\n}\n\n// Function called by TaxCollector Contract\nfunction issueSurplus(uint256 amount, address treasury) external isAuthorized {\n    coin = CoinLike(Coin);\n    coin.mint(treasury, amount);\n  }\n\nfunction updateUserDebt(address user) public returns(uint256) {\n  // uint256 timeDifference = sub(now, LastupdateTime[user]);\n  uint256 newDebt = safes[user].debtIssued;\n  if (now >= safes[user].updateTime) {\n  uint256 originalrate = safes[user].originRate;\n  uint128 newrate= TC.updateAccumulatedRate();\n  // uint256 newDebt = rmul(debtIssued[user], rpow(accumulatedRate, timeDifference));\n  // uint256 newDebt = ((NewRate/OriginRate)*safes[msg.sender].debtIssued)/10000;\n  uint256 newDebt = rmul(rdiv(newrate, originalrate), safes[user].debtIssued);\n  safes[user].originRate = newrate;\n  uint256 newTime = now;\n  // safes[user].debtIssued = newDebt;\n  // LastupdateTime[user] - newTime;\n  safes[user].debtIssued = newDebt;\n  safes[user].updateTime = newTime;\n}\n  return newDebt;\n\n}\n\n\n// test - hardcoded value of time elapsed.\nfunction updateAccumulatedRate0() public returns (uint256) {\n  uint64 powertime = 6; //[wad] replace with time gap since last update\n  //uint64 powertime = block.timestamp - INIT\n  uint256 rateupdate = rpow(globalStabilityFee, powertime);\n  RATE=uint128(rateupdate);\n  return RATE;\n  }\n\n// test - hardcoded value of time elapsed.\nfunction updateAccumulatedRate1() public returns (uint256) {\n  uint64 powertime = 86406; // set to 1 day by default. replace with time gap since last update using\n  //uint64 powertime = block.timestamp - INIT\n  uint256 rateupdate = rpow(globalStabilityFee, powertime);\n  RATE=uint128(rateupdate);\n  return RATE;\n  }\n\n// Test function\nfunction updateUserDebt1(address user) public returns(uint256) {\n  // uint256 timeDifference = sub(now, LastupdateTime[user]);\n  // uint256 NewRate = 101000000000;\n  // uint256 OriginRate = 1000000000;\n  uint256 originalrate = safes[msg.sender].originRate;\n  // uint256 newrate= TC.updateAR();\n  uint256 newrate = updateAccumulatedRate0();\n  // uint256 newDebt = rmul(debtIssued[user], rpow(accumulatedRate, timeDifference));\n  uint256 newDebt = rmul(rdiv(newrate, originalrate), safes[msg.sender].debtIssued);\n  //uint256 newTime = now;\n  safes[user].debtIssued = newDebt;\n  // LastupdateTime[user] = newTime;\n  safes[msg.sender].originRate = newrate;\n  uint256 newTime = now;\n  safes[user].updateTime = newTime;\n  return newDebt;\n}\n\n// Test function\nfunction updateUserDebt2(address user) public returns(uint256) {\n  // uint256 timeDifference = sub(now, LastupdateTime[user]);\n  // uint256 NewRate = 101000000000;\n  // uint256 OriginRate = 1000000000;\n  uint256 originalrate = safes[msg.sender].originRate;\n  // uint256 newrate= TC.updateAR();\n  uint256 newrate = updateAccumulatedRate1();\n  // uint256 newDebt = rmul(debtIssued[user], rpow(accumulatedRate, timeDifference));\n  uint256 newDebt = rmul(rdiv(newrate, originalrate), safes[msg.sender].debtIssued);\n  //uint256 newTime = now;\n  safes[user].debtIssued = newDebt;\n  // LastupdateTime[user] = newTime;\n  safes[msg.sender].originRate = newrate;\n  uint256 newTime = now;\n  safes[user].updateTime = newTime;\n  return newDebt;\n}\n\n\nfunction computeDebtLimit(address _oracle) internal returns (uint256){\n   Orc = OracleLike(_oracle);\n   uint256 _collateral = collateral[msg.sender]; //Amount of RBTC Collateral in SAFE\n   uint256 currentBX = Orc.peekBX();\n   uint256 currentCollateralRatio = Orc.peekCollateralRatio(); //12500 by default, to be divided by 100\n   uint256 currentDebtLimit = _collateral * currentCollateralRatio; // 1 xBTC can be minted (borrowed) for every 1.25 BTC collateral by default.\n   return currentDebtLimit;\n }\n\n function computeRedeemPrice(address _oracle) internal returns (uint256){\n   Orc = OracleLike(_oracle);\n   uint256 currentBX = Orc.peekBX(); //BTC-USD exchange rate\n   uint256 currentBSMA = Orc.peekBSMA(); //Current USD redemption rate of 1 xBTC\n   uint256 currentRedeemPrice = (currentBSMA*1000000)/currentBX; //10e6 multiplier to preserve precision of fraction.\n   return currentRedeemPrice;\n }\n\n function sendRBTC(address payable _to, uint256 amount) internal {\n        // Call returns a boolean value indicating success or failure.\n        (bool sent, bytes memory data) = _to.call{value: amount}(\"\");\n        require(sent, \"Failed to send RBTC\");\n    }\n\n //deposit RBTC collateral in safe\n function depositCollateral() public payable {\n    require(msg.value>=dust, 'CDPTracker/non-dusty-collateral-required');\n    collateral[msg.sender] = (collateral[msg.sender]) + msg.value;\n  }\n\n  function _calculateInterest(address user) internal returns (uint256){\n\n\n  }\n\n  function takeDebt(uint256 amount) public {\n    uint256 debtLimit = computeDebtLimit(Oracle);\n    address user = address(msg.sender);\n    uint256 issuedDebt = updateUserDebt1(msg.sender);\n    uint256 availableDebt = debtLimit - issuedDebt;\n    require(availableDebt >= amount, \"CDPTracker/insufficient-collateral-to-mint-stables\"); //collateral sufficiency check\n    coin = CoinLike(Coin);\n    safes[msg.sender].debtIssued = add(safes[msg.sender].debtIssued, amount);\n    globalDebt += amount;\n    coin.mint(msg.sender, amount);\n    safes[msg.sender].updateTime = now;\n    safes[msg.sender].originRate = updateAccumulatedRate0();\n  }\n\n  function returnDebt(uint256 amount) public {\n    uint256 issuedDebt = updateUserDebt2(msg.sender); // update balance to include interest\n    require(issuedDebt >= amount, \"CDPTracker/exceeds-debt-amount\");\n    coin = CoinLike(Coin);\n    safes[msg.sender].debtIssued = sub(safes[msg.sender].debtIssued, amount);\n    coin.burn(msg.sender, amount);\n  }\n\n  function redeemCoins(uint256 amount) public payable {\n    coin = CoinLike(Coin);\n    require(coin.balanceOf(msg.sender)>=amount, \"CDPTracker/exceeds-balance\");\n    uint256 redemptionRatePerCoin = computeRedeemPrice(Oracle);\n    uint256 totalRedemptionAmount = mul(redemptionRatePerCoin, amount)/1000000;\n    coin.burn(msg.sender, amount);\n    sendRBTC(msg.sender, totalRedemptionAmount);\n  }\n\n  function removeCollateral(uint256 amount) public payable {\n     require(amount>=dust, 'CDPTracker/non-dusty-collateral-required');\n     uint256 _collateral = collateral[msg.sender]; //Amount of RBTC Collateral in CDP\n     require(amount<=_collateral, 'CDPTracker/amount-exceeds-deposits');\n     uint256 issuedDebt = safes[msg.sender].debtIssued;\n     require(issuedDebt==0, 'CDPTracker/debt-not-repaid');\n     collateral[msg.sender] = (collateral[msg.sender]) - amount;\n     sendRBTC(msg.sender, amount);\n   }\n\n}\n",
  "sourcePath": "/Users/dm/Documents/wishbone/BrainDAO/contracts/CDPTracker.sol",
  "compiler": {
    "name": "solc",
    "version": "0.6.7+commit.b8d736ae.Emscripten.clang"
  },
  "schemaVersion": "3.4.3",
  "updatedAt": "2022-01-31T00:20:40.763Z",
  "devdoc": {
    "methods": {
      "addAuthorization(address)": {
        "params": {
          "account": "Account to add auth to"
        }
      },
      "removeAuthorization(address)": {
        "params": {
          "account": "Account to remove auth from"
        }
      }
    }
  },
  "userdoc": {
    "methods": {
      "addAuthorization(address)": {
        "notice": "Add auth to an account"
      },
      "removeAuthorization(address)": {
        "notice": "Remove auth from an account"
      }
    }
  }
}