{
  "contractName": "CDPTracker",
  "abi": [
    {
      "inputs": [
        {
          "internalType": "address",
          "name": "ORC",
          "type": "address"
        },
        {
          "internalType": "uint256",
          "name": "DUST",
          "type": "uint256"
        }
      ],
      "stateMutability": "nonpayable",
      "type": "constructor"
    },
    {
      "anonymous": false,
      "inputs": [
        {
          "indexed": false,
          "internalType": "address",
          "name": "account",
          "type": "address"
        }
      ],
      "name": "AddAuthorization",
      "type": "event"
    },
    {
      "anonymous": false,
      "inputs": [
        {
          "indexed": false,
          "internalType": "address",
          "name": "account",
          "type": "address"
        }
      ],
      "name": "RemoveAuthorization",
      "type": "event"
    },
    {
      "anonymous": false,
      "inputs": [
        {
          "indexed": false,
          "internalType": "address",
          "name": "surplusDst",
          "type": "address"
        },
        {
          "indexed": false,
          "internalType": "int256",
          "name": "rateMultiplier",
          "type": "int256"
        },
        {
          "indexed": false,
          "internalType": "uint256",
          "name": "globalDebt",
          "type": "uint256"
        }
      ],
      "name": "UpdateAccumulatedRate",
      "type": "event"
    },
    {
      "inputs": [],
      "name": "INIT",
      "outputs": [
        {
          "internalType": "uint256",
          "name": "",
          "type": "uint256"
        }
      ],
      "stateMutability": "view",
      "type": "function",
      "constant": true
    },
    {
      "inputs": [
        {
          "internalType": "address",
          "name": "",
          "type": "address"
        }
      ],
      "name": "authorizedAccounts",
      "outputs": [
        {
          "internalType": "uint256",
          "name": "",
          "type": "uint256"
        }
      ],
      "stateMutability": "view",
      "type": "function",
      "constant": true
    },
    {
      "inputs": [
        {
          "internalType": "address",
          "name": "",
          "type": "address"
        }
      ],
      "name": "collateral",
      "outputs": [
        {
          "internalType": "uint256",
          "name": "",
          "type": "uint256"
        }
      ],
      "stateMutability": "view",
      "type": "function",
      "constant": true
    },
    {
      "inputs": [
        {
          "internalType": "address",
          "name": "",
          "type": "address"
        }
      ],
      "name": "debtIssued",
      "outputs": [
        {
          "internalType": "uint256",
          "name": "",
          "type": "uint256"
        }
      ],
      "stateMutability": "view",
      "type": "function",
      "constant": true
    },
    {
      "inputs": [],
      "name": "globalDebt",
      "outputs": [
        {
          "internalType": "uint256",
          "name": "",
          "type": "uint256"
        }
      ],
      "stateMutability": "view",
      "type": "function",
      "constant": true
    },
    {
      "inputs": [
        {
          "internalType": "address",
          "name": "",
          "type": "address"
        }
      ],
      "name": "initTime",
      "outputs": [
        {
          "internalType": "uint256",
          "name": "",
          "type": "uint256"
        }
      ],
      "stateMutability": "view",
      "type": "function",
      "constant": true
    },
    {
      "inputs": [],
      "name": "lastAR",
      "outputs": [
        {
          "internalType": "uint256",
          "name": "",
          "type": "uint256"
        }
      ],
      "stateMutability": "view",
      "type": "function",
      "constant": true
    },
    {
      "inputs": [
        {
          "internalType": "address",
          "name": "",
          "type": "address"
        }
      ],
      "name": "safes",
      "outputs": [
        {
          "internalType": "uint256",
          "name": "collateral",
          "type": "uint256"
        },
        {
          "internalType": "uint256",
          "name": "debtIssued",
          "type": "uint256"
        },
        {
          "internalType": "uint256",
          "name": "updateTime",
          "type": "uint256"
        },
        {
          "internalType": "uint256",
          "name": "originRate",
          "type": "uint256"
        }
      ],
      "stateMutability": "view",
      "type": "function",
      "constant": true
    },
    {
      "inputs": [
        {
          "internalType": "address",
          "name": "account",
          "type": "address"
        }
      ],
      "name": "addAuthorization",
      "outputs": [],
      "stateMutability": "nonpayable",
      "type": "function"
    },
    {
      "inputs": [
        {
          "internalType": "address",
          "name": "account",
          "type": "address"
        }
      ],
      "name": "removeAuthorization",
      "outputs": [],
      "stateMutability": "nonpayable",
      "type": "function"
    },
    {
      "inputs": [
        {
          "internalType": "address",
          "name": "STABLE",
          "type": "address"
        }
      ],
      "name": "setCoin",
      "outputs": [],
      "stateMutability": "nonpayable",
      "type": "function"
    },
    {
      "inputs": [
        {
          "internalType": "uint256",
          "name": "newRATE",
          "type": "uint256"
        }
      ],
      "name": "newAR",
      "outputs": [],
      "stateMutability": "nonpayable",
      "type": "function"
    },
    {
      "inputs": [
        {
          "internalType": "uint256",
          "name": "newDebt",
          "type": "uint256"
        }
      ],
      "name": "updateGlobalDebt",
      "outputs": [],
      "stateMutability": "nonpayable",
      "type": "function"
    },
    {
      "inputs": [
        {
          "internalType": "uint256",
          "name": "amount",
          "type": "uint256"
        },
        {
          "internalType": "address",
          "name": "treasury",
          "type": "address"
        }
      ],
      "name": "issueSurplus",
      "outputs": [],
      "stateMutability": "nonpayable",
      "type": "function"
    },
    {
      "inputs": [
        {
          "internalType": "address",
          "name": "user",
          "type": "address"
        }
      ],
      "name": "updateUserDebt",
      "outputs": [
        {
          "internalType": "uint256",
          "name": "",
          "type": "uint256"
        }
      ],
      "stateMutability": "nonpayable",
      "type": "function"
    },
    {
      "inputs": [],
      "name": "updateAccumulatedRate0",
      "outputs": [
        {
          "internalType": "uint256",
          "name": "",
          "type": "uint256"
        }
      ],
      "stateMutability": "nonpayable",
      "type": "function"
    },
    {
      "inputs": [],
      "name": "updateAccumulatedRate1",
      "outputs": [
        {
          "internalType": "uint256",
          "name": "",
          "type": "uint256"
        }
      ],
      "stateMutability": "nonpayable",
      "type": "function"
    },
    {
      "inputs": [
        {
          "internalType": "address",
          "name": "user",
          "type": "address"
        }
      ],
      "name": "updateUserDebt1",
      "outputs": [
        {
          "internalType": "uint256",
          "name": "",
          "type": "uint256"
        }
      ],
      "stateMutability": "nonpayable",
      "type": "function"
    },
    {
      "inputs": [
        {
          "internalType": "address",
          "name": "user",
          "type": "address"
        }
      ],
      "name": "updateUserDebt2",
      "outputs": [
        {
          "internalType": "uint256",
          "name": "",
          "type": "uint256"
        }
      ],
      "stateMutability": "nonpayable",
      "type": "function"
    },
    {
      "inputs": [],
      "name": "depositCollateral",
      "outputs": [],
      "stateMutability": "payable",
      "type": "function",
      "payable": true
    },
    {
      "inputs": [
        {
          "internalType": "uint256",
          "name": "amount",
          "type": "uint256"
        }
      ],
      "name": "takeDebt",
      "outputs": [],
      "stateMutability": "nonpayable",
      "type": "function"
    },
    {
      "inputs": [
        {
          "internalType": "uint256",
          "name": "amount",
          "type": "uint256"
        }
      ],
      "name": "returnDebt",
      "outputs": [],
      "stateMutability": "nonpayable",
      "type": "function"
    },
    {
      "inputs": [
        {
          "internalType": "uint256",
          "name": "amount",
          "type": "uint256"
        }
      ],
      "name": "redeemCoins",
      "outputs": [],
      "stateMutability": "payable",
      "type": "function",
      "payable": true
    },
    {
      "inputs": [
        {
          "internalType": "uint256",
          "name": "amount",
          "type": "uint256"
        }
      ],
      "name": "removeCollateral",
      "outputs": [],
      "stateMutability": "payable",
      "type": "function",
      "payable": true
    }
  ],
  "bytecode": "0x60806040526b033b2e3c9fd0803ce80000006008556b033b2e5b3c9df15b51bc8362600a60006101000a8154816fffffffffffffffffffffffffffffffff02191690836fffffffffffffffffffffffffffffffff16021790555073950fc41ba7fe437121340955dbaebe4de8fb0eb5600b60006101000a81548173ffffffffffffffffffffffffffffffffffffffff021916908373ffffffffffffffffffffffffffffffffffffffff1602179055503480156100ba57600080fd5b50604051612c18380380612c18833981810160405260408110156100dd57600080fd5b810190808051906020019092919080519060200190929190505050816000806101000a81548173ffffffffffffffffffffffffffffffffffffffff021916908373ffffffffffffffffffffffffffffffffffffffff160217905550806002819055506001601360003373ffffffffffffffffffffffffffffffffffffffff1673ffffffffffffffffffffffffffffffffffffffff16815260200190815260200160002081905550426009819055505050612a7c8061019c6000396000f3fe60806040526004361061014b5760003560e01c806394f3f81d116100b6578063d2cedf041161006f578063d2cedf0414610659578063db4f2d3414610694578063e8284910146106f9578063ea64391414610734578063f47f43fd1461075f578063fe07d90a146107d95761014b565b806394f3f81d14610453578063a5fdc5de146104a4578063b5c9d79914610509578063bec241c514610534578063d1715b6d14610599578063d26661ac146105f45761014b565b806339eb283c1161010857806339eb283c146102d5578063407ceabc146103035780636f75814014610368578063769194091461037257806382e46b75146103d75780638543d5e0146104285761014b565b80631ee17f2d1461015057806324ba58841461018b5780632a8f2634146101f05780632fd97af31461021b5780633237c1581461025657806335b2815314610284575b600080fd5b34801561015c57600080fd5b506101896004803603602081101561017357600080fd5b8101908080359060200190929190505050610804565b005b34801561019757600080fd5b506101da600480360360208110156101ae57600080fd5b81019080803573ffffffffffffffffffffffffffffffffffffffff1690602001909291905050506108c3565b6040518082815260200191505060405180910390f35b3480156101fc57600080fd5b506102056108db565b6040518082815260200191505060405180910390f35b34801561022757600080fd5b506102546004803603602081101561023e57600080fd5b810190808035906020019092919050505061094f565b005b6102826004803603602081101561026c57600080fd5b8101908080359060200190929190505050610c4b565b005b34801561029057600080fd5b506102d3600480360360208110156102a757600080fd5b81019080803573ffffffffffffffffffffffffffffffffffffffff169060200190929190505050610e9d565b005b610301600480360360208110156102eb57600080fd5b8101908080359060200190929190505050610ffd565b005b34801561030f57600080fd5b506103526004803603602081101561032657600080fd5b81019080803573ffffffffffffffffffffffffffffffffffffffff1690602001909291905050506112c7565b6040518082815260200191505060405180910390f35b6103706115ad565b005b34801561037e57600080fd5b506103c16004803603602081101561039557600080fd5b81019080803573ffffffffffffffffffffffffffffffffffffffff169060200190929190505050611695565b6040518082815260200191505060405180910390f35b3480156103e357600080fd5b50610426600480360360208110156103fa57600080fd5b81019080803573ffffffffffffffffffffffffffffffffffffffff169060200190929190505050611828565b005b34801561043457600080fd5b5061043d611921565b6040518082815260200191505060405180910390f35b34801561045f57600080fd5b506104a26004803603602081101561047657600080fd5b81019080803573ffffffffffffffffffffffffffffffffffffffff169060200190929190505050611927565b005b3480156104b057600080fd5b506104f3600480360360208110156104c757600080fd5b81019080803573ffffffffffffffffffffffffffffffffffffffff169060200190929190505050611a87565b6040518082815260200191505060405180910390f35b34801561051557600080fd5b5061051e611a9f565b6040518082815260200191505060405180910390f35b34801561054057600080fd5b506105836004803603602081101561055757600080fd5b81019080803573ffffffffffffffffffffffffffffffffffffffff169060200190929190505050611aa5565b6040518082815260200191505060405180910390f35b3480156105a557600080fd5b506105f2600480360360408110156105bc57600080fd5b8101908080359060200190929190803573ffffffffffffffffffffffffffffffffffffffff169060200190929190505050611abd565b005b34801561060057600080fd5b506106436004803603602081101561061757600080fd5b81019080803573ffffffffffffffffffffffffffffffffffffffff169060200190929190505050611c9a565b6040518082815260200191505060405180910390f35b34801561066557600080fd5b506106926004803603602081101561067c57600080fd5b8101908080359060200190929190505050611e2d565b005b3480156106a057600080fd5b506106e3600480360360208110156106b757600080fd5b81019080803573ffffffffffffffffffffffffffffffffffffffff16906020019092919050505061206a565b6040518082815260200191505060405180910390f35b34801561070557600080fd5b506107326004803603602081101561071c57600080fd5b8101908080359060200190929190505050612082565b005b34801561074057600080fd5b50610749612141565b6040518082815260200191505060405180910390f35b34801561076b57600080fd5b506107ae6004803603602081101561078257600080fd5b81019080803573ffffffffffffffffffffffffffffffffffffffff169060200190929190505050612147565b6040518085815260200184815260200183815260200182815260200194505050505060405180910390f35b3480156107e557600080fd5b506107ee612177565b6040518082815260200191505060405180910390f35b6001601360003373ffffffffffffffffffffffffffffffffffffffff1673ffffffffffffffffffffffffffffffffffffffff16815260200190815260200160002054146108b9576040517f08c379a000000000000000000000000000000000000000000000000000000000815260040180806020018281038252601b8152602001807f436f696e2f6163636f756e742d6e6f742d617574686f72697a6564000000000081525060200191505060405180910390fd5b8060088190555050565b60136020528060005260406000206000915090505481565b600080620151869050600061092a600a60009054906101000a90046fffffffffffffffffffffffffffffffff166fffffffffffffffffffffffffffffffff168367ffffffffffffffff166121e9565b9050806fffffffffffffffffffffffffffffffff166008819055506008549250505090565b600061097b6000809054906101000a900473ffffffffffffffffffffffffffffffffffffffff1661226c565b9050600061098833611695565b905060008183039050838110156109ea576040517f08c379a00000000000000000000000000000000000000000000000000000000081526004018080602001828103825260328152602001806129aa6032913960400191505060405180910390fd5b600160009054906101000a900473ffffffffffffffffffffffffffffffffffffffff16601260006101000a81548173ffffffffffffffffffffffffffffffffffffffff021916908373ffffffffffffffffffffffffffffffffffffffff160217905550610a99600f60003373ffffffffffffffffffffffffffffffffffffffff1673ffffffffffffffffffffffffffffffffffffffff168152602001908152602001600020600101548561245b565b600f60003373ffffffffffffffffffffffffffffffffffffffff1673ffffffffffffffffffffffffffffffffffffffff1681526020019081526020016000206001018190555083600560008282540192505081905550601260009054906101000a900473ffffffffffffffffffffffffffffffffffffffff1673ffffffffffffffffffffffffffffffffffffffff166340c10f1933866040518363ffffffff1660e01b8152600401808373ffffffffffffffffffffffffffffffffffffffff1673ffffffffffffffffffffffffffffffffffffffff16815260200182815260200192505050600060405180830381600087803b158015610b9857600080fd5b505af1158015610bac573d6000803e3d6000fd5b5050505042600f60003373ffffffffffffffffffffffffffffffffffffffff1673ffffffffffffffffffffffffffffffffffffffff16815260200190815260200160002060020181905550610bff612177565b600f60003373ffffffffffffffffffffffffffffffffffffffff1673ffffffffffffffffffffffffffffffffffffffff1681526020019081526020016000206003018190555050505050565b600254811015610ca6576040517f08c379a0000000000000000000000000000000000000000000000000000000008152600401808060200182810382526028815260200180612a1f6028913960400191505060405180910390fd5b6000600f60003373ffffffffffffffffffffffffffffffffffffffff1673ffffffffffffffffffffffffffffffffffffffff16815260200190815260200160002060000154905080821115610d46576040517f08c379a00000000000000000000000000000000000000000000000000000000081526004018080602001828103825260228152602001806129dc6022913960400191505060405180910390fd5b6000600f60003373ffffffffffffffffffffffffffffffffffffffff1673ffffffffffffffffffffffffffffffffffffffff16815260200190815260200160002060010154905060008114610e03576040517f08c379a000000000000000000000000000000000000000000000000000000000815260040180806020018281038252601a8152602001807f434450547261636b65722f646562742d6e6f742d72657061696400000000000081525060200191505060405180910390fd5b82600f60003373ffffffffffffffffffffffffffffffffffffffff1673ffffffffffffffffffffffffffffffffffffffff1681526020019081526020016000206000015403600f60003373ffffffffffffffffffffffffffffffffffffffff1673ffffffffffffffffffffffffffffffffffffffff16815260200190815260200160002060000181905550610e9833846124c1565b505050565b6001601360003373ffffffffffffffffffffffffffffffffffffffff1673ffffffffffffffffffffffffffffffffffffffff1681526020019081526020016000205414610f52576040517f08c379a000000000000000000000000000000000000000000000000000000000815260040180806020018281038252601b8152602001807f436f696e2f6163636f756e742d6e6f742d617574686f72697a6564000000000081525060200191505060405180910390fd5b6001601360008373ffffffffffffffffffffffffffffffffffffffff1673ffffffffffffffffffffffffffffffffffffffff168152602001908152602001600020819055507f599a298163e1678bb1c676052a8930bf0b8a1261ed6e01b8a2391e55f700010281604051808273ffffffffffffffffffffffffffffffffffffffff1673ffffffffffffffffffffffffffffffffffffffff16815260200191505060405180910390a150565b600160009054906101000a900473ffffffffffffffffffffffffffffffffffffffff16601260006101000a81548173ffffffffffffffffffffffffffffffffffffffff021916908373ffffffffffffffffffffffffffffffffffffffff16021790555080601260009054906101000a900473ffffffffffffffffffffffffffffffffffffffff1673ffffffffffffffffffffffffffffffffffffffff166370a08231336040518263ffffffff1660e01b8152600401808273ffffffffffffffffffffffffffffffffffffffff1673ffffffffffffffffffffffffffffffffffffffff16815260200191505060206040518083038186803b15801561110057600080fd5b505afa158015611114573d6000803e3d6000fd5b505050506040513d602081101561112a57600080fd5b810190808051906020019092919050505010156111af576040517f08c379a000000000000000000000000000000000000000000000000000000000815260040180806020018281038252601a8152602001807f434450547261636b65722f657863656564732d62616c616e636500000000000081525060200191505060405180910390fd5b60006111db6000809054906101000a900473ffffffffffffffffffffffffffffffffffffffff166125a6565b90506000620f42406111ed8385612759565b816111f457fe5b049050601260009054906101000a900473ffffffffffffffffffffffffffffffffffffffff1673ffffffffffffffffffffffffffffffffffffffff16639dc29fac33856040518363ffffffff1660e01b8152600401808373ffffffffffffffffffffffffffffffffffffffff1673ffffffffffffffffffffffffffffffffffffffff16815260200182815260200192505050600060405180830381600087803b1580156112a057600080fd5b505af11580156112b4573d6000803e3d6000fd5b505050506112c233826124c1565b505050565b600080600f60008473ffffffffffffffffffffffffffffffffffffffff1673ffffffffffffffffffffffffffffffffffffffff168152602001908152602001600020600101549050600f60008473ffffffffffffffffffffffffffffffffffffffff1673ffffffffffffffffffffffffffffffffffffffff1681526020019081526020016000206002015442106115a4576000600f60008573ffffffffffffffffffffffffffffffffffffffff1673ffffffffffffffffffffffffffffffffffffffff1681526020019081526020016000206003015490506000600b60009054906101000a900473ffffffffffffffffffffffffffffffffffffffff1673ffffffffffffffffffffffffffffffffffffffff166364dbfd816040518163ffffffff1660e01b8152600401602060405180830381600087803b15801561140b57600080fd5b505af115801561141f573d6000803e3d6000fd5b505050506040513d602081101561143557600080fd5b8101908080519060200190929190505050905060006114b1611469836fffffffffffffffffffffffffffffffff1685612785565b600f60008973ffffffffffffffffffffffffffffffffffffffff1673ffffffffffffffffffffffffffffffffffffffff168152602001908152602001600020600101546127c1565b9050816fffffffffffffffffffffffffffffffff16600f60008873ffffffffffffffffffffffffffffffffffffffff1673ffffffffffffffffffffffffffffffffffffffff16815260200190815260200160002060030181905550600042905081600f60008973ffffffffffffffffffffffffffffffffffffffff1673ffffffffffffffffffffffffffffffffffffffff1681526020019081526020016000206001018190555080600f60008973ffffffffffffffffffffffffffffffffffffffff1673ffffffffffffffffffffffffffffffffffffffff16815260200190815260200160002060020181905550505050505b80915050919050565b600254341015611608576040517f08c379a0000000000000000000000000000000000000000000000000000000008152600401808060200182810382526028815260200180612a1f6028913960400191505060405180910390fd5b34600f60003373ffffffffffffffffffffffffffffffffffffffff1673ffffffffffffffffffffffffffffffffffffffff1681526020019081526020016000206000015401600f60003373ffffffffffffffffffffffffffffffffffffffff1673ffffffffffffffffffffffffffffffffffffffff16815260200190815260200160002060000181905550565b600080600f60003373ffffffffffffffffffffffffffffffffffffffff1673ffffffffffffffffffffffffffffffffffffffff16815260200190815260200160002060030154905060006116e7612177565b905060006117406116f88385612785565b600f60003373ffffffffffffffffffffffffffffffffffffffff1673ffffffffffffffffffffffffffffffffffffffff168152602001908152602001600020600101546127c1565b905080600f60008773ffffffffffffffffffffffffffffffffffffffff1673ffffffffffffffffffffffffffffffffffffffff1681526020019081526020016000206001018190555081600f60008773ffffffffffffffffffffffffffffffffffffffff1673ffffffffffffffffffffffffffffffffffffffff16815260200190815260200160002060030181905550600042905080600f60008873ffffffffffffffffffffffffffffffffffffffff1673ffffffffffffffffffffffffffffffffffffffff1681526020019081526020016000206002018190555081945050505050919050565b6001601360003373ffffffffffffffffffffffffffffffffffffffff1673ffffffffffffffffffffffffffffffffffffffff16815260200190815260200160002054146118dd576040517f08c379a000000000000000000000000000000000000000000000000000000000815260040180806020018281038252601b8152602001807f436f696e2f6163636f756e742d6e6f742d617574686f72697a6564000000000081525060200191505060405180910390fd5b80600160006101000a81548173ffffffffffffffffffffffffffffffffffffffff021916908373ffffffffffffffffffffffffffffffffffffffff16021790555050565b60055481565b6001601360003373ffffffffffffffffffffffffffffffffffffffff1673ffffffffffffffffffffffffffffffffffffffff16815260200190815260200160002054146119dc576040517f08c379a000000000000000000000000000000000000000000000000000000000815260040180806020018281038252601b8152602001807f436f696e2f6163636f756e742d6e6f742d617574686f72697a6564000000000081525060200191505060405180910390fd5b6000601360008373ffffffffffffffffffffffffffffffffffffffff1673ffffffffffffffffffffffffffffffffffffffff168152602001908152602001600020819055507f8834a87e641e9716be4f34527af5d23e11624f1ddeefede6ad75a9acfc31b90381604051808273ffffffffffffffffffffffffffffffffffffffff1673ffffffffffffffffffffffffffffffffffffffff16815260200191505060405180910390a150565b600c6020528060005260406000206000915090505481565b60075481565b600e6020528060005260406000206000915090505481565b6001601360003373ffffffffffffffffffffffffffffffffffffffff1673ffffffffffffffffffffffffffffffffffffffff1681526020019081526020016000205414611b72576040517f08c379a000000000000000000000000000000000000000000000000000000000815260040180806020018281038252601b8152602001807f436f696e2f6163636f756e742d6e6f742d617574686f72697a6564000000000081525060200191505060405180910390fd5b600160009054906101000a900473ffffffffffffffffffffffffffffffffffffffff16601260006101000a81548173ffffffffffffffffffffffffffffffffffffffff021916908373ffffffffffffffffffffffffffffffffffffffff160217905550601260009054906101000a900473ffffffffffffffffffffffffffffffffffffffff1673ffffffffffffffffffffffffffffffffffffffff166340c10f1982846040518363ffffffff1660e01b8152600401808373ffffffffffffffffffffffffffffffffffffffff1673ffffffffffffffffffffffffffffffffffffffff16815260200182815260200192505050600060405180830381600087803b158015611c7e57600080fd5b505af1158015611c92573d6000803e3d6000fd5b505050505050565b600080600f60003373ffffffffffffffffffffffffffffffffffffffff1673ffffffffffffffffffffffffffffffffffffffff1681526020019081526020016000206003015490506000611cec6108db565b90506000611d45611cfd8385612785565b600f60003373ffffffffffffffffffffffffffffffffffffffff1673ffffffffffffffffffffffffffffffffffffffff168152602001908152602001600020600101546127c1565b905080600f60008773ffffffffffffffffffffffffffffffffffffffff1673ffffffffffffffffffffffffffffffffffffffff1681526020019081526020016000206001018190555081600f60008773ffffffffffffffffffffffffffffffffffffffff1673ffffffffffffffffffffffffffffffffffffffff16815260200190815260200160002060030181905550600042905080600f60008873ffffffffffffffffffffffffffffffffffffffff1673ffffffffffffffffffffffffffffffffffffffff1681526020019081526020016000206002018190555081945050505050919050565b6000611e3833611c9a565b905081811015611eb0576040517f08c379a000000000000000000000000000000000000000000000000000000000815260040180806020018281038252601e8152602001807f434450547261636b65722f657863656564732d646562742d616d6f756e74000081525060200191505060405180910390fd5b600160009054906101000a900473ffffffffffffffffffffffffffffffffffffffff16601260006101000a81548173ffffffffffffffffffffffffffffffffffffffff021916908373ffffffffffffffffffffffffffffffffffffffff160217905550611f5f600f60003373ffffffffffffffffffffffffffffffffffffffff1673ffffffffffffffffffffffffffffffffffffffff1681526020019081526020016000206001015483612809565b600f60003373ffffffffffffffffffffffffffffffffffffffff1673ffffffffffffffffffffffffffffffffffffffff16815260200190815260200160002060010181905550601260009054906101000a900473ffffffffffffffffffffffffffffffffffffffff1673ffffffffffffffffffffffffffffffffffffffff16639dc29fac33846040518363ffffffff1660e01b8152600401808373ffffffffffffffffffffffffffffffffffffffff1673ffffffffffffffffffffffffffffffffffffffff16815260200182815260200192505050600060405180830381600087803b15801561204e57600080fd5b505af1158015612062573d6000803e3d6000fd5b505050505050565b600d6020528060005260406000206000915090505481565b6001601360003373ffffffffffffffffffffffffffffffffffffffff1673ffffffffffffffffffffffffffffffffffffffff1681526020019081526020016000205414612137576040517f08c379a000000000000000000000000000000000000000000000000000000000815260040180806020018281038252601b8152602001807f436f696e2f6163636f756e742d6e6f742d617574686f72697a6564000000000081525060200191505060405180910390fd5b8060058190555050565b60095481565b600f6020528060005260406000206000915090508060000154908060010154908060020154908060030154905084565b6000806006905060006121c4600a60009054906101000a90046fffffffffffffffffffffffffffffffff166fffffffffffffffffffffffffffffffff168367ffffffffffffffff166121e9565b9050806fffffffffffffffffffffffffffffffff166008819055506008549250505090565b600080600283816121f657fe5b06141561220f576b033b2e3c9fd0803ce8000000612211565b825b90506002828161221d57fe5b0491505b600082146122665761223383846127c1565b925060006002838161224157fe5b06146122545761225181846127c1565b90505b6002828161225e57fe5b049150612221565b92915050565b600081601160006101000a81548173ffffffffffffffffffffffffffffffffffffffff021916908373ffffffffffffffffffffffffffffffffffffffff1602179055506000600f60003373ffffffffffffffffffffffffffffffffffffffff1673ffffffffffffffffffffffffffffffffffffffff1681526020019081526020016000206000015490506000601160009054906101000a900473ffffffffffffffffffffffffffffffffffffffff1673ffffffffffffffffffffffffffffffffffffffff16631ef476b76040518163ffffffff1660e01b8152600401602060405180830381600087803b15801561236257600080fd5b505af1158015612376573d6000803e3d6000fd5b505050506040513d602081101561238c57600080fd5b810190808051906020019092919050505090506000601160009054906101000a900473ffffffffffffffffffffffffffffffffffffffff1673ffffffffffffffffffffffffffffffffffffffff1663d513c5106040518163ffffffff1660e01b8152600401602060405180830381600087803b15801561240b57600080fd5b505af115801561241f573d6000803e3d6000fd5b505050506040513d602081101561243557600080fd5b810190808051906020019092919050505090506000818402905080945050505050919050565b60008282840191508110156124bb576040517f08c379a00000000000000000000000000000000000000000000000000000000081526004018080602001828103825260218152602001806129fe6021913960400191505060405180910390fd5b92915050565b600060608373ffffffffffffffffffffffffffffffffffffffff168360405180600001905060006040518083038185875af1925050503d8060008114612523576040519150601f19603f3d011682016040523d82523d6000602084013e612528565b606091505b5091509150816125a0576040517f08c379a00000000000000000000000000000000000000000000000000000000081526004018080602001828103825260138152602001807f4661696c656420746f2073656e6420524254430000000000000000000000000081525060200191505060405180910390fd5b50505050565b600081601160006101000a81548173ffffffffffffffffffffffffffffffffffffffff021916908373ffffffffffffffffffffffffffffffffffffffff1602179055506000601160009054906101000a900473ffffffffffffffffffffffffffffffffffffffff1673ffffffffffffffffffffffffffffffffffffffff16631ef476b76040518163ffffffff1660e01b8152600401602060405180830381600087803b15801561265557600080fd5b505af1158015612669573d6000803e3d6000fd5b505050506040513d602081101561267f57600080fd5b810190808051906020019092919050505090506000601160009054906101000a900473ffffffffffffffffffffffffffffffffffffffff1673ffffffffffffffffffffffffffffffffffffffff1663fe1d92346040518163ffffffff1660e01b8152600401602060405180830381600087803b1580156126fe57600080fd5b505af1158015612712573d6000803e3d6000fd5b505050506040513d602081101561272857600080fd5b81019080805190602001909291905050509050600082620f424083028161274b57fe5b049050809350505050919050565b600080821480612776575082828385029250828161277357fe5b04145b61277f57600080fd5b92915050565b6000816127b16127a1856b033b2e3c9fd0803ce800000061286f565b600285816127ab57fe5b04612904565b816127b857fe5b04905092915050565b60006b033b2e3c9fd0803ce80000006127f96127dd858561286f565b60026b033b2e3c9fd0803ce8000000816127f357fe5b04612904565b8161280057fe5b04905092915050565b6000828284039150811115612869576040517f08c379a00000000000000000000000000000000000000000000000000000000081526004018080602001828103825260228152602001806129886022913960400191505060405180910390fd5b92915050565b60008082148061288c575082828385029250828161288957fe5b04145b6128fe576040517f08c379a00000000000000000000000000000000000000000000000000000000081526004018080602001828103825260148152602001807f64732d6d6174682d6d756c2d6f766572666c6f7700000000000000000000000081525060200191505060405180910390fd5b92915050565b6000828284019150811015612981576040517f08c379a00000000000000000000000000000000000000000000000000000000081526004018080602001828103825260148152602001807f64732d6d6174682d6164642d6f766572666c6f7700000000000000000000000081525060200191505060405180910390fd5b9291505056fe53414645456e67696e652f7375622d75696e742d75696e742d756e646572666c6f77434450547261636b65722f696e73756666696369656e742d636f6c6c61746572616c2d746f2d6d696e742d737461626c6573434450547261636b65722f616d6f756e742d657863656564732d6465706f7369747353414645456e67696e652f6164642d75696e742d75696e742d6f766572666c6f77434450547261636b65722f6e6f6e2d64757374792d636f6c6c61746572616c2d7265717569726564a26469706673582212203acd53a12cba83c2693a876e8810d0a135eb7b6dbe0f55c47f503248e6a39bf364736f6c63430006070033",
  "immutableReferences": {},
  "source": "pragma solidity 0.6.7;\n\nimport \"./dsmath.sol\";\n\n\ncontract CoinLike{\n  mapping (address => uint256)                      public balanceOf;\n  // Mapping of allowances\n  mapping (address => mapping (address => uint256)) public allowance;\n  // Mapping of nonces used for permits\n  mapping (address => uint256)                      public nonces;\n  function addAuthorization(address account) external {}\n  function removeAuthorization(address account) external {}\n  function transfer(address dst, uint256 amount) external returns (bool) {}\n  function transferFrom(address src, address dst, uint256 amount)\n        public returns (bool){}\n  function mint(address usr, uint256 amount) external {}\n  function burn(address usr, uint256 amount) external {}\n  function approve(address usr, uint256 amount) external returns (bool) {}\n  function push(address usr, uint256 amount) external {}\n  function pull(address usr, uint256 amount) external {}\n  function move(address src, address dst, uint256 amount) external {}\n  function permit(\n        address holder,\n        address spender,\n        uint256 nonce,\n        uint256 expiry,\n        bool allowed,\n        uint8 v,\n        bytes32 r,\n        bytes32 s\n    ) external\n    {}\n}\n\ncontract OracleLike{\n  function addAuthorization(address account) external {}\n  function removeAuthorization(address account) external {}\n  function setCollateralRatio(uint256 ratio) external {}\n  function peekCollateralRatio() external returns(uint256) {}\n  function peekBSMA() external returns(uint256){}\n  function peekBX() external returns(uint256){}\n\n\n}\n\ncontract TaxCollectorLike{\n  function updateAR() public returns (uint256) {}\n  function updateAccumulatedRate() public returns (uint128) {}\n}\ncontract CDPTracker is DSMath {\n\naddress Oracle;\naddress Coin;\nuint256 dust; //Minimum amount of collateral deposited\nuint256 Interest; // Interest rate set by governance. Applies from next calculation after rate is set.\n\nuint256 totalDebt;\nuint256 public globalDebt;\nuint256 totalSurplus;\nuint256 public lastAR; // last AR for system surplus calculation.\nuint256 RATE = 1*10**27; // RAY - base value of AR.\nuint256 public INIT;\n\nuint128 globalStabilityFee= 1000000564701133626865910626; //[ray] per second rate, 5% per day setting for testing.\nTaxCollectorLike TC = TaxCollectorLike(0x950fc41BA7Fe437121340955dBaEBe4dE8fb0EB5);\n\n// mapping (address => uint256) LastupdateTime;\n// mapping (address => uint128) originRate;\n\nstruct SAFE {\n    // Total amount of collateral locked in a SAFE\n      uint256 collateral;\n      // Total amount of debt generated by a SAFE, including interest\n      uint256 debtIssued;  // [wad]\n      // last interest rate update timestamp\n      uint256 updateTime;     // [wad]\n      // global AR at last update\n      uint256 originRate; // [RAY]\n  }\n\nmapping (address=>uint256) public collateral; // collateral deposited by UserAddress\nmapping (address=>uint256) public debtIssued; // debt issued by UserAddress\n// mapping (address=>uint256) public interestDue; // interest due by UserAddress\nmapping (address=>uint256) public initTime;\nmapping (address => SAFE) public safes;\n\nuint256 LastupdateTime;\nOracleLike Orc;\nCoinLike coin;\n\nconstructor(address ORC, uint256 DUST) public {\n  Oracle = ORC;\n  dust = DUST;\n  authorizedAccounts[msg.sender] = 1;\n  INIT = block.timestamp;\n}\nevent AddAuthorization(address account);\nevent RemoveAuthorization(address account);\n\nmapping (address => uint256) public authorizedAccounts;\n/**\n * @notice Add auth to an account\n * @param account Account to add auth to\n */\nfunction addAuthorization(address account) external isAuthorized {\n    authorizedAccounts[account] = 1;\n    emit AddAuthorization(account);\n}\n/**\n * @notice Remove auth from an account\n * @param account Account to remove auth from\n */\nfunction removeAuthorization(address account) external isAuthorized {\n    authorizedAccounts[account] = 0;\n    emit RemoveAuthorization(account);\n}\n/**\n* @notice Checks whether msg.sender can call an authed function\n**/\n\nevent UpdateAccumulatedRate(\n    address surplusDst,\n    int256 rateMultiplier,\n    uint256 globalDebt\n);\n\nmodifier isAuthorized {\n    require(authorizedAccounts[msg.sender] == 1, \"Coin/account-not-authorized\");\n    _;\n}\n\n// math\nfunction add(uint256 x, int256 y) internal pure returns (uint256 z) {\n    z = x + uint256(y);\n    require(y >= 0 || z <= x, \"SAFEEngine/add-uint-int-overflow\");\n    require(y <= 0 || z >= x, \"SAFEEngine/add-uint-int-underflow\");\n}\nfunction add(int256 x, int256 y) internal pure returns (int256 z) {\n    z = x + y;\n    require(y >= 0 || z <= x, \"SAFEEngine/add-int-int-overflow\");\n    require(y <= 0 || z >= x, \"SAFEEngine/add-int-int-underflow\");\n}\nfunction sub(uint256 x, int256 y) internal pure returns (uint256 z) {\n    z = x - uint256(y);\n    require(y <= 0 || z <= x, \"SAFEEngine/sub-uint-int-overflow\");\n    require(y >= 0 || z >= x, \"SAFEEngine/sub-uint-int-underflow\");\n}\nfunction sub(int256 x, int256 y) internal pure returns (int256 z) {\n    z = x - y;\n    require(y <= 0 || z <= x, \"SAFEEngine/sub-int-int-overflow\");\n    require(y >= 0 || z >= x, \"SAFEEngine/sub-int-int-underflow\");\n}\nfunction mul(uint256 x, int256 y) internal pure returns (int256 z) {\n    z = int256(x) * y;\n    require(int256(x) >= 0, \"SAFEEngine/mul-uint-int-null-x\");\n    require(y == 0 || z / y == int256(x), \"SAFEEngine/mul-uint-int-overflow\");\n}\nfunction mul(uint x, uint y) internal pure returns (uint z) {\n    require(y == 0 || (z = x * y) / y == x);\n}\n\nfunction add(uint256 x, uint256 y) internal pure returns (uint256 z) {\n    require((z = x + y) >= x, \"SAFEEngine/add-uint-uint-overflow\");\n}\nfunction sub(uint256 x, uint256 y) internal pure returns (uint256 z) {\n    require((z = x - y) <= x, \"SAFEEngine/sub-uint-uint-underflow\");\n}\n\n\nfunction setCoin(address STABLE) external isAuthorized {\n  Coin = STABLE;\n}\n\n// Function called by TaxCollector Contract\nfunction newAR(uint256 newRATE) external isAuthorized {\n  RATE = newRATE;\n}\n\n// Function called by TaxCollector Contract\nfunction updateGlobalDebt(uint256 newDebt) external isAuthorized {\n  globalDebt = newDebt;\n}\n\n// Function called by TaxCollector Contract\nfunction issueSurplus(uint256 amount, address treasury) external isAuthorized {\n    coin = CoinLike(Coin);\n    coin.mint(treasury, amount);\n  }\n\n// Actual function with proper time.\nfunction updateUserDebt(address user) public returns(uint256) {\n  // uint256 timeDifference = sub(now, LastupdateTime[user]);\n  uint256 newDebt = safes[user].debtIssued;\n  if (now >= safes[user].updateTime) {\n  uint256 originalrate = safes[user].originRate;\n  uint128 newrate= TC.updateAccumulatedRate();\n  // uint256 newDebt = rmul(debtIssued[user], rpow(accumulatedRate, timeDifference));\n  // uint256 newDebt = ((NewRate/OriginRate)*safes[msg.sender].debtIssued)/10000;\n  uint256 newDebt = rmul(rdiv(newrate, originalrate), safes[user].debtIssued);\n  safes[user].originRate = newrate;\n  uint256 newTime = now;\n  // safes[user].debtIssued = newDebt;\n  // LastupdateTime[user] - newTime;\n  safes[user].debtIssued = newDebt;\n  safes[user].updateTime = newTime;\n}\n  return newDebt;\n\n}\n\n// test - hardcoded value of time elapsed.\nfunction updateAccumulatedRate0() public returns (uint256) {\n  uint64 powertime = 6; //[wad] replace with time gap since last update\n  //uint64 powertime = block.timestamp - INIT\n  uint256 rateupdate = rpow(globalStabilityFee, powertime);\n  RATE=uint128(rateupdate);\n  return RATE;\n  }\n\n// test - hardcoded value of time elapsed.\nfunction updateAccumulatedRate1() public returns (uint256) {\n  uint64 powertime = 86406; // set to 1 day by default. replace with time gap since last update using\n  //uint64 powertime = block.timestamp - INIT\n  uint256 rateupdate = rpow(globalStabilityFee, powertime);\n  RATE=uint128(rateupdate);\n  return RATE;\n  }\n\n// Test function\nfunction updateUserDebt1(address user) public returns(uint256) {\n  // uint256 timeDifference = sub(now, LastupdateTime[user]);\n  // uint256 NewRate = 101000000000;\n  // uint256 OriginRate = 1000000000;\n  uint256 originalrate = safes[msg.sender].originRate;\n  // uint256 newrate= TC.updateAR();\n  uint256 newrate = updateAccumulatedRate0();\n  // uint256 newDebt = rmul(debtIssued[user], rpow(accumulatedRate, timeDifference));\n  uint256 newDebt = rmul(rdiv(newrate, originalrate), safes[msg.sender].debtIssued);\n  //uint256 newTime = now;\n  safes[user].debtIssued = newDebt;\n  // LastupdateTime[user] = newTime;\n  safes[user].originRate = newrate;\n  uint256 newTime = now;\n  safes[user].updateTime = newTime;\n  return newDebt;\n}\n\n// Test function\nfunction updateUserDebt2(address user) public returns(uint256) {\n  // uint256 timeDifference = sub(now, LastupdateTime[user]);\n  // uint256 NewRate = 101000000000;\n  // uint256 OriginRate = 1000000000;\n  uint256 originalrate = safes[msg.sender].originRate;\n  // uint256 newrate= TC.updateAR();\n  uint256 newrate = updateAccumulatedRate1();\n  // uint256 newDebt = rmul(debtIssued[user], rpow(accumulatedRate, timeDifference));\n  uint256 newDebt = rmul(rdiv(newrate, originalrate), safes[msg.sender].debtIssued);\n  //uint256 newTime = now;\n  safes[user].debtIssued = newDebt;\n  // LastupdateTime[user] = newTime;\n  safes[user].originRate = newrate;\n  uint256 newTime = now;\n  safes[user].updateTime = newTime;\n  return newDebt;\n}\n\n// compute debt limit based on collateral deposited\nfunction computeDebtLimit(address _oracle) internal returns (uint256){\n   Orc = OracleLike(_oracle);\n   uint256 _collateral = safes[msg.sender].collateral; //Amount of RBTC Collateral in SAFE\n   uint256 currentBX = Orc.peekBX();\n   uint256 currentCollateralRatio = Orc.peekCollateralRatio(); //12500 by default, to be divided by 100\n   uint256 currentDebtLimit = _collateral * currentCollateralRatio; // 1 xBTC can be minted (borrowed) for every 1.25 BTC collateral by default.\n   return currentDebtLimit;\n }\n\n// compute redeem price in BTC for each xBTC\n function computeRedeemPrice(address _oracle) internal returns (uint256){\n   Orc = OracleLike(_oracle);\n   uint256 currentBX = Orc.peekBX(); //BTC-USD exchange rate\n   uint256 currentBSMA = Orc.peekBSMA(); //Current USD redemption rate of 1 xBTC\n   uint256 currentRedeemPrice = (currentBSMA*1000000)/currentBX; //10e6 multiplier to preserve precision of fraction.\n   return currentRedeemPrice;\n }\n\n function sendRBTC(address payable _to, uint256 amount) internal {\n        // Call returns a boolean value indicating success or failure.\n        (bool sent, bytes memory data) = _to.call{value: amount}(\"\");\n        require(sent, \"Failed to send RBTC\");\n    }\n\n // deposit RBTC collateral in safe\n function depositCollateral() public payable {\n    require(msg.value>=dust, 'CDPTracker/non-dusty-collateral-required');\n    safes[msg.sender].collateral = (safes[msg.sender].collateral) + msg.value;\n  }\n\n// take out xBTC debt\n  function takeDebt(uint256 amount) public {\n    uint256 debtLimit = computeDebtLimit(Oracle);\n    uint256 issuedDebt = updateUserDebt1(msg.sender);\n    uint256 availableDebt = debtLimit - issuedDebt;\n    require(availableDebt >= amount, \"CDPTracker/insufficient-collateral-to-mint-stables\"); //collateral sufficiency check\n    coin = CoinLike(Coin);\n    safes[msg.sender].debtIssued = add(safes[msg.sender].debtIssued, amount);\n    globalDebt += amount;\n    coin.mint(msg.sender, amount);\n    safes[msg.sender].updateTime = now;\n    safes[msg.sender].originRate = updateAccumulatedRate0();\n  }\n\n// return xBTC debt\n  function returnDebt(uint256 amount) public {\n    uint256 issuedDebt = updateUserDebt2(msg.sender); // update balance to include interest\n    require(issuedDebt >= amount, \"CDPTracker/exceeds-debt-amount\");\n    coin = CoinLike(Coin);\n    safes[msg.sender].debtIssued = sub(safes[msg.sender].debtIssued, amount);\n    coin.burn(msg.sender, amount);\n  }\n\n// redeem xBTC stablecoins for RBTC collateral at current redemption rate. Maintains price stability\n  function redeemCoins(uint256 amount) public payable {\n    coin = CoinLike(Coin);\n    require(coin.balanceOf(msg.sender)>=amount, \"CDPTracker/exceeds-balance\");\n    uint256 redemptionRatePerCoin = computeRedeemPrice(Oracle);\n    uint256 totalRedemptionAmount = mul(redemptionRatePerCoin, amount)/1000000;\n    coin.burn(msg.sender, amount);\n    sendRBTC(msg.sender, totalRedemptionAmount);\n  }\n\n// withdraw collateral after debts have been repaid\n  function removeCollateral(uint256 amount) public payable {\n     require(amount>=dust, 'CDPTracker/non-dusty-collateral-required');\n     uint256 _collateral = safes[msg.sender].collateral; //Amount of RBTC Collateral in CDP\n     require(amount<=_collateral, 'CDPTracker/amount-exceeds-deposits');\n     uint256 issuedDebt = safes[msg.sender].debtIssued;\n     require(issuedDebt==0, 'CDPTracker/debt-not-repaid');\n     safes[msg.sender].collateral = (safes[msg.sender].collateral) - amount;\n     sendRBTC(msg.sender, amount);\n   }\n\n}\n",
  "sourcePath": "/Users/dm/Documents/wishbone/BrainDAO/contracts/CDPTracker.sol",
  "compiler": {
    "name": "solc",
    "version": "0.6.7+commit.b8d736ae.Emscripten.clang"
  },
  "schemaVersion": "3.4.3",
  "updatedAt": "2022-02-01T11:14:03.260Z",
  "networkType": "ethereum",
  "devdoc": {
    "methods": {
      "addAuthorization(address)": {
        "params": {
          "account": "Account to add auth to"
        }
      },
      "removeAuthorization(address)": {
        "params": {
          "account": "Account to remove auth from"
        }
      }
    }
  },
  "userdoc": {
    "methods": {
      "addAuthorization(address)": {
        "notice": "Add auth to an account"
      },
      "removeAuthorization(address)": {
        "notice": "Remove auth from an account"
      }
    }
  }
}