{
  "contractName": "CDPTracker",
  "abi": [
    {
      "inputs": [
        {
          "internalType": "address",
          "name": "ORC",
          "type": "address"
        },
        {
          "internalType": "uint256",
          "name": "DUST",
          "type": "uint256"
        }
      ],
      "stateMutability": "nonpayable",
      "type": "constructor"
    },
    {
      "anonymous": false,
      "inputs": [
        {
          "indexed": false,
          "internalType": "address",
          "name": "account",
          "type": "address"
        }
      ],
      "name": "AddAuthorization",
      "type": "event"
    },
    {
      "anonymous": false,
      "inputs": [
        {
          "indexed": false,
          "internalType": "address",
          "name": "account",
          "type": "address"
        }
      ],
      "name": "RemoveAuthorization",
      "type": "event"
    },
    {
      "anonymous": false,
      "inputs": [
        {
          "indexed": false,
          "internalType": "address",
          "name": "surplusDst",
          "type": "address"
        },
        {
          "indexed": false,
          "internalType": "int256",
          "name": "rateMultiplier",
          "type": "int256"
        },
        {
          "indexed": false,
          "internalType": "uint256",
          "name": "globalDebt",
          "type": "uint256"
        }
      ],
      "name": "UpdateAccumulatedRate",
      "type": "event"
    },
    {
      "inputs": [
        {
          "internalType": "address",
          "name": "",
          "type": "address"
        }
      ],
      "name": "authorizedAccounts",
      "outputs": [
        {
          "internalType": "uint256",
          "name": "",
          "type": "uint256"
        }
      ],
      "stateMutability": "view",
      "type": "function",
      "constant": true
    },
    {
      "inputs": [
        {
          "internalType": "address",
          "name": "",
          "type": "address"
        }
      ],
      "name": "collateral",
      "outputs": [
        {
          "internalType": "uint256",
          "name": "",
          "type": "uint256"
        }
      ],
      "stateMutability": "view",
      "type": "function",
      "constant": true
    },
    {
      "inputs": [
        {
          "internalType": "address",
          "name": "",
          "type": "address"
        }
      ],
      "name": "debtIssued",
      "outputs": [
        {
          "internalType": "uint256",
          "name": "",
          "type": "uint256"
        }
      ],
      "stateMutability": "view",
      "type": "function",
      "constant": true
    },
    {
      "inputs": [
        {
          "internalType": "address",
          "name": "",
          "type": "address"
        }
      ],
      "name": "initTime",
      "outputs": [
        {
          "internalType": "uint256",
          "name": "",
          "type": "uint256"
        }
      ],
      "stateMutability": "view",
      "type": "function",
      "constant": true
    },
    {
      "inputs": [
        {
          "internalType": "address",
          "name": "",
          "type": "address"
        }
      ],
      "name": "safes",
      "outputs": [
        {
          "internalType": "uint256",
          "name": "lockedCollateral",
          "type": "uint256"
        },
        {
          "internalType": "uint256",
          "name": "generatedDebt",
          "type": "uint256"
        }
      ],
      "stateMutability": "view",
      "type": "function",
      "constant": true
    },
    {
      "inputs": [
        {
          "internalType": "address",
          "name": "user",
          "type": "address"
        }
      ],
      "name": "updateDebt",
      "outputs": [
        {
          "internalType": "uint256",
          "name": "",
          "type": "uint256"
        }
      ],
      "stateMutability": "nonpayable",
      "type": "function"
    },
    {
      "inputs": [
        {
          "internalType": "address",
          "name": "user",
          "type": "address"
        }
      ],
      "name": "updateDebt2",
      "outputs": [
        {
          "internalType": "uint256",
          "name": "",
          "type": "uint256"
        }
      ],
      "stateMutability": "nonpayable",
      "type": "function"
    },
    {
      "inputs": [
        {
          "internalType": "address",
          "name": "account",
          "type": "address"
        }
      ],
      "name": "addAuthorization",
      "outputs": [],
      "stateMutability": "nonpayable",
      "type": "function"
    },
    {
      "inputs": [
        {
          "internalType": "address",
          "name": "account",
          "type": "address"
        }
      ],
      "name": "removeAuthorization",
      "outputs": [],
      "stateMutability": "nonpayable",
      "type": "function"
    },
    {
      "inputs": [
        {
          "internalType": "address",
          "name": "STABLE",
          "type": "address"
        }
      ],
      "name": "setCoin",
      "outputs": [],
      "stateMutability": "nonpayable",
      "type": "function"
    },
    {
      "inputs": [
        {
          "internalType": "bytes32",
          "name": "collateralType",
          "type": "bytes32"
        },
        {
          "internalType": "address",
          "name": "user",
          "type": "address"
        },
        {
          "internalType": "address",
          "name": "collateralSource",
          "type": "address"
        },
        {
          "internalType": "address",
          "name": "debtDestination",
          "type": "address"
        },
        {
          "internalType": "int256",
          "name": "deltaCollateral",
          "type": "int256"
        },
        {
          "internalType": "int256",
          "name": "deltaDebt",
          "type": "int256"
        }
      ],
      "name": "modifySAFECollateralization",
      "outputs": [],
      "stateMutability": "nonpayable",
      "type": "function"
    },
    {
      "inputs": [],
      "name": "depositCollateral",
      "outputs": [],
      "stateMutability": "payable",
      "type": "function",
      "payable": true
    },
    {
      "inputs": [
        {
          "internalType": "uint256",
          "name": "amount",
          "type": "uint256"
        }
      ],
      "name": "takeDebt",
      "outputs": [],
      "stateMutability": "nonpayable",
      "type": "function"
    },
    {
      "inputs": [
        {
          "internalType": "uint256",
          "name": "amount",
          "type": "uint256"
        }
      ],
      "name": "returnDebt",
      "outputs": [],
      "stateMutability": "nonpayable",
      "type": "function"
    },
    {
      "inputs": [
        {
          "internalType": "uint256",
          "name": "amount",
          "type": "uint256"
        }
      ],
      "name": "redeemCoins",
      "outputs": [],
      "stateMutability": "payable",
      "type": "function",
      "payable": true
    },
    {
      "inputs": [
        {
          "internalType": "uint256",
          "name": "amount",
          "type": "uint256"
        }
      ],
      "name": "removeCollateral",
      "outputs": [],
      "stateMutability": "payable",
      "type": "function",
      "payable": true
    },
    {
      "inputs": [
        {
          "internalType": "address",
          "name": "surplusDst",
          "type": "address"
        },
        {
          "internalType": "int256",
          "name": "rateMultiplier",
          "type": "int256"
        }
      ],
      "name": "updateAccumulatedRate",
      "outputs": [],
      "stateMutability": "nonpayable",
      "type": "function"
    }
  ],
  "bytecode": "0x60806040526a52b7f179957df14dbc8362600b5573d3d4507ced74ead039783d14e441d1fd9916eeb7600c60006101000a81548173ffffffffffffffffffffffffffffffffffffffff021916908373ffffffffffffffffffffffffffffffffffffffff16021790555034801561007457600080fd5b5060405161275d38038061275d8339818101604052604081101561009757600080fd5b81019080805190602001909291908051906020019092919050505081600460006101000a81548173ffffffffffffffffffffffffffffffffffffffff021916908373ffffffffffffffffffffffffffffffffffffffff160217905550806006819055506001601360003373ffffffffffffffffffffffffffffffffffffffff1673ffffffffffffffffffffffffffffffffffffffff16815260200190815260200160002081905550505061260d806101506000396000f3fe6080604052600436106100fe5760003560e01c806399bec31511610095578063d2cedf0411610064578063d2cedf04146104da578063d3b6387d14610515578063db4f2d341461057a578063f47f43fd146105df578063fa353d511461064b576100fe565b806399bec315146102fc578063a5fdc5de146103ab578063a696021c14610410578063bec241c514610475576100fe565b806339eb283c116100d157806339eb283c146102225780636f7581401461025057806382e46b751461025a57806394f3f81d146102ab576100fe565b806324ba5884146101035780632fd97af3146101685780633237c158146101a357806335b28153146101d1575b600080fd5b34801561010f57600080fd5b506101526004803603602081101561012657600080fd5b81019080803573ffffffffffffffffffffffffffffffffffffffff1690602001909291905050506106a6565b6040518082815260200191505060405180910390f35b34801561017457600080fd5b506101a16004803603602081101561018b57600080fd5b81019080803590602001909291905050506106be565b005b6101cf600480360360208110156101b957600080fd5b81019080803590602001909291905050506109b2565b005b3480156101dd57600080fd5b50610220600480360360208110156101f457600080fd5b81019080803573ffffffffffffffffffffffffffffffffffffffff169060200190929190505050610bf5565b005b61024e6004803603602081101561023857600080fd5b8101908080359060200190929190505050610d55565b005b610258611020565b005b34801561026657600080fd5b506102a96004803603602081101561027d57600080fd5b81019080803573ffffffffffffffffffffffffffffffffffffffff169060200190929190505050611100565b005b3480156102b757600080fd5b506102fa600480360360208110156102ce57600080fd5b81019080803573ffffffffffffffffffffffffffffffffffffffff1690602001909291905050506111f9565b005b34801561030857600080fd5b506103a9600480360360c081101561031f57600080fd5b8101908080359060200190929190803573ffffffffffffffffffffffffffffffffffffffff169060200190929190803573ffffffffffffffffffffffffffffffffffffffff169060200190929190803573ffffffffffffffffffffffffffffffffffffffff1690602001909291908035906020019092919080359060200190929190505050611359565b005b3480156103b757600080fd5b506103fa600480360360208110156103ce57600080fd5b81019080803573ffffffffffffffffffffffffffffffffffffffff169060200190929190505050611430565b6040518082815260200191505060405180910390f35b34801561041c57600080fd5b5061045f6004803603602081101561043357600080fd5b81019080803573ffffffffffffffffffffffffffffffffffffffff169060200190929190505050611448565b6040518082815260200191505060405180910390f35b34801561048157600080fd5b506104c46004803603602081101561049857600080fd5b81019080803573ffffffffffffffffffffffffffffffffffffffff169060200190929190505050611642565b6040518082815260200191505060405180910390f35b3480156104e657600080fd5b50610513600480360360208110156104fd57600080fd5b810190808035906020019092919050505061165a565b005b34801561052157600080fd5b506105646004803603602081101561053857600080fd5b81019080803573ffffffffffffffffffffffffffffffffffffffff16906020019092919050505061199e565b6040518082815260200191505060405180910390f35b34801561058657600080fd5b506105c96004803603602081101561059d57600080fd5b81019080803573ffffffffffffffffffffffffffffffffffffffff169060200190929190505050611bc2565b6040518082815260200191505060405180910390f35b3480156105eb57600080fd5b5061062e6004803603602081101561060257600080fd5b81019080803573ffffffffffffffffffffffffffffffffffffffff169060200190929190505050611bda565b604051808381526020018281526020019250505060405180910390f35b34801561065757600080fd5b506106a46004803603604081101561066e57600080fd5b81019080803573ffffffffffffffffffffffffffffffffffffffff16906020019092919080359060200190929190505050611bfe565b005b60136020528060005260406000206000915090505481565b60006106eb600460009054906101000a900473ffffffffffffffffffffffffffffffffffffffff16611d61565b90506000600160003373ffffffffffffffffffffffffffffffffffffffff1673ffffffffffffffffffffffffffffffffffffffff1681526020019081526020016000205490506000818303905083811015610791576040517f08c379a000000000000000000000000000000000000000000000000000000000815260040180806020018281038252603281526020018061253b6032913960400191505060405180910390fd5b600560009054906101000a900473ffffffffffffffffffffffffffffffffffffffff16601260006101000a81548173ffffffffffffffffffffffffffffffffffffffff021916908373ffffffffffffffffffffffffffffffffffffffff16021790555061083d600160003373ffffffffffffffffffffffffffffffffffffffff1673ffffffffffffffffffffffffffffffffffffffff1681526020019081526020016000205485611f4c565b600160003373ffffffffffffffffffffffffffffffffffffffff1673ffffffffffffffffffffffffffffffffffffffff16815260200190815260200160002081905550836008600082825401925050819055506000600854633b9aca008602816108a357fe5b049050601260009054906101000a900473ffffffffffffffffffffffffffffffffffffffff1673ffffffffffffffffffffffffffffffffffffffff166340c10f1933876040518363ffffffff1660e01b8152600401808373ffffffffffffffffffffffffffffffffffffffff1673ffffffffffffffffffffffffffffffffffffffff16815260200182815260200192505050600060405180830381600087803b15801561094f57600080fd5b505af1158015610963573d6000803e3d6000fd5b5050505042600e60003373ffffffffffffffffffffffffffffffffffffffff1673ffffffffffffffffffffffffffffffffffffffff168152602001908152602001600020819055505050505050565b600654811015610a0d576040517f08c379a00000000000000000000000000000000000000000000000000000000081526004018080602001828103825260288152602001806125b06028913960400191505060405180910390fd5b60008060003373ffffffffffffffffffffffffffffffffffffffff1673ffffffffffffffffffffffffffffffffffffffff16815260200190815260200160002054905080821115610aa9576040517f08c379a000000000000000000000000000000000000000000000000000000000815260040180806020018281038252602281526020018061256d6022913960400191505060405180910390fd5b6000600160003373ffffffffffffffffffffffffffffffffffffffff1673ffffffffffffffffffffffffffffffffffffffff16815260200190815260200160002054905060008114610b63576040517f08c379a000000000000000000000000000000000000000000000000000000000815260040180806020018281038252601a8152602001807f434450547261636b65722f646562742d6e6f742d72657061696400000000000081525060200191505060405180910390fd5b826000803373ffffffffffffffffffffffffffffffffffffffff1673ffffffffffffffffffffffffffffffffffffffff16815260200190815260200160002054036000803373ffffffffffffffffffffffffffffffffffffffff1673ffffffffffffffffffffffffffffffffffffffff16815260200190815260200160002081905550610bf03384611fb2565b505050565b6001601360003373ffffffffffffffffffffffffffffffffffffffff1673ffffffffffffffffffffffffffffffffffffffff1681526020019081526020016000205414610caa576040517f08c379a000000000000000000000000000000000000000000000000000000000815260040180806020018281038252601b8152602001807f436f696e2f6163636f756e742d6e6f742d617574686f72697a6564000000000081525060200191505060405180910390fd5b6001601360008373ffffffffffffffffffffffffffffffffffffffff1673ffffffffffffffffffffffffffffffffffffffff168152602001908152602001600020819055507f599a298163e1678bb1c676052a8930bf0b8a1261ed6e01b8a2391e55f700010281604051808273ffffffffffffffffffffffffffffffffffffffff1673ffffffffffffffffffffffffffffffffffffffff16815260200191505060405180910390a150565b600560009054906101000a900473ffffffffffffffffffffffffffffffffffffffff16601260006101000a81548173ffffffffffffffffffffffffffffffffffffffff021916908373ffffffffffffffffffffffffffffffffffffffff16021790555080601260009054906101000a900473ffffffffffffffffffffffffffffffffffffffff1673ffffffffffffffffffffffffffffffffffffffff166370a08231336040518263ffffffff1660e01b8152600401808273ffffffffffffffffffffffffffffffffffffffff1673ffffffffffffffffffffffffffffffffffffffff16815260200191505060206040518083038186803b158015610e5857600080fd5b505afa158015610e6c573d6000803e3d6000fd5b505050506040513d6020811015610e8257600080fd5b81019080805190602001909291905050501015610f07576040517f08c379a000000000000000000000000000000000000000000000000000000000815260040180806020018281038252601a8152602001807f434450547261636b65722f657863656564732d62616c616e636500000000000081525060200191505060405180910390fd5b6000610f34600460009054906101000a900473ffffffffffffffffffffffffffffffffffffffff16612097565b90506000620f4240610f46838561224a565b81610f4d57fe5b049050601260009054906101000a900473ffffffffffffffffffffffffffffffffffffffff1673ffffffffffffffffffffffffffffffffffffffff16639dc29fac33856040518363ffffffff1660e01b8152600401808373ffffffffffffffffffffffffffffffffffffffff1673ffffffffffffffffffffffffffffffffffffffff16815260200182815260200192505050600060405180830381600087803b158015610ff957600080fd5b505af115801561100d573d6000803e3d6000fd5b5050505061101b3382611fb2565b505050565b60065434101561107b576040517f08c379a00000000000000000000000000000000000000000000000000000000081526004018080602001828103825260288152602001806125b06028913960400191505060405180910390fd5b346000803373ffffffffffffffffffffffffffffffffffffffff1673ffffffffffffffffffffffffffffffffffffffff16815260200190815260200160002054016000803373ffffffffffffffffffffffffffffffffffffffff1673ffffffffffffffffffffffffffffffffffffffff16815260200190815260200160002081905550565b6001601360003373ffffffffffffffffffffffffffffffffffffffff1673ffffffffffffffffffffffffffffffffffffffff16815260200190815260200160002054146111b5576040517f08c379a000000000000000000000000000000000000000000000000000000000815260040180806020018281038252601b8152602001807f436f696e2f6163636f756e742d6e6f742d617574686f72697a6564000000000081525060200191505060405180910390fd5b80600560006101000a81548173ffffffffffffffffffffffffffffffffffffffff021916908373ffffffffffffffffffffffffffffffffffffffff16021790555050565b6001601360003373ffffffffffffffffffffffffffffffffffffffff1673ffffffffffffffffffffffffffffffffffffffff16815260200190815260200160002054146112ae576040517f08c379a000000000000000000000000000000000000000000000000000000000815260040180806020018281038252601b8152602001807f436f696e2f6163636f756e742d6e6f742d617574686f72697a6564000000000081525060200191505060405180910390fd5b6000601360008373ffffffffffffffffffffffffffffffffffffffff1673ffffffffffffffffffffffffffffffffffffffff168152602001908152602001600020819055507f8834a87e641e9716be4f34527af5d23e11624f1ddeefede6ad75a9acfc31b90381604051808273ffffffffffffffffffffffffffffffffffffffff1673ffffffffffffffffffffffffffffffffffffffff16815260200191505060405180910390a150565b6113616124dd565b600360008773ffffffffffffffffffffffffffffffffffffffff1673ffffffffffffffffffffffffffffffffffffffff1681526020019081526020016000206040518060400160405290816000820154815260200160018201548152505090506113cf816000015184612276565b8160000181815250506113e6816020015183612276565b81602001818152505060006113fd600b548461236a565b90506000611411600b54846020015161224a565b905061141f60095483612276565b600981905550505050505050505050565b60006020528060005260406000206000915090505481565b60008064178411b20090506000633b9aca0090506000601060003373ffffffffffffffffffffffffffffffffffffffff1673ffffffffffffffffffffffffffffffffffffffff1681526020019081526020016000205490506000612710600c60009054906101000a900473ffffffffffffffffffffffffffffffffffffffff1673ffffffffffffffffffffffffffffffffffffffff166328271b856040518163ffffffff1660e01b8152600401602060405180830381600087803b15801561150f57600080fd5b505af1158015611523573d6000803e3d6000fd5b505050506040513d602081101561153957600080fd5b81019080805190602001909291905050500290506000612710600160003373ffffffffffffffffffffffffffffffffffffffff1673ffffffffffffffffffffffffffffffffffffffff1681526020019081526020016000205484848161159b57fe5b0402816115a457fe5b049050600042905081600160008a73ffffffffffffffffffffffffffffffffffffffff1673ffffffffffffffffffffffffffffffffffffffff1681526020019081526020016000208190555080600e60008a73ffffffffffffffffffffffffffffffffffffffff1673ffffffffffffffffffffffffffffffffffffffff16815260200190815260200160002081905550819650505050505050919050565b60026020528060005260406000206000915090505481565b6116ed600160003373ffffffffffffffffffffffffffffffffffffffff1673ffffffffffffffffffffffffffffffffffffffff168152602001908152602001600020546116e8600160003373ffffffffffffffffffffffffffffffffffffffff1673ffffffffffffffffffffffffffffffffffffffff16815260200190815260200160002054600b5461224a565b611f4c565b600160003373ffffffffffffffffffffffffffffffffffffffff1673ffffffffffffffffffffffffffffffffffffffff168152602001908152602001600020819055506000600160003373ffffffffffffffffffffffffffffffffffffffff1673ffffffffffffffffffffffffffffffffffffffff168152602001908152602001600020549050818110156117ea576040517f08c379a000000000000000000000000000000000000000000000000000000000815260040180806020018281038252601e8152602001807f434450547261636b65722f657863656564732d646562742d616d6f756e74000081525060200191505060405180910390fd5b600560009054906101000a900473ffffffffffffffffffffffffffffffffffffffff16601260006101000a81548173ffffffffffffffffffffffffffffffffffffffff021916908373ffffffffffffffffffffffffffffffffffffffff160217905550611896600160003373ffffffffffffffffffffffffffffffffffffffff1673ffffffffffffffffffffffffffffffffffffffff1681526020019081526020016000205483612477565b600160003373ffffffffffffffffffffffffffffffffffffffff1673ffffffffffffffffffffffffffffffffffffffff16815260200190815260200160002081905550601260009054906101000a900473ffffffffffffffffffffffffffffffffffffffff1673ffffffffffffffffffffffffffffffffffffffff16639dc29fac33846040518363ffffffff1660e01b8152600401808373ffffffffffffffffffffffffffffffffffffffff1673ffffffffffffffffffffffffffffffffffffffff16815260200182815260200192505050600060405180830381600087803b15801561198257600080fd5b505af1158015611996573d6000803e3d6000fd5b505050505050565b600080601060003373ffffffffffffffffffffffffffffffffffffffff1673ffffffffffffffffffffffffffffffffffffffff1681526020019081526020016000205490506000600c60009054906101000a900473ffffffffffffffffffffffffffffffffffffffff1673ffffffffffffffffffffffffffffffffffffffff16637a7c156e6040518163ffffffff1660e01b8152600401602060405180830381600087803b158015611a4f57600080fd5b505af1158015611a63573d6000803e3d6000fd5b505050506040513d6020811015611a7957600080fd5b8101908080519060200190929190505050905060006064600160003373ffffffffffffffffffffffffffffffffffffffff1673ffffffffffffffffffffffffffffffffffffffff16815260200190815260200160002054848481611ad957fe5b040281611ae257fe5b049050600042905081600160008873ffffffffffffffffffffffffffffffffffffffff1673ffffffffffffffffffffffffffffffffffffffff1681526020019081526020016000208190555080600e60008873ffffffffffffffffffffffffffffffffffffffff1673ffffffffffffffffffffffffffffffffffffffff1681526020019081526020016000208190555082601060003373ffffffffffffffffffffffffffffffffffffffff1673ffffffffffffffffffffffffffffffffffffffff1681526020019081526020016000208190555081945050505050919050565b60016020528060005260406000206000915090505481565b60036020528060005260406000206000915090508060000154908060010154905082565b6001601360003373ffffffffffffffffffffffffffffffffffffffff1673ffffffffffffffffffffffffffffffffffffffff1681526020019081526020016000205414611cb3576040517f08c379a000000000000000000000000000000000000000000000000000000000815260040180806020018281038252601b8152602001807f436f696e2f6163636f756e742d6e6f742d617574686f72697a6564000000000081525060200191505060405180910390fd5b611cbf600b5482612276565b600b819055506000611cd36009548361236a565b9050611ce160095482612276565b6009819055507ffe98c156e37d49836708e92f03067867e3e1a5f44375becdd16d605eb8206eab8383600954604051808473ffffffffffffffffffffffffffffffffffffffff1673ffffffffffffffffffffffffffffffffffffffff168152602001838152602001828152602001935050505060405180910390a1505050565b600081601160006101000a81548173ffffffffffffffffffffffffffffffffffffffff021916908373ffffffffffffffffffffffffffffffffffffffff16021790555060008060003373ffffffffffffffffffffffffffffffffffffffff1673ffffffffffffffffffffffffffffffffffffffff1681526020019081526020016000205490506000601160009054906101000a900473ffffffffffffffffffffffffffffffffffffffff1673ffffffffffffffffffffffffffffffffffffffff16631ef476b76040518163ffffffff1660e01b8152600401602060405180830381600087803b158015611e5357600080fd5b505af1158015611e67573d6000803e3d6000fd5b505050506040513d6020811015611e7d57600080fd5b810190808051906020019092919050505090506000601160009054906101000a900473ffffffffffffffffffffffffffffffffffffffff1673ffffffffffffffffffffffffffffffffffffffff1663d513c5106040518163ffffffff1660e01b8152600401602060405180830381600087803b158015611efc57600080fd5b505af1158015611f10573d6000803e3d6000fd5b505050506040513d6020811015611f2657600080fd5b810190808051906020019092919050505090506000818402905080945050505050919050565b6000828284019150811015611fac576040517f08c379a000000000000000000000000000000000000000000000000000000000815260040180806020018281038252602181526020018061258f6021913960400191505060405180910390fd5b92915050565b600060608373ffffffffffffffffffffffffffffffffffffffff168360405180600001905060006040518083038185875af1925050503d8060008114612014576040519150601f19603f3d011682016040523d82523d6000602084013e612019565b606091505b509150915081612091576040517f08c379a00000000000000000000000000000000000000000000000000000000081526004018080602001828103825260138152602001807f4661696c656420746f2073656e6420524254430000000000000000000000000081525060200191505060405180910390fd5b50505050565b600081601160006101000a81548173ffffffffffffffffffffffffffffffffffffffff021916908373ffffffffffffffffffffffffffffffffffffffff1602179055506000601160009054906101000a900473ffffffffffffffffffffffffffffffffffffffff1673ffffffffffffffffffffffffffffffffffffffff16631ef476b76040518163ffffffff1660e01b8152600401602060405180830381600087803b15801561214657600080fd5b505af115801561215a573d6000803e3d6000fd5b505050506040513d602081101561217057600080fd5b810190808051906020019092919050505090506000601160009054906101000a900473ffffffffffffffffffffffffffffffffffffffff1673ffffffffffffffffffffffffffffffffffffffff1663fe1d92346040518163ffffffff1660e01b8152600401602060405180830381600087803b1580156121ef57600080fd5b505af1158015612203573d6000803e3d6000fd5b505050506040513d602081101561221957600080fd5b81019080805190602001909291905050509050600082620f424083028161223c57fe5b049050809350505050919050565b600080821480612267575082828385029250828161226457fe5b04145b61227057600080fd5b92915050565b6000818301905060008212158061228d5750828111155b6122ff576040517f08c379a00000000000000000000000000000000000000000000000000000000081526004018080602001828103825260208152602001807f53414645456e67696e652f6164642d75696e742d696e742d6f766572666c6f7781525060200191505060405180910390fd5b60008213158061230f5750828110155b612364576040517f08c379a000000000000000000000000000000000000000000000000000000000815260040180806020018281038252602181526020018061251a6021913960400191505060405180910390fd5b92915050565b6000818302905060008312156123e8576040517f08c379a000000000000000000000000000000000000000000000000000000000815260040180806020018281038252601e8152602001807f53414645456e67696e652f6d756c2d75696e742d696e742d6e756c6c2d78000081525060200191505060405180910390fd5b60008214806123ff5750828282816123fc57fe5b05145b612471576040517f08c379a00000000000000000000000000000000000000000000000000000000081526004018080602001828103825260208152602001807f53414645456e67696e652f6d756c2d75696e742d696e742d6f766572666c6f7781525060200191505060405180910390fd5b92915050565b60008282840391508111156124d7576040517f08c379a00000000000000000000000000000000000000000000000000000000081526004018080602001828103825260228152602001806124f86022913960400191505060405180910390fd5b92915050565b60405180604001604052806000815260200160008152509056fe53414645456e67696e652f7375622d75696e742d75696e742d756e646572666c6f7753414645456e67696e652f6164642d75696e742d696e742d756e646572666c6f77434450547261636b65722f696e73756666696369656e742d636f6c6c61746572616c2d746f2d6d696e742d737461626c6573434450547261636b65722f616d6f756e742d657863656564732d6465706f7369747353414645456e67696e652f6164642d75696e742d75696e742d6f766572666c6f77434450547261636b65722f6e6f6e2d64757374792d636f6c6c61746572616c2d7265717569726564a26469706673582212208e421ecbfc046907a0f17023360b04884ec240aa59cd49413a2701324170262d64736f6c63430006070033",
  "immutableReferences": {},
  "source": "pragma solidity 0.6.7;\n\nimport \"./dsmath.sol\";\n\n\ncontract CoinLike{\n  mapping (address => uint256)                      public balanceOf;\n  // Mapping of allowances\n  mapping (address => mapping (address => uint256)) public allowance;\n  // Mapping of nonces used for permits\n  mapping (address => uint256)                      public nonces;\n  function addAuthorization(address account) external {}\n  function removeAuthorization(address account) external {}\n  function transfer(address dst, uint256 amount) external returns (bool) {}\n  function transferFrom(address src, address dst, uint256 amount)\n        public returns (bool){}\n  function mint(address usr, uint256 amount) external {}\n  function burn(address usr, uint256 amount) external {}\n  function approve(address usr, uint256 amount) external returns (bool) {}\n  function push(address usr, uint256 amount) external {}\n  function pull(address usr, uint256 amount) external {}\n  function move(address src, address dst, uint256 amount) external {}\n  function permit(\n        address holder,\n        address spender,\n        uint256 nonce,\n        uint256 expiry,\n        bool allowed,\n        uint8 v,\n        bytes32 r,\n        bytes32 s\n    ) external\n    {}\n}\n\ncontract OracleLike{\n  function addAuthorization(address account) external {}\n  function removeAuthorization(address account) external {}\n  function setCollateralRatio(uint256 ratio) external {}\n  function peekCollateralRatio() external returns(uint256) {}\n  function peekBSMA() external returns(uint256){}\n  function peekBX() external returns(uint256){}\n\n\n}\n\ncontract TaxCollectorLike{\n  function updateAR() public returns (uint256) {}\n  function taxSingleOutcomeL() public returns (uint256) {}\n}\ncontract CDPTracker is DSMath {\n\nmapping (address=>uint256) public collateral; // collateral deposited by UserAddress\nmapping (address=>uint256) public debtIssued; // debt issued by UserAddress\n// mapping (address=>uint256) public interestDue; // interest due by UserAddress\nmapping (address=>uint256) public initTime;\nmapping (address => SAFE) public safes;\n\n\naddress Oracle;\naddress Coin;\nuint256 dust; //Minimum amount of collateral deposited\nuint256 Interest; // Interest rate set by governance. Applies from next calculation after rate is set.\n\nuint256 totalDebt;\nuint256 globalDebt;\nuint256 totalInterest;\nuint256 accumulatedRate = 100000564701133626865910626;//100000000015815;\nTaxCollectorLike TC = TaxCollectorLike(0xd3D4507ced74eAd039783D14E441d1fd9916eEB7);\n\nmapping (address => uint256) debtGenerated;\nmapping (address => uint256) LastupdateTime;\nmapping (address => uint256) accumulatedDebt;\nmapping (address => uint256) originRate;\n\nfunction updateDebt(address user) public returns(uint256) {\n  // uint256 timeDifference = sub(now, LastupdateTime[user]);\n  uint256 NewRate = 101000000000;\n  uint256 OriginRate = 1000000000;\n  uint256 originalrate = originRate[msg.sender];\n  uint256 newrate= TC.taxSingleOutcomeL()*10000;\n  // uint256 newDebt = rmul(debtIssued[user], rpow(accumulatedRate, timeDifference));\n  // uint256 newDebt = ((NewRate/OriginRate)*debtIssued[msg.sender])/10000;\n  uint256 newDebt = (newrate/originalrate)*debtIssued[msg.sender]/10000;\n\n  uint256 newTime = now;\n  debtIssued[user] = newDebt;\n  LastupdateTime[user] = newTime;\n  return newDebt;\n}\n\nfunction updateDebt2(address user) public returns(uint256) {\n  // uint256 timeDifference = sub(now, LastupdateTime[user]);\n  // uint256 NewRate = 101000000000;\n  // uint256 OriginRate = 1000000000;\n  uint256 originalrate = originRate[msg.sender];\n  uint256 newrate= TC.updateAR();\n  // uint256 newDebt = rmul(debtIssued[user], rpow(accumulatedRate, timeDifference));\n  uint256 newDebt = (newrate/originalrate)*debtIssued[msg.sender]/100;\n  uint256 newTime = now;\n  debtIssued[user] = newDebt;\n  LastupdateTime[user] = newTime;\n  originRate[msg.sender] = newrate;\n  return newDebt;\n}\n\nstruct SAFE {\n      // Total amount of collateral locked in a SAFE\n      uint256 lockedCollateral;  // [wad]\n      // Total amount of debt generated by a SAFE\n      uint256 generatedDebt;     // [wad]\n  }\n\n\nOracleLike Orc;\nCoinLike coin;\n\nconstructor(address ORC, uint256 DUST) public {\n  Oracle = ORC;\n  dust = DUST;\n  authorizedAccounts[msg.sender] = 1;\n}\nevent AddAuthorization(address account);\nevent RemoveAuthorization(address account);\n\nmapping (address => uint256) public authorizedAccounts;\n/**\n * @notice Add auth to an account\n * @param account Account to add auth to\n */\nfunction addAuthorization(address account) external isAuthorized {\n    authorizedAccounts[account] = 1;\n    emit AddAuthorization(account);\n}\n/**\n * @notice Remove auth from an account\n * @param account Account to remove auth from\n */\nfunction removeAuthorization(address account) external isAuthorized {\n    authorizedAccounts[account] = 0;\n    emit RemoveAuthorization(account);\n}\n/**\n* @notice Checks whether msg.sender can call an authed function\n**/\n\nevent UpdateAccumulatedRate(\n    address surplusDst,\n    int256 rateMultiplier,\n    uint256 globalDebt\n);\n\nmodifier isAuthorized {\n    require(authorizedAccounts[msg.sender] == 1, \"Coin/account-not-authorized\");\n    _;\n}\n\n// math\nfunction add(uint256 x, int256 y) internal pure returns (uint256 z) {\n    z = x + uint256(y);\n    require(y >= 0 || z <= x, \"SAFEEngine/add-uint-int-overflow\");\n    require(y <= 0 || z >= x, \"SAFEEngine/add-uint-int-underflow\");\n}\nfunction add(int256 x, int256 y) internal pure returns (int256 z) {\n    z = x + y;\n    require(y >= 0 || z <= x, \"SAFEEngine/add-int-int-overflow\");\n    require(y <= 0 || z >= x, \"SAFEEngine/add-int-int-underflow\");\n}\nfunction sub(uint256 x, int256 y) internal pure returns (uint256 z) {\n    z = x - uint256(y);\n    require(y <= 0 || z <= x, \"SAFEEngine/sub-uint-int-overflow\");\n    require(y >= 0 || z >= x, \"SAFEEngine/sub-uint-int-underflow\");\n}\nfunction sub(int256 x, int256 y) internal pure returns (int256 z) {\n    z = x - y;\n    require(y <= 0 || z <= x, \"SAFEEngine/sub-int-int-overflow\");\n    require(y >= 0 || z >= x, \"SAFEEngine/sub-int-int-underflow\");\n}\nfunction mul(uint256 x, int256 y) internal pure returns (int256 z) {\n    z = int256(x) * y;\n    require(int256(x) >= 0, \"SAFEEngine/mul-uint-int-null-x\");\n    require(y == 0 || z / y == int256(x), \"SAFEEngine/mul-uint-int-overflow\");\n}\nfunction mul(uint x, uint y) internal pure returns (uint z) {\n    require(y == 0 || (z = x * y) / y == x);\n}\n\nfunction add(uint256 x, uint256 y) internal pure returns (uint256 z) {\n    require((z = x + y) >= x, \"SAFEEngine/add-uint-uint-overflow\");\n}\nfunction sub(uint256 x, uint256 y) internal pure returns (uint256 z) {\n    require((z = x - y) <= x, \"SAFEEngine/sub-uint-uint-underflow\");\n}\n\n\nfunction setCoin(address STABLE) external isAuthorized {\n  Coin = STABLE;\n}\n\nfunction modifySAFECollateralization(\n        bytes32 collateralType,\n        address user,\n        address collateralSource,\n        address debtDestination,\n        int256 deltaCollateral,\n        int256 deltaDebt\n    ) external {\n        // system is live\n        SAFE memory safeData = safes[user];\n\n        safeData.lockedCollateral      = add(safeData.lockedCollateral, deltaCollateral);\n        safeData.generatedDebt         = add(safeData.generatedDebt, deltaDebt);\n        int256 deltaAdjustedDebt = mul(accumulatedRate, deltaDebt);\n        uint256 totalDebtIssued  = mul(accumulatedRate, safeData.generatedDebt);\n        globalDebt               = add(globalDebt, deltaAdjustedDebt);\n      }\n\nfunction computeDebtLimit(address _oracle) internal returns (uint256){\n   Orc = OracleLike(_oracle);\n   uint256 _collateral = collateral[msg.sender]; //Amount of RBTC Collateral in SAFE\n   uint256 currentBX = Orc.peekBX();\n   uint256 currentCollateralRatio = Orc.peekCollateralRatio(); //12500 by default, to be divided by 100\n   uint256 currentDebtLimit = _collateral * currentCollateralRatio; // 1 xBTC can be minted (borrowed) for every 1.25 BTC collateral by default.\n   return currentDebtLimit;\n }\n\n function computeRedeemPrice(address _oracle) internal returns (uint256){\n   Orc = OracleLike(_oracle);\n   uint256 currentBX = Orc.peekBX(); //BTC-USD exchange rate\n   uint256 currentBSMA = Orc.peekBSMA(); //Current USD redemption rate of 1 xBTC\n   uint256 currentRedeemPrice = (currentBSMA*1000000)/currentBX; //10e6 multiplier to preserve precision of fraction.\n   return currentRedeemPrice;\n }\n\n function sendRBTC(address payable _to, uint256 amount) internal {\n        // Call returns a boolean value indicating success or failure.\n        (bool sent, bytes memory data) = _to.call{value: amount}(\"\");\n        require(sent, \"Failed to send RBTC\");\n    }\n\n //deposit RBTC collateral in safe\n function depositCollateral() public payable {\n    require(msg.value>=dust, 'CDPTracker/non-dusty-collateral-required');\n    collateral[msg.sender] = (collateral[msg.sender]) + msg.value;\n  }\n\n  function _calculateInterest(address user) internal returns (uint256){\n\n\n  }\n\n  function takeDebt(uint256 amount) public {\n    uint256 debtLimit = computeDebtLimit(Oracle);\n    uint256 issuedDebt = debtIssued[msg.sender];\n    uint256 availableDebt = debtLimit - issuedDebt;\n    require(availableDebt >= amount, \"CDPTracker/insufficient-collateral-to-mint-stables\"); //collateral sufficiency check\n    coin = CoinLike(Coin);\n    debtIssued[msg.sender] = add(debtIssued[msg.sender], amount);\n    totalDebt += amount;\n    uint256 dS= amount*1000000000/totalDebt; // post-money share of debt\n    // DebtShare[msg.sender] += dS;\n    coin.mint(msg.sender, amount);\n    LastupdateTime[msg.sender] = now;\n  }\n\n  function returnDebt(uint256 amount) public {\n    debtIssued[msg.sender] = add(debtIssued[msg.sender], mul(debtIssued[msg.sender], accumulatedRate)); // update balance to include interest\n    uint256 issuedDebt = debtIssued[msg.sender];\n    require(issuedDebt >= amount, \"CDPTracker/exceeds-debt-amount\");\n    coin = CoinLike(Coin);\n    debtIssued[msg.sender] = sub(debtIssued[msg.sender], amount);\n    coin.burn(msg.sender, amount);\n  }\n\n  function redeemCoins(uint256 amount) public payable {\n    coin = CoinLike(Coin);\n    require(coin.balanceOf(msg.sender)>=amount, \"CDPTracker/exceeds-balance\");\n    uint256 redemptionRatePerCoin = computeRedeemPrice(Oracle);\n    uint256 totalRedemptionAmount = mul(redemptionRatePerCoin, amount)/1000000;\n    coin.burn(msg.sender, amount);\n    sendRBTC(msg.sender, totalRedemptionAmount);\n  }\n\n  function removeCollateral(uint256 amount) public payable {\n     require(amount>=dust, 'CDPTracker/non-dusty-collateral-required');\n     uint256 _collateral = collateral[msg.sender]; //Amount of RBTC Collateral in CDP\n     require(amount<=_collateral, 'CDPTracker/amount-exceeds-deposits');\n     uint256 issuedDebt = debtIssued[msg.sender];\n     require(issuedDebt==0, 'CDPTracker/debt-not-repaid');\n     collateral[msg.sender] = (collateral[msg.sender]) - amount;\n     sendRBTC(msg.sender, amount);\n   }\n\n   function updateAccumulatedRate(\n          address surplusDst,\n          int256 rateMultiplier\n      ) external isAuthorized {\n          accumulatedRate        = add(accumulatedRate, rateMultiplier);\n          int256 deltaSurplus                    = mul(globalDebt, rateMultiplier);\n          // coinBalance[surplusDst]                = add(coinBalance[surplusDst], deltaSurplus);\n          globalDebt                             = add(globalDebt, deltaSurplus);\n          emit UpdateAccumulatedRate(\n              surplusDst,\n              rateMultiplier,\n              globalDebt\n          );\n        }\n}\n",
  "sourcePath": "/Users/dm/Documents/wishbone/BrainDAO/contracts/CDPTracker.sol",
  "compiler": {
    "name": "solc",
    "version": "0.6.7+commit.b8d736ae.Emscripten.clang"
  },
  "schemaVersion": "3.4.3",
  "updatedAt": "2022-01-28T15:10:22.136Z",
  "networkType": "ethereum",
  "devdoc": {
    "methods": {
      "addAuthorization(address)": {
        "params": {
          "account": "Account to add auth to"
        }
      },
      "removeAuthorization(address)": {
        "params": {
          "account": "Account to remove auth from"
        }
      }
    }
  },
  "userdoc": {
    "methods": {
      "addAuthorization(address)": {
        "notice": "Add auth to an account"
      },
      "removeAuthorization(address)": {
        "notice": "Remove auth from an account"
      }
    }
  }
}