{
  "contractName": "Coin",
  "abi": [
    {
      "inputs": [
        {
          "internalType": "string",
          "name": "name_",
          "type": "string"
        },
        {
          "internalType": "string",
          "name": "symbol_",
          "type": "string"
        },
        {
          "internalType": "uint256",
          "name": "chainId_",
          "type": "uint256"
        }
      ],
      "stateMutability": "nonpayable",
      "type": "constructor"
    },
    {
      "anonymous": false,
      "inputs": [
        {
          "indexed": false,
          "internalType": "address",
          "name": "account",
          "type": "address"
        }
      ],
      "name": "AddAuthorization",
      "type": "event"
    },
    {
      "anonymous": false,
      "inputs": [
        {
          "indexed": true,
          "internalType": "address",
          "name": "src",
          "type": "address"
        },
        {
          "indexed": true,
          "internalType": "address",
          "name": "guy",
          "type": "address"
        },
        {
          "indexed": false,
          "internalType": "uint256",
          "name": "amount",
          "type": "uint256"
        }
      ],
      "name": "Approval",
      "type": "event"
    },
    {
      "anonymous": false,
      "inputs": [
        {
          "indexed": false,
          "internalType": "address",
          "name": "account",
          "type": "address"
        }
      ],
      "name": "RemoveAuthorization",
      "type": "event"
    },
    {
      "anonymous": false,
      "inputs": [
        {
          "indexed": true,
          "internalType": "address",
          "name": "src",
          "type": "address"
        },
        {
          "indexed": true,
          "internalType": "address",
          "name": "dst",
          "type": "address"
        },
        {
          "indexed": false,
          "internalType": "uint256",
          "name": "amount",
          "type": "uint256"
        }
      ],
      "name": "Transfer",
      "type": "event"
    },
    {
      "inputs": [],
      "name": "DOMAIN_SEPARATOR",
      "outputs": [
        {
          "internalType": "bytes32",
          "name": "",
          "type": "bytes32"
        }
      ],
      "stateMutability": "view",
      "type": "function",
      "constant": true
    },
    {
      "inputs": [],
      "name": "PERMIT_TYPEHASH",
      "outputs": [
        {
          "internalType": "bytes32",
          "name": "",
          "type": "bytes32"
        }
      ],
      "stateMutability": "view",
      "type": "function",
      "constant": true
    },
    {
      "inputs": [
        {
          "internalType": "address",
          "name": "",
          "type": "address"
        },
        {
          "internalType": "address",
          "name": "",
          "type": "address"
        }
      ],
      "name": "allowance",
      "outputs": [
        {
          "internalType": "uint256",
          "name": "",
          "type": "uint256"
        }
      ],
      "stateMutability": "view",
      "type": "function",
      "constant": true
    },
    {
      "inputs": [
        {
          "internalType": "address",
          "name": "",
          "type": "address"
        }
      ],
      "name": "authorizedAccounts",
      "outputs": [
        {
          "internalType": "uint256",
          "name": "",
          "type": "uint256"
        }
      ],
      "stateMutability": "view",
      "type": "function",
      "constant": true
    },
    {
      "inputs": [
        {
          "internalType": "address",
          "name": "",
          "type": "address"
        }
      ],
      "name": "balanceOf",
      "outputs": [
        {
          "internalType": "uint256",
          "name": "",
          "type": "uint256"
        }
      ],
      "stateMutability": "view",
      "type": "function",
      "constant": true
    },
    {
      "inputs": [],
      "name": "chainId",
      "outputs": [
        {
          "internalType": "uint256",
          "name": "",
          "type": "uint256"
        }
      ],
      "stateMutability": "view",
      "type": "function",
      "constant": true
    },
    {
      "inputs": [],
      "name": "decimals",
      "outputs": [
        {
          "internalType": "uint8",
          "name": "",
          "type": "uint8"
        }
      ],
      "stateMutability": "view",
      "type": "function",
      "constant": true
    },
    {
      "inputs": [],
      "name": "name",
      "outputs": [
        {
          "internalType": "string",
          "name": "",
          "type": "string"
        }
      ],
      "stateMutability": "view",
      "type": "function",
      "constant": true
    },
    {
      "inputs": [
        {
          "internalType": "address",
          "name": "",
          "type": "address"
        }
      ],
      "name": "nonces",
      "outputs": [
        {
          "internalType": "uint256",
          "name": "",
          "type": "uint256"
        }
      ],
      "stateMutability": "view",
      "type": "function",
      "constant": true
    },
    {
      "inputs": [],
      "name": "symbol",
      "outputs": [
        {
          "internalType": "string",
          "name": "",
          "type": "string"
        }
      ],
      "stateMutability": "view",
      "type": "function",
      "constant": true
    },
    {
      "inputs": [],
      "name": "totalSupply",
      "outputs": [
        {
          "internalType": "uint256",
          "name": "",
          "type": "uint256"
        }
      ],
      "stateMutability": "view",
      "type": "function",
      "constant": true
    },
    {
      "inputs": [],
      "name": "version",
      "outputs": [
        {
          "internalType": "string",
          "name": "",
          "type": "string"
        }
      ],
      "stateMutability": "view",
      "type": "function",
      "constant": true
    },
    {
      "inputs": [
        {
          "internalType": "address",
          "name": "account",
          "type": "address"
        }
      ],
      "name": "addAuthorization",
      "outputs": [],
      "stateMutability": "nonpayable",
      "type": "function"
    },
    {
      "inputs": [
        {
          "internalType": "address",
          "name": "account",
          "type": "address"
        }
      ],
      "name": "removeAuthorization",
      "outputs": [],
      "stateMutability": "nonpayable",
      "type": "function"
    },
    {
      "inputs": [
        {
          "internalType": "address",
          "name": "dst",
          "type": "address"
        },
        {
          "internalType": "uint256",
          "name": "amount",
          "type": "uint256"
        }
      ],
      "name": "transfer",
      "outputs": [
        {
          "internalType": "bool",
          "name": "",
          "type": "bool"
        }
      ],
      "stateMutability": "nonpayable",
      "type": "function"
    },
    {
      "inputs": [
        {
          "internalType": "address",
          "name": "src",
          "type": "address"
        },
        {
          "internalType": "address",
          "name": "dst",
          "type": "address"
        },
        {
          "internalType": "uint256",
          "name": "amount",
          "type": "uint256"
        }
      ],
      "name": "transferFrom",
      "outputs": [
        {
          "internalType": "bool",
          "name": "",
          "type": "bool"
        }
      ],
      "stateMutability": "nonpayable",
      "type": "function"
    },
    {
      "inputs": [
        {
          "internalType": "address",
          "name": "usr",
          "type": "address"
        },
        {
          "internalType": "uint256",
          "name": "amount",
          "type": "uint256"
        }
      ],
      "name": "mint",
      "outputs": [],
      "stateMutability": "nonpayable",
      "type": "function"
    },
    {
      "inputs": [
        {
          "internalType": "address",
          "name": "usr",
          "type": "address"
        },
        {
          "internalType": "uint256",
          "name": "amount",
          "type": "uint256"
        }
      ],
      "name": "burn",
      "outputs": [],
      "stateMutability": "nonpayable",
      "type": "function"
    },
    {
      "inputs": [
        {
          "internalType": "address",
          "name": "usr",
          "type": "address"
        },
        {
          "internalType": "uint256",
          "name": "amount",
          "type": "uint256"
        }
      ],
      "name": "approve",
      "outputs": [
        {
          "internalType": "bool",
          "name": "",
          "type": "bool"
        }
      ],
      "stateMutability": "nonpayable",
      "type": "function"
    },
    {
      "inputs": [
        {
          "internalType": "address",
          "name": "usr",
          "type": "address"
        },
        {
          "internalType": "uint256",
          "name": "amount",
          "type": "uint256"
        }
      ],
      "name": "push",
      "outputs": [],
      "stateMutability": "nonpayable",
      "type": "function"
    },
    {
      "inputs": [
        {
          "internalType": "address",
          "name": "usr",
          "type": "address"
        },
        {
          "internalType": "uint256",
          "name": "amount",
          "type": "uint256"
        }
      ],
      "name": "pull",
      "outputs": [],
      "stateMutability": "nonpayable",
      "type": "function"
    },
    {
      "inputs": [
        {
          "internalType": "address",
          "name": "src",
          "type": "address"
        },
        {
          "internalType": "address",
          "name": "dst",
          "type": "address"
        },
        {
          "internalType": "uint256",
          "name": "amount",
          "type": "uint256"
        }
      ],
      "name": "move",
      "outputs": [],
      "stateMutability": "nonpayable",
      "type": "function"
    },
    {
      "inputs": [
        {
          "internalType": "address",
          "name": "holder",
          "type": "address"
        },
        {
          "internalType": "address",
          "name": "spender",
          "type": "address"
        },
        {
          "internalType": "uint256",
          "name": "nonce",
          "type": "uint256"
        },
        {
          "internalType": "uint256",
          "name": "expiry",
          "type": "uint256"
        },
        {
          "internalType": "bool",
          "name": "allowed",
          "type": "bool"
        },
        {
          "internalType": "uint8",
          "name": "v",
          "type": "uint8"
        },
        {
          "internalType": "bytes32",
          "name": "r",
          "type": "bytes32"
        },
        {
          "internalType": "bytes32",
          "name": "s",
          "type": "bytes32"
        }
      ],
      "name": "permit",
      "outputs": [],
      "stateMutability": "nonpayable",
      "type": "function"
    }
  ],
  "bytecode": "0x60806040526040518060400160405280600181526020017f3100000000000000000000000000000000000000000000000000000000000000815250600390805190602001906200005192919062000467565b503480156200005f57600080fd5b506040516200260b3803806200260b833981810160405260608110156200008557600080fd5b8101908080516040519392919084640100000000821115620000a657600080fd5b83820191506020820185811115620000bd57600080fd5b8251866001820283011164010000000082111715620000db57600080fd5b8083526020830192505050908051906020019080838360005b8381101562000111578082015181840152602081019050620000f4565b50505050905090810190601f1680156200013f5780820380516001836020036101000a031916815260200191505b50604052602001805160405193929190846401000000008211156200016357600080fd5b838201915060208201858111156200017a57600080fd5b82518660018202830111640100000000821117156200019857600080fd5b8083526020830192505050908051906020019080838360005b83811015620001ce578082015181840152602081019050620001b1565b50505050905090810190601f168015620001fc5780820380516001836020036101000a031916815260200191505b506040526020018051906020019092919050505060016000803373ffffffffffffffffffffffffffffffffffffffff1673ffffffffffffffffffffffffffffffffffffffff1681526020019081526020016000208190555082600190805190602001906200026c92919062000467565b5081600290805190602001906200028592919062000467565b50806004819055506040518080620025b9605291396052019050604051809103902060016040518082805460018160011615610100020316600290048015620003085780601f10620002e557610100808354040283529182019162000308565b820191906000526020600020905b815481529060010190602001808311620002f3575b5050915050604051809103902060036040518082805460018160011615610100020316600290048015620003765780601f106200035357610100808354040283529182019162000376565b820191906000526020600020905b81548152906001019060200180831162000361575b5050915050604051809103902060045430604051602001808681526020018581526020018481526020018381526020018273ffffffffffffffffffffffffffffffffffffffff1673ffffffffffffffffffffffffffffffffffffffff16815260200195505050505050604051602081830303815290604052805190602001206009819055507f599a298163e1678bb1c676052a8930bf0b8a1261ed6e01b8a2391e55f700010233604051808273ffffffffffffffffffffffffffffffffffffffff1673ffffffffffffffffffffffffffffffffffffffff16815260200191505060405180910390a150505062000516565b828054600181600116156101000203166002900490600052602060002090601f016020900481019282601f10620004aa57805160ff1916838001178555620004db565b82800160010185558215620004db579182015b82811115620004da578251825591602001919060010190620004bd565b5b509050620004ea9190620004ee565b5090565b6200051391905b808211156200050f576000816000905550600101620004f5565b5090565b90565b61209380620005266000396000f3fe608060405234801561001057600080fd5b506004361061014d5760003560e01c806370a08231116100c35780639dc29fac1161007c5780639dc29fac146106e7578063a9059cbb14610735578063b753a98c1461079b578063bb35783b146107e9578063dd62ed3e14610857578063f2d5d56b146108cf5761014d565b806370a08231146104ac5780637ecebe00146105045780638fcbaf0c1461055c57806394f3f81d1461060257806395d89b41146106465780639a8a0592146106c95761014d565b806330adf81f1161011557806330adf81f14610337578063313ce5671461035557806335b28153146103795780633644e515146103bd57806340c10f19146103db57806354fd4d50146104295761014d565b806306fdde0314610152578063095ea7b3146101d557806318160ddd1461023b57806323b872dd1461025957806324ba5884146102df575b600080fd5b61015a61091d565b6040518080602001828103825283818151815260200191508051906020019080838360005b8381101561019a57808201518184015260208101905061017f565b50505050905090810190601f1680156101c75780820380516001836020036101000a031916815260200191505b509250505060405180910390f35b610221600480360360408110156101eb57600080fd5b81019080803573ffffffffffffffffffffffffffffffffffffffff169060200190929190803590602001909291905050506109bb565b604051808215151515815260200191505060405180910390f35b610243610aad565b6040518082815260200191505060405180910390f35b6102c56004803603606081101561026f57600080fd5b81019080803573ffffffffffffffffffffffffffffffffffffffff169060200190929190803573ffffffffffffffffffffffffffffffffffffffff16906020019092919080359060200190929190505050610ab3565b604051808215151515815260200191505060405180910390f35b610321600480360360208110156102f557600080fd5b81019080803573ffffffffffffffffffffffffffffffffffffffff16906020019092919050505061110c565b6040518082815260200191505060405180910390f35b61033f611124565b6040518082815260200191505060405180910390f35b61035d61114b565b604051808260ff1660ff16815260200191505060405180910390f35b6103bb6004803603602081101561038f57600080fd5b81019080803573ffffffffffffffffffffffffffffffffffffffff169060200190929190505050611150565b005b6103c56112ae565b6040518082815260200191505060405180910390f35b610427600480360360408110156103f157600080fd5b81019080803573ffffffffffffffffffffffffffffffffffffffff169060200190929190803590602001909291905050506112b4565b005b610431611470565b6040518080602001828103825283818151815260200191508051906020019080838360005b83811015610471578082015181840152602081019050610456565b50505050905090810190601f16801561049e5780820380516001836020036101000a031916815260200191505b509250505060405180910390f35b6104ee600480360360208110156104c257600080fd5b81019080803573ffffffffffffffffffffffffffffffffffffffff16906020019092919050505061150e565b6040518082815260200191505060405180910390f35b6105466004803603602081101561051a57600080fd5b81019080803573ffffffffffffffffffffffffffffffffffffffff169060200190929190505050611526565b6040518082815260200191505060405180910390f35b610600600480360361010081101561057357600080fd5b81019080803573ffffffffffffffffffffffffffffffffffffffff169060200190929190803573ffffffffffffffffffffffffffffffffffffffff1690602001909291908035906020019092919080359060200190929190803515159060200190929190803560ff169060200190929190803590602001909291908035906020019092919050505061153e565b005b6106446004803603602081101561061857600080fd5b81019080803573ffffffffffffffffffffffffffffffffffffffff169060200190929190505050611a79565b005b61064e611bd7565b6040518080602001828103825283818151815260200191508051906020019080838360005b8381101561068e578082015181840152602081019050610673565b50505050905090810190601f1680156106bb5780820380516001836020036101000a031916815260200191505b509250505060405180910390f35b6106d1611c75565b6040518082815260200191505060405180910390f35b610733600480360360408110156106fd57600080fd5b81019080803573ffffffffffffffffffffffffffffffffffffffff16906020019092919080359060200190929190505050611c7b565b005b6107816004803603604081101561074b57600080fd5b81019080803573ffffffffffffffffffffffffffffffffffffffff16906020019092919080359060200190929190505050611eec565b604051808215151515815260200191505060405180910390f35b6107e7600480360360408110156107b157600080fd5b81019080803573ffffffffffffffffffffffffffffffffffffffff16906020019092919080359060200190929190505050611f01565b005b610855600480360360608110156107ff57600080fd5b81019080803573ffffffffffffffffffffffffffffffffffffffff169060200190929190803573ffffffffffffffffffffffffffffffffffffffff16906020019092919080359060200190929190505050611f11565b005b6108b96004803603604081101561086d57600080fd5b81019080803573ffffffffffffffffffffffffffffffffffffffff169060200190929190803573ffffffffffffffffffffffffffffffffffffffff169060200190929190505050611f22565b6040518082815260200191505060405180910390f35b61091b600480360360408110156108e557600080fd5b81019080803573ffffffffffffffffffffffffffffffffffffffff16906020019092919080359060200190929190505050611f47565b005b60018054600181600116156101000203166002900480601f0160208091040260200160405190810160405280929190818152602001828054600181600116156101000203166002900480156109b35780601f10610988576101008083540402835291602001916109b3565b820191906000526020600020905b81548152906001019060200180831161099657829003601f168201915b505050505081565b600081600760003373ffffffffffffffffffffffffffffffffffffffff1673ffffffffffffffffffffffffffffffffffffffff16815260200190815260200160002060008573ffffffffffffffffffffffffffffffffffffffff1673ffffffffffffffffffffffffffffffffffffffff168152602001908152602001600020819055508273ffffffffffffffffffffffffffffffffffffffff163373ffffffffffffffffffffffffffffffffffffffff167f8c5be1e5ebec7d5bd14f71427d1e84f3dd0314c0f7b2291e5b200ac8c7c3b925846040518082815260200191505060405180910390a36001905092915050565b60055481565b60008073ffffffffffffffffffffffffffffffffffffffff168373ffffffffffffffffffffffffffffffffffffffff161415610b57576040517f08c379a000000000000000000000000000000000000000000000000000000000815260040180806020018281038252600d8152602001807f436f696e2f6e756c6c2d6473740000000000000000000000000000000000000081525060200191505060405180910390fd5b3073ffffffffffffffffffffffffffffffffffffffff168373ffffffffffffffffffffffffffffffffffffffff161415610bf9576040517f08c379a00000000000000000000000000000000000000000000000000000000081526004018080602001828103825260208152602001807f436f696e2f6473742d63616e6e6f742d62652d746869732d636f6e747261637481525060200191505060405180910390fd5b81600660008673ffffffffffffffffffffffffffffffffffffffff1673ffffffffffffffffffffffffffffffffffffffff168152602001908152602001600020541015610cae576040517f08c379a00000000000000000000000000000000000000000000000000000000081526004018080602001828103825260198152602001807f436f696e2f696e73756666696369656e742d62616c616e63650000000000000081525060200191505060405180910390fd5b3373ffffffffffffffffffffffffffffffffffffffff168473ffffffffffffffffffffffffffffffffffffffff1614158015610d8657507fffffffffffffffffffffffffffffffffffffffffffffffffffffffffffffffff600760008673ffffffffffffffffffffffffffffffffffffffff1673ffffffffffffffffffffffffffffffffffffffff16815260200190815260200160002060003373ffffffffffffffffffffffffffffffffffffffff1673ffffffffffffffffffffffffffffffffffffffff1681526020019081526020016000205414155b15610f845781600760008673ffffffffffffffffffffffffffffffffffffffff1673ffffffffffffffffffffffffffffffffffffffff16815260200190815260200160002060003373ffffffffffffffffffffffffffffffffffffffff1673ffffffffffffffffffffffffffffffffffffffff168152602001908152602001600020541015610e7d576040517f08c379a000000000000000000000000000000000000000000000000000000000815260040180806020018281038252601b8152602001807f436f696e2f696e73756666696369656e742d616c6c6f77616e6365000000000081525060200191505060405180910390fd5b610f03600760008673ffffffffffffffffffffffffffffffffffffffff1673ffffffffffffffffffffffffffffffffffffffff16815260200190815260200160002060003373ffffffffffffffffffffffffffffffffffffffff1673ffffffffffffffffffffffffffffffffffffffff1681526020019081526020016000205483611f57565b600760008673ffffffffffffffffffffffffffffffffffffffff1673ffffffffffffffffffffffffffffffffffffffff16815260200190815260200160002060003373ffffffffffffffffffffffffffffffffffffffff1673ffffffffffffffffffffffffffffffffffffffff168152602001908152602001600020819055505b610fcd600660008673ffffffffffffffffffffffffffffffffffffffff1673ffffffffffffffffffffffffffffffffffffffff1681526020019081526020016000205483611f57565b600660008673ffffffffffffffffffffffffffffffffffffffff1673ffffffffffffffffffffffffffffffffffffffff16815260200190815260200160002081905550611059600660008573ffffffffffffffffffffffffffffffffffffffff1673ffffffffffffffffffffffffffffffffffffffff1681526020019081526020016000205483611fda565b600660008573ffffffffffffffffffffffffffffffffffffffff1673ffffffffffffffffffffffffffffffffffffffff168152602001908152602001600020819055508273ffffffffffffffffffffffffffffffffffffffff168473ffffffffffffffffffffffffffffffffffffffff167fddf252ad1be2c89b69c2b068fc378daa952ba7f163c4a11628f55a4df523b3ef846040518082815260200191505060405180910390a3600190509392505050565b60006020528060005260406000206000915090505481565b7fea2aa0a1be11a07ed86d755c93467f4f82362b452371d1ba94d1715123511acb60001b81565b601281565b60016000803373ffffffffffffffffffffffffffffffffffffffff1673ffffffffffffffffffffffffffffffffffffffff1681526020019081526020016000205414611204576040517f08c379a000000000000000000000000000000000000000000000000000000000815260040180806020018281038252601b8152602001807f436f696e2f6163636f756e742d6e6f742d617574686f72697a6564000000000081525060200191505060405180910390fd5b60016000808373ffffffffffffffffffffffffffffffffffffffff1673ffffffffffffffffffffffffffffffffffffffff168152602001908152602001600020819055507f599a298163e1678bb1c676052a8930bf0b8a1261ed6e01b8a2391e55f700010281604051808273ffffffffffffffffffffffffffffffffffffffff1673ffffffffffffffffffffffffffffffffffffffff16815260200191505060405180910390a150565b60095481565b60016000803373ffffffffffffffffffffffffffffffffffffffff1673ffffffffffffffffffffffffffffffffffffffff1681526020019081526020016000205414611368576040517f08c379a000000000000000000000000000000000000000000000000000000000815260040180806020018281038252601b8152602001807f436f696e2f6163636f756e742d6e6f742d617574686f72697a6564000000000081525060200191505060405180910390fd5b6113b1600660008473ffffffffffffffffffffffffffffffffffffffff1673ffffffffffffffffffffffffffffffffffffffff1681526020019081526020016000205482611fda565b600660008473ffffffffffffffffffffffffffffffffffffffff1673ffffffffffffffffffffffffffffffffffffffff1681526020019081526020016000208190555061140060055482611fda565b6005819055508173ffffffffffffffffffffffffffffffffffffffff16600073ffffffffffffffffffffffffffffffffffffffff167fddf252ad1be2c89b69c2b068fc378daa952ba7f163c4a11628f55a4df523b3ef836040518082815260200191505060405180910390a35050565b60038054600181600116156101000203166002900480601f0160208091040260200160405190810160405280929190818152602001828054600181600116156101000203166002900480156115065780601f106114db57610100808354040283529160200191611506565b820191906000526020600020905b8154815290600101906020018083116114e957829003601f168201915b505050505081565b60066020528060005260406000206000915090505481565b60086020528060005260406000206000915090505481565b60006009547fea2aa0a1be11a07ed86d755c93467f4f82362b452371d1ba94d1715123511acb60001b8a8a8a8a8a604051602001808781526020018673ffffffffffffffffffffffffffffffffffffffff1673ffffffffffffffffffffffffffffffffffffffff1681526020018573ffffffffffffffffffffffffffffffffffffffff1673ffffffffffffffffffffffffffffffffffffffff1681526020018481526020018381526020018215151515815260200196505050505050506040516020818303038152906040528051906020012060405160200180807f190100000000000000000000000000000000000000000000000000000000000081525060020183815260200182815260200192505050604051602081830303815290604052805190602001209050600073ffffffffffffffffffffffffffffffffffffffff168973ffffffffffffffffffffffffffffffffffffffff16141561170b576040517f08c379a00000000000000000000000000000000000000000000000000000000081526004018080602001828103825260168152602001807f436f696e2f696e76616c69642d616464726573732d300000000000000000000081525060200191505060405180910390fd5b60018185858560405160008152602001604052604051808581526020018460ff1660ff1681526020018381526020018281526020019450505050506020604051602081039080840390855afa158015611768573d6000803e3d6000fd5b5050506020604051035173ffffffffffffffffffffffffffffffffffffffff168973ffffffffffffffffffffffffffffffffffffffff1614611812576040517f08c379a00000000000000000000000000000000000000000000000000000000081526004018080602001828103825260138152602001807f436f696e2f696e76616c69642d7065726d69740000000000000000000000000081525060200191505060405180910390fd5b60008614806118215750854211155b611893576040517f08c379a00000000000000000000000000000000000000000000000000000000081526004018080602001828103825260138152602001807f436f696e2f7065726d69742d657870697265640000000000000000000000000081525060200191505060405180910390fd5b600860008a73ffffffffffffffffffffffffffffffffffffffff1673ffffffffffffffffffffffffffffffffffffffff1681526020019081526020016000206000815480929190600101919050558714611955576040517f08c379a00000000000000000000000000000000000000000000000000000000081526004018080602001828103825260128152602001807f436f696e2f696e76616c69642d6e6f6e6365000000000000000000000000000081525060200191505060405180910390fd5b600085611963576000611985565b7fffffffffffffffffffffffffffffffffffffffffffffffffffffffffffffffff5b905080600760008c73ffffffffffffffffffffffffffffffffffffffff1673ffffffffffffffffffffffffffffffffffffffff16815260200190815260200160002060008b73ffffffffffffffffffffffffffffffffffffffff1673ffffffffffffffffffffffffffffffffffffffff168152602001908152602001600020819055508873ffffffffffffffffffffffffffffffffffffffff168a73ffffffffffffffffffffffffffffffffffffffff167f8c5be1e5ebec7d5bd14f71427d1e84f3dd0314c0f7b2291e5b200ac8c7c3b925836040518082815260200191505060405180910390a350505050505050505050565b60016000803373ffffffffffffffffffffffffffffffffffffffff1673ffffffffffffffffffffffffffffffffffffffff1681526020019081526020016000205414611b2d576040517f08c379a000000000000000000000000000000000000000000000000000000000815260040180806020018281038252601b8152602001807f436f696e2f6163636f756e742d6e6f742d617574686f72697a6564000000000081525060200191505060405180910390fd5b60008060008373ffffffffffffffffffffffffffffffffffffffff1673ffffffffffffffffffffffffffffffffffffffff168152602001908152602001600020819055507f8834a87e641e9716be4f34527af5d23e11624f1ddeefede6ad75a9acfc31b90381604051808273ffffffffffffffffffffffffffffffffffffffff1673ffffffffffffffffffffffffffffffffffffffff16815260200191505060405180910390a150565b60028054600181600116156101000203166002900480601f016020809104026020016040519081016040528092919081815260200182805460018160011615610100020316600290048015611c6d5780601f10611c4257610100808354040283529160200191611c6d565b820191906000526020600020905b815481529060010190602001808311611c5057829003601f168201915b505050505081565b60045481565b60016000803373ffffffffffffffffffffffffffffffffffffffff1673ffffffffffffffffffffffffffffffffffffffff1681526020019081526020016000205414611d2f576040517f08c379a000000000000000000000000000000000000000000000000000000000815260040180806020018281038252601b8152602001807f436f696e2f6163636f756e742d6e6f742d617574686f72697a6564000000000081525060200191505060405180910390fd5b80600660008473ffffffffffffffffffffffffffffffffffffffff1673ffffffffffffffffffffffffffffffffffffffff168152602001908152602001600020541015611de4576040517f08c379a00000000000000000000000000000000000000000000000000000000081526004018080602001828103825260198152602001807f436f696e2f696e73756666696369656e742d62616c616e63650000000000000081525060200191505060405180910390fd5b611e2d600660008473ffffffffffffffffffffffffffffffffffffffff1673ffffffffffffffffffffffffffffffffffffffff1681526020019081526020016000205482611f57565b600660008473ffffffffffffffffffffffffffffffffffffffff1673ffffffffffffffffffffffffffffffffffffffff16815260200190815260200160002081905550611e7c60055482611f57565b600581905550600073ffffffffffffffffffffffffffffffffffffffff168273ffffffffffffffffffffffffffffffffffffffff167fddf252ad1be2c89b69c2b068fc378daa952ba7f163c4a11628f55a4df523b3ef836040518082815260200191505060405180910390a35050565b6000611ef9338484610ab3565b905092915050565b611f0c338383610ab3565b505050565b611f1c838383610ab3565b50505050565b6007602052816000526040600020602052806000526040600020600091509150505481565b611f52823383610ab3565b505050565b6000828284039150811115611fd4576040517f08c379a00000000000000000000000000000000000000000000000000000000081526004018080602001828103825260128152602001807f436f696e2f7375622d756e646572666c6f77000000000000000000000000000081525060200191505060405180910390fd5b92915050565b6000828284019150811015612057576040517f08c379a00000000000000000000000000000000000000000000000000000000081526004018080602001828103825260118152602001807f436f696e2f6164642d6f766572666c6f7700000000000000000000000000000081525060200191505060405180910390fd5b9291505056fea264697066735822122047b63dccbe9f823f5d1d2d7b4ee6ee43f07b44353c89042a7cc0c04376e87a1b64736f6c63430006070033454950373132446f6d61696e28737472696e67206e616d652c737472696e672076657273696f6e2c75696e7432353620636861696e49642c6164647265737320766572696679696e67436f6e747261637429",
  "immutableReferences": {},
  "source": "// Copyright (C) 2017, 2018, 2019 dbrock, rain, mrchico\n\n// This program is free software: you can redistribute it and/or modify\n// it under the terms of the GNU Affero General Public License as published by\n// the Free Software Foundation, either version 3 of the License, or\n// (at your option) any later version.\n//\n// This program is distributed in the hope that it will be useful,\n// but WITHOUT ANY WARRANTY; without even the implied warranty of\n// MERCHANTABILITY or FITNESS FOR A PARTICULAR PURPOSE.  See the\n// GNU Affero General Public License for more details.\n//\n// You should have received a copy of the GNU Affero General Public License\n// along with this program.  If not, see <https://www.gnu.org/licenses/>.\n\npragma solidity 0.6.7;\n\n// Core ERC20 contract for minting xBTC Stablecoin\n\ncontract Coin {\n    // --- Auth ---\n    mapping (address => uint256) public authorizedAccounts;\n    /**\n     * @notice Add auth to an account\n     * @param account Account to add auth to\n     */\n    function addAuthorization(address account) external isAuthorized {\n        authorizedAccounts[account] = 1;\n        emit AddAuthorization(account);\n    }\n    /**\n     * @notice Remove auth from an account\n     * @param account Account to remove auth from\n     */\n    function removeAuthorization(address account) external isAuthorized {\n        authorizedAccounts[account] = 0;\n        emit RemoveAuthorization(account);\n    }\n    /**\n    * @notice Checks whether msg.sender can call an authed function\n    **/\n    modifier isAuthorized {\n        require(authorizedAccounts[msg.sender] == 1, \"Coin/account-not-authorized\");\n        _;\n    }\n\n    // --- ERC20 Data ---\n    // The name of this coin\n    string  public name;\n    // The symbol of this coin\n    string  public symbol;\n    // The version of this Coin contract\n    string  public version = \"1\";\n    // The number of decimals that this coin has\n    uint8   public constant decimals = 18;\n\n    // The id of the chain where this coin was deployed\n    uint256 public chainId;\n    // The total supply of this coin\n    uint256 public totalSupply;\n\n    // Mapping of coin balances\n    mapping (address => uint256)                      public balanceOf;\n    // Mapping of allowances\n    mapping (address => mapping (address => uint256)) public allowance;\n    // Mapping of nonces used for permits\n    mapping (address => uint256)                      public nonces;\n\n    // --- Events ---\n    event AddAuthorization(address account);\n    event RemoveAuthorization(address account);\n    event Approval(address indexed src, address indexed guy, uint256 amount);\n    event Transfer(address indexed src, address indexed dst, uint256 amount);\n\n    // --- Math ---\n    function addition(uint256 x, uint256 y) internal pure returns (uint256 z) {\n        require((z = x + y) >= x, \"Coin/add-overflow\");\n    }\n    function subtract(uint256 x, uint256 y) internal pure returns (uint256 z) {\n        require((z = x - y) <= x, \"Coin/sub-underflow\");\n    }\n\n    // --- EIP712 niceties ---\n    bytes32 public DOMAIN_SEPARATOR;\n    // bytes32 public constant PERMIT_TYPEHASH = keccak256(\"Permit(address holder,address spender,uint256 nonce,uint256 expiry,bool allowed)\");\n    bytes32 public constant PERMIT_TYPEHASH = 0xea2aa0a1be11a07ed86d755c93467f4f82362b452371d1ba94d1715123511acb;\n\n    // defined with chainId 31 for BRAIN-STABLECOIN\n    constructor(\n        string memory name_,\n        string memory symbol_,\n        uint256 chainId_\n      ) public {\n        authorizedAccounts[msg.sender] = 1;\n        name          = name_;\n        symbol        = symbol_;\n        chainId       = chainId_;\n        DOMAIN_SEPARATOR = keccak256(abi.encode(\n            keccak256(\"EIP712Domain(string name,string version,uint256 chainId,address verifyingContract)\"),\n            keccak256(bytes(name)),\n            keccak256(bytes(version)),\n            chainId,\n            address(this)\n        ));\n        emit AddAuthorization(msg.sender);\n    }\n\n    // --- Token ---\n    /*\n    * @notice Transfer coins to another address\n    * @param dst The address to transfer coins to\n    * @param amount The amount of coins to transfer\n    */\n    function transfer(address dst, uint256 amount) external returns (bool) {\n        return transferFrom(msg.sender, dst, amount);\n    }\n    /*\n    * @notice Transfer coins from a source address to a destination address (if allowed)\n    * @param src The address from which to transfer coins\n    * @param dst The address that will receive the coins\n    * @param amount The amount of coins to transfer\n    */\n    function transferFrom(address src, address dst, uint256 amount)\n        public returns (bool)\n    {\n        require(dst != address(0), \"Coin/null-dst\");\n        require(dst != address(this), \"Coin/dst-cannot-be-this-contract\");\n        require(balanceOf[src] >= amount, \"Coin/insufficient-balance\");\n        if (src != msg.sender && allowance[src][msg.sender] != uint256(-1)) {\n            require(allowance[src][msg.sender] >= amount, \"Coin/insufficient-allowance\");\n            allowance[src][msg.sender] = subtract(allowance[src][msg.sender], amount);\n        }\n        balanceOf[src] = subtract(balanceOf[src], amount);\n        balanceOf[dst] = addition(balanceOf[dst], amount);\n        emit Transfer(src, dst, amount);\n        return true;\n    }\n    /*\n    * @notice Mint new coins\n    * @param usr The address for which to mint coins\n    * @param amount The amount of coins to mint\n    */\n    function mint(address usr, uint256 amount) external isAuthorized {\n        balanceOf[usr] = addition(balanceOf[usr], amount);\n        totalSupply    = addition(totalSupply, amount);\n        emit Transfer(address(0), usr, amount);\n    }\n    /*\n    * @notice Burn coins from an address\n    * @param usr The address that will have its coins burned\n    * @param amount The amount of coins to burn\n    */\n    function burn(address usr, uint256 amount) external isAuthorized {\n        require(balanceOf[usr] >= amount, \"Coin/insufficient-balance\");\n        balanceOf[usr] = subtract(balanceOf[usr], amount);\n        totalSupply    = subtract(totalSupply, amount);\n        emit Transfer(usr, address(0), amount);\n    }\n    /*\n    * @notice Change the transfer/burn allowance that another address has on your behalf\n    * @param usr The address whose allowance is changed\n    * @param amount The new total allowance for the usr\n    */\n    function approve(address usr, uint256 amount) external returns (bool) {\n        allowance[msg.sender][usr] = amount;\n        emit Approval(msg.sender, usr, amount);\n        return true;\n    }\n\n    // --- Alias ---\n    /*\n    * @notice Send coins to another address\n    * @param usr The address to send tokens to\n    * @param amount The amount of coins to send\n    */\n    function push(address usr, uint256 amount) external {\n        transferFrom(msg.sender, usr, amount);\n    }\n    /*\n    * @notice Transfer coins from another address to your address\n    * @param usr The address to take coins from\n    * @param amount The amount of coins to take from the usr\n    */\n    function pull(address usr, uint256 amount) external {\n        transferFrom(usr, msg.sender, amount);\n    }\n    /*\n    * @notice Transfer coins from another address to a destination address (if allowed)\n    * @param src The address to transfer coins from\n    * @param dst The address to transfer coins to\n    * @param amount The amount of coins to transfer\n    */\n    function move(address src, address dst, uint256 amount) external {\n        transferFrom(src, dst, amount);\n    }\n\n    // --- Approve by signature ---\n    /*\n    * @notice Submit a signed message that modifies an allowance for a specific address\n    */\n    function permit(\n        address holder,\n        address spender,\n        uint256 nonce,\n        uint256 expiry,\n        bool allowed,\n        uint8 v,\n        bytes32 r,\n        bytes32 s\n    ) external\n    {\n        bytes32 digest =\n            keccak256(abi.encodePacked(\n                \"\\x19\\x01\",\n                DOMAIN_SEPARATOR,\n                keccak256(abi.encode(PERMIT_TYPEHASH,\n                                     holder,\n                                     spender,\n                                     nonce,\n                                     expiry,\n                                     allowed))\n        ));\n\n        require(holder != address(0), \"Coin/invalid-address-0\");\n        require(holder == ecrecover(digest, v, r, s), \"Coin/invalid-permit\");\n        require(expiry == 0 || now <= expiry, \"Coin/permit-expired\");\n        require(nonce == nonces[holder]++, \"Coin/invalid-nonce\");\n        uint256 wad = allowed ? uint256(-1) : 0;\n        allowance[holder][spender] = wad;\n        emit Approval(holder, spender, wad);\n    }\n}\n",
  "sourcePath": "/Users/dm/Documents/wishbone/BrainDAO/contracts/coin.sol",
  "compiler": {
    "name": "solc",
    "version": "0.6.7+commit.b8d736ae.Emscripten.clang"
  },
  "schemaVersion": "3.4.3",
  "updatedAt": "2022-02-01T11:14:03.268Z",
  "networkType": "ethereum",
  "devdoc": {
    "methods": {
      "addAuthorization(address)": {
        "params": {
          "account": "Account to add auth to"
        }
      },
      "removeAuthorization(address)": {
        "params": {
          "account": "Account to remove auth from"
        }
      }
    }
  },
  "userdoc": {
    "methods": {
      "addAuthorization(address)": {
        "notice": "Add auth to an account"
      },
      "removeAuthorization(address)": {
        "notice": "Remove auth from an account"
      }
    }
  }
}