{
  "contractName": "CoinLike",
  "abi": [
    {
      "inputs": [
        {
          "internalType": "address",
          "name": "",
          "type": "address"
        },
        {
          "internalType": "address",
          "name": "",
          "type": "address"
        }
      ],
      "name": "allowance",
      "outputs": [
        {
          "internalType": "uint256",
          "name": "",
          "type": "uint256"
        }
      ],
      "stateMutability": "view",
      "type": "function"
    },
    {
      "inputs": [
        {
          "internalType": "address",
          "name": "",
          "type": "address"
        }
      ],
      "name": "balanceOf",
      "outputs": [
        {
          "internalType": "uint256",
          "name": "",
          "type": "uint256"
        }
      ],
      "stateMutability": "view",
      "type": "function"
    },
    {
      "inputs": [
        {
          "internalType": "address",
          "name": "",
          "type": "address"
        }
      ],
      "name": "nonces",
      "outputs": [
        {
          "internalType": "uint256",
          "name": "",
          "type": "uint256"
        }
      ],
      "stateMutability": "view",
      "type": "function"
    },
    {
      "inputs": [
        {
          "internalType": "address",
          "name": "account",
          "type": "address"
        }
      ],
      "name": "addAuthorization",
      "outputs": [],
      "stateMutability": "nonpayable",
      "type": "function"
    },
    {
      "inputs": [
        {
          "internalType": "address",
          "name": "account",
          "type": "address"
        }
      ],
      "name": "removeAuthorization",
      "outputs": [],
      "stateMutability": "nonpayable",
      "type": "function"
    },
    {
      "inputs": [
        {
          "internalType": "address",
          "name": "dst",
          "type": "address"
        },
        {
          "internalType": "uint256",
          "name": "amount",
          "type": "uint256"
        }
      ],
      "name": "transfer",
      "outputs": [
        {
          "internalType": "bool",
          "name": "",
          "type": "bool"
        }
      ],
      "stateMutability": "nonpayable",
      "type": "function"
    },
    {
      "inputs": [
        {
          "internalType": "address",
          "name": "src",
          "type": "address"
        },
        {
          "internalType": "address",
          "name": "dst",
          "type": "address"
        },
        {
          "internalType": "uint256",
          "name": "amount",
          "type": "uint256"
        }
      ],
      "name": "transferFrom",
      "outputs": [
        {
          "internalType": "bool",
          "name": "",
          "type": "bool"
        }
      ],
      "stateMutability": "nonpayable",
      "type": "function"
    },
    {
      "inputs": [
        {
          "internalType": "address",
          "name": "usr",
          "type": "address"
        },
        {
          "internalType": "uint256",
          "name": "amount",
          "type": "uint256"
        }
      ],
      "name": "mint",
      "outputs": [],
      "stateMutability": "nonpayable",
      "type": "function"
    },
    {
      "inputs": [
        {
          "internalType": "address",
          "name": "usr",
          "type": "address"
        },
        {
          "internalType": "uint256",
          "name": "amount",
          "type": "uint256"
        }
      ],
      "name": "burn",
      "outputs": [],
      "stateMutability": "nonpayable",
      "type": "function"
    },
    {
      "inputs": [
        {
          "internalType": "address",
          "name": "usr",
          "type": "address"
        },
        {
          "internalType": "uint256",
          "name": "amount",
          "type": "uint256"
        }
      ],
      "name": "approve",
      "outputs": [
        {
          "internalType": "bool",
          "name": "",
          "type": "bool"
        }
      ],
      "stateMutability": "nonpayable",
      "type": "function"
    },
    {
      "inputs": [
        {
          "internalType": "address",
          "name": "usr",
          "type": "address"
        },
        {
          "internalType": "uint256",
          "name": "amount",
          "type": "uint256"
        }
      ],
      "name": "push",
      "outputs": [],
      "stateMutability": "nonpayable",
      "type": "function"
    },
    {
      "inputs": [
        {
          "internalType": "address",
          "name": "usr",
          "type": "address"
        },
        {
          "internalType": "uint256",
          "name": "amount",
          "type": "uint256"
        }
      ],
      "name": "pull",
      "outputs": [],
      "stateMutability": "nonpayable",
      "type": "function"
    },
    {
      "inputs": [
        {
          "internalType": "address",
          "name": "src",
          "type": "address"
        },
        {
          "internalType": "address",
          "name": "dst",
          "type": "address"
        },
        {
          "internalType": "uint256",
          "name": "amount",
          "type": "uint256"
        }
      ],
      "name": "move",
      "outputs": [],
      "stateMutability": "nonpayable",
      "type": "function"
    },
    {
      "inputs": [
        {
          "internalType": "address",
          "name": "holder",
          "type": "address"
        },
        {
          "internalType": "address",
          "name": "spender",
          "type": "address"
        },
        {
          "internalType": "uint256",
          "name": "nonce",
          "type": "uint256"
        },
        {
          "internalType": "uint256",
          "name": "expiry",
          "type": "uint256"
        },
        {
          "internalType": "bool",
          "name": "allowed",
          "type": "bool"
        },
        {
          "internalType": "uint8",
          "name": "v",
          "type": "uint8"
        },
        {
          "internalType": "bytes32",
          "name": "r",
          "type": "bytes32"
        },
        {
          "internalType": "bytes32",
          "name": "s",
          "type": "bytes32"
        }
      ],
      "name": "permit",
      "outputs": [],
      "stateMutability": "nonpayable",
      "type": "function"
    }
  ],
  "bytecode": "0x608060405234801561001057600080fd5b50610706806100206000396000f3fe608060405234801561001057600080fd5b50600436106100ea5760003560e01c806394f3f81d1161008c578063b753a98c11610066578063b753a98c146104bb578063bb35783b14610509578063dd62ed3e14610577578063f2d5d56b146105ef576100ea565b806394f3f81d146103c35780639dc29fac14610407578063a9059cbb14610455576100ea565b806340c10f19116100c857806340c10f191461021f57806370a082311461026d5780637ecebe00146102c55780638fcbaf0c1461031d576100ea565b8063095ea7b3146100ef57806323b872dd1461015557806335b28153146101db575b600080fd5b61013b6004803603604081101561010557600080fd5b81019080803573ffffffffffffffffffffffffffffffffffffffff1690602001909291908035906020019092919050505061063d565b604051808215151515815260200191505060405180910390f35b6101c16004803603606081101561016b57600080fd5b81019080803573ffffffffffffffffffffffffffffffffffffffff169060200190929190803573ffffffffffffffffffffffffffffffffffffffff16906020019092919080359060200190929190505050610645565b604051808215151515815260200191505060405180910390f35b61021d600480360360208110156101f157600080fd5b81019080803573ffffffffffffffffffffffffffffffffffffffff16906020019092919050505061064e565b005b61026b6004803603604081101561023557600080fd5b81019080803573ffffffffffffffffffffffffffffffffffffffff16906020019092919080359060200190929190505050610651565b005b6102af6004803603602081101561028357600080fd5b81019080803573ffffffffffffffffffffffffffffffffffffffff169060200190929190505050610655565b6040518082815260200191505060405180910390f35b610307600480360360208110156102db57600080fd5b81019080803573ffffffffffffffffffffffffffffffffffffffff16906020019092919050505061066d565b6040518082815260200191505060405180910390f35b6103c1600480360361010081101561033457600080fd5b81019080803573ffffffffffffffffffffffffffffffffffffffff169060200190929190803573ffffffffffffffffffffffffffffffffffffffff1690602001909291908035906020019092919080359060200190929190803515159060200190929190803560ff1690602001909291908035906020019092919080359060200190929190505050610685565b005b610405600480360360208110156103d957600080fd5b81019080803573ffffffffffffffffffffffffffffffffffffffff16906020019092919050505061068f565b005b6104536004803603604081101561041d57600080fd5b81019080803573ffffffffffffffffffffffffffffffffffffffff16906020019092919080359060200190929190505050610692565b005b6104a16004803603604081101561046b57600080fd5b81019080803573ffffffffffffffffffffffffffffffffffffffff16906020019092919080359060200190929190505050610696565b604051808215151515815260200191505060405180910390f35b610507600480360360408110156104d157600080fd5b81019080803573ffffffffffffffffffffffffffffffffffffffff1690602001909291908035906020019092919050505061069e565b005b6105756004803603606081101561051f57600080fd5b81019080803573ffffffffffffffffffffffffffffffffffffffff169060200190929190803573ffffffffffffffffffffffffffffffffffffffff169060200190929190803590602001909291905050506106a2565b005b6105d96004803603604081101561058d57600080fd5b81019080803573ffffffffffffffffffffffffffffffffffffffff169060200190929190803573ffffffffffffffffffffffffffffffffffffffff1690602001909291905050506106a7565b6040518082815260200191505060405180910390f35b61063b6004803603604081101561060557600080fd5b81019080803573ffffffffffffffffffffffffffffffffffffffff169060200190929190803590602001909291905050506106cc565b005b600092915050565b60009392505050565b50565b5050565b60006020528060005260406000206000915090505481565b60026020528060005260406000206000915090505481565b5050505050505050565b50565b5050565b600092915050565b5050565b505050565b6001602052816000526040600020602052806000526040600020600091509150505481565b505056fea26469706673582212205787ba8738d16c2dc13ec86187eb759fabad24e2067ee07f32a1f3d2b893e0dc64736f6c63430006070033",
  "immutableReferences": {},
  "source": "pragma solidity 0.6.7;\n\nimport \"./dsmath.sol\";\n\n\ncontract CoinLike{\n  mapping (address => uint256)                      public balanceOf;\n  // Mapping of allowances\n  mapping (address => mapping (address => uint256)) public allowance;\n  // Mapping of nonces used for permits\n  mapping (address => uint256)                      public nonces;\n  function addAuthorization(address account) external {}\n  function removeAuthorization(address account) external {}\n  function transfer(address dst, uint256 amount) external returns (bool) {}\n  function transferFrom(address src, address dst, uint256 amount)\n        public returns (bool){}\n  function mint(address usr, uint256 amount) external {}\n  function burn(address usr, uint256 amount) external {}\n  function approve(address usr, uint256 amount) external returns (bool) {}\n  function push(address usr, uint256 amount) external {}\n  function pull(address usr, uint256 amount) external {}\n  function move(address src, address dst, uint256 amount) external {}\n  function permit(\n        address holder,\n        address spender,\n        uint256 nonce,\n        uint256 expiry,\n        bool allowed,\n        uint8 v,\n        bytes32 r,\n        bytes32 s\n    ) external\n    {}\n}\n\ncontract OracleLike{\n  function addAuthorization(address account) external {}\n  function removeAuthorization(address account) external {}\n  function setCollateralRatio(uint256 ratio) external {}\n  function peekCollateralRatio() external returns(uint256) {}\n  function peekBSMA() external returns(uint256){}\n  function peekBX() external returns(uint256){}\n\n\n}\n\ncontract TaxCollectorLike{\n  function updateAR() public returns (uint256) {}\n  function updateAccumulatedRate() public returns (uint128) {}\n}\ncontract CDPTracker is DSMath {\n\naddress Oracle;\naddress Coin;\nuint256 dust; //Minimum amount of collateral deposited\nuint256 Interest; // Interest rate set by governance. Applies from next calculation after rate is set.\n\nuint256 totalDebt;\nuint256 public globalDebt;\nuint256 totalSurplus;\nuint256 public lastAR; // last AR for system surplus calculation.\nuint256 RATE = 1*10**27; // RAY - base value of AR.\nuint256 public INIT;\n\nuint128 globalStabilityFee= 1000000564701133626865910626; //[ray] per second rate, 5% per day setting for testing.\n// TaxCollectorLike TC = TaxCollectorLike(0xd275F1D2fceB349dF85c7DF7ED7572EE8ccdf20f); // RSK testnet address\nTaxCollectorLike TC = TaxCollectorLike(0xFB1dFE7b4c479fc6383e21d42c51127bFcB44b3F);\n// mapping (address => uint256) LastupdateTime;\n// mapping (address => uint128) originRate;\n\nstruct SAFE {\n    // Total amount of collateral locked in a SAFE\n      uint256 collateral;\n      // Total amount of debt generated by a SAFE, including interest\n      uint256 debtIssued;  // [wad]\n      // last interest rate update timestamp\n      uint256 updateTime;     // [wad]\n      // global AR at last update\n      uint256 originRate; // [RAY]\n  }\n\nmapping (address=>uint256) public collateral; // collateral deposited by UserAddress\nmapping (address=>uint256) public debtIssued; // debt issued by UserAddress\n// mapping (address=>uint256) public interestDue; // interest due by UserAddress\nmapping (address=>uint256) public initTime;\nmapping (address => SAFE) public safes;\n\nuint256 LastupdateTime;\nOracleLike Orc;\nCoinLike coin;\n\nconstructor(address ORC, uint256 DUST) public {\n  Oracle = ORC;\n  dust = DUST;\n  authorizedAccounts[msg.sender] = 1;\n  INIT = block.timestamp;\n}\nevent AddAuthorization(address account);\nevent RemoveAuthorization(address account);\n\nmapping (address => uint256) public authorizedAccounts;\n/**\n * @notice Add auth to an account\n * @param account Account to add auth to\n */\nfunction addAuthorization(address account) external isAuthorized {\n    authorizedAccounts[account] = 1;\n    emit AddAuthorization(account);\n}\n/**\n * @notice Remove auth from an account\n * @param account Account to remove auth from\n */\nfunction removeAuthorization(address account) external isAuthorized {\n    authorizedAccounts[account] = 0;\n    emit RemoveAuthorization(account);\n}\n/**\n* @notice Checks whether msg.sender can call an authed function\n**/\nmodifier isAuthorized {\n    require(authorizedAccounts[msg.sender] == 1, \"Coin/account-not-authorized\");\n    _;\n}\n\n\n\n// math\nfunction add(uint256 x, int256 y) internal pure returns (uint256 z) {\n    z = x + uint256(y);\n    require(y >= 0 || z <= x, \"SAFEEngine/add-uint-int-overflow\");\n    require(y <= 0 || z >= x, \"SAFEEngine/add-uint-int-underflow\");\n}\nfunction add(int256 x, int256 y) internal pure returns (int256 z) {\n    z = x + y;\n    require(y >= 0 || z <= x, \"SAFEEngine/add-int-int-overflow\");\n    require(y <= 0 || z >= x, \"SAFEEngine/add-int-int-underflow\");\n}\nfunction sub(uint256 x, int256 y) internal pure returns (uint256 z) {\n    z = x - uint256(y);\n    require(y <= 0 || z <= x, \"SAFEEngine/sub-uint-int-overflow\");\n    require(y >= 0 || z >= x, \"SAFEEngine/sub-uint-int-underflow\");\n}\nfunction sub(int256 x, int256 y) internal pure returns (int256 z) {\n    z = x - y;\n    require(y <= 0 || z <= x, \"SAFEEngine/sub-int-int-overflow\");\n    require(y >= 0 || z >= x, \"SAFEEngine/sub-int-int-underflow\");\n}\nfunction mul(uint256 x, int256 y) internal pure returns (int256 z) {\n    z = int256(x) * y;\n    require(int256(x) >= 0, \"SAFEEngine/mul-uint-int-null-x\");\n    require(y == 0 || z / y == int256(x), \"SAFEEngine/mul-uint-int-overflow\");\n}\nfunction mul(uint x, uint y) internal pure returns (uint z) {\n    require(y == 0 || (z = x * y) / y == x);\n}\n\nfunction add(uint256 x, uint256 y) internal pure returns (uint256 z) {\n    require((z = x + y) >= x, \"SAFEEngine/add-uint-uint-overflow\");\n}\nfunction sub(uint256 x, uint256 y) internal pure returns (uint256 z) {\n    require((z = x - y) <= x, \"SAFEEngine/sub-uint-uint-underflow\");\n}\n\n\nfunction setCoin(address STABLE) external isAuthorized {\n  Coin = STABLE;\n}\n\n// Called by Executor.sol when governance votes to change interest rate.\nfunction setInterest(uint128 StabilityFee) external isAuthorized {\n  globalStabilityFee = StabilityFee;\n}\n\n// Function called by TaxCollector Contract\nfunction newAR(uint256 newRATE) external isAuthorized {\n  RATE = newRATE;\n}\n\n// Function called by TaxCollector Contract\nfunction updateGlobalDebt(uint256 newDebt) external isAuthorized {\n  globalDebt = newDebt;\n}\n\nfunction gsafes(address account, string memory entry1) public returns(uint256){\n  bytes memory entry = bytes(entry1);\n  SAFE memory newsafe = safes[account];\n  if(keccak256(entry) == keccak256(\"collateral\")){\n    return newsafe.collateral;\n  }\n  if(keccak256(entry) == keccak256(\"debtissued\")){\n    return newsafe.debtIssued;\n  }\n  if(keccak256(entry) == keccak256(\"updatetime\")){\n    return newsafe.updateTime;\n  }      // [wad]\n  if(keccak256(entry) == keccak256(\"originrate\")){\n    return newsafe.originRate;\n  }\n}\n// Function called by TaxCollector Contract\nfunction issueSurplus(uint256 amount, address treasury) external isAuthorized {\n    coin = CoinLike(Coin);\n    coin.mint(treasury, amount);\n  }\n\n// Actual function with proper time.\nfunction updateUserDebt(address user) public returns(uint256) {\n  // uint256 timeDifference = sub(now, LastupdateTime[user]);\n  uint256 newDebt = safes[user].debtIssued;\n  if (now >= safes[user].updateTime) {\n  uint256 originalrate = safes[user].originRate;\n  uint128 newrate= TC.updateAccumulatedRate();\n  // uint256 newDebt = rmul(debtIssued[user], rpow(accumulatedRate, timeDifference));\n  // uint256 newDebt = ((NewRate/OriginRate)*safes[msg.sender].debtIssued)/10000;\n  uint256 newDebt = rmul(rdiv(newrate, originalrate), safes[user].debtIssued);\n  safes[user].originRate = newrate;\n  uint256 newTime = now;\n  // safes[user].debtIssued = newDebt;\n  // LastupdateTime[user] - newTime;\n  safes[user].debtIssued = newDebt;\n  safes[user].updateTime = newTime;\n}\n  return newDebt;\n\n}\n\n// test - hardcoded value of time elapsed.\nfunction updateAccumulatedRate0() public returns (uint256) {\n  uint64 powertime = 6; //[wad] replace with time gap since last update\n  //uint64 powertime = block.timestamp - INIT\n  uint256 rateupdate = rpow(globalStabilityFee, powertime);\n  RATE=uint128(rateupdate);\n  return RATE;\n  }\n\n// test - hardcoded value of time elapsed.\nfunction updateAccumulatedRate1() public returns (uint256) {\n  uint64 powertime = 86406; // set to 1 day by default. replace with time gap since last update using\n  //uint64 powertime = block.timestamp - INIT\n  uint256 rateupdate = rpow(globalStabilityFee, powertime);\n  RATE=uint128(rateupdate);\n  return RATE;\n  }\n\n// Test function\nfunction updateUserDebt1(address user) public returns(uint256) {\n  // uint256 timeDifference = sub(now, LastupdateTime[user]);\n  // uint256 NewRate = 101000000000;\n  // uint256 OriginRate = 1000000000;\n  uint256 originalrate = safes[msg.sender].originRate;\n  // uint256 newrate= TC.updateAR();\n  uint256 newrate = updateAccumulatedRate0();\n  // uint256 newDebt = rmul(debtIssued[user], rpow(accumulatedRate, timeDifference));\n  uint256 newDebt = rmul(rdiv(newrate, originalrate), safes[msg.sender].debtIssued);\n  //uint256 newTime = now;\n  safes[user].debtIssued = newDebt;\n  // LastupdateTime[user] = newTime;\n  safes[user].originRate = newrate;\n  uint256 newTime = now;\n  safes[user].updateTime = newTime;\n  return newDebt;\n}\n\n// Test function\nfunction updateUserDebt2(address user) public returns(uint256) {\n  // uint256 timeDifference = sub(now, LastupdateTime[user]);\n  // uint256 NewRate = 101000000000;\n  // uint256 OriginRate = 1000000000;\n  uint256 originalrate = safes[msg.sender].originRate;\n  // uint256 newrate= TC.updateAR();\n  uint256 newrate = updateAccumulatedRate1();\n  // uint256 newDebt = rmul(debtIssued[user], rpow(accumulatedRate, timeDifference));\n  uint256 newDebt = rmul(rdiv(newrate, originalrate), safes[msg.sender].debtIssued);\n  //uint256 newTime = now;\n  safes[user].debtIssued = newDebt;\n  // LastupdateTime[user] = newTime;\n  safes[user].originRate = newrate;\n  uint256 newTime = now;\n  safes[user].updateTime = newTime;\n  return newDebt;\n}\n\n// compute debt limit based on collateral deposited\nfunction computeDebtLimit(address _oracle) internal returns (uint256){\n   Orc = OracleLike(_oracle);\n   uint256 _collateral = safes[msg.sender].collateral; //Amount of RBTC Collateral in SAFE\n   uint256 currentBX = Orc.peekBX();\n   uint256 currentCollateralRatio = Orc.peekCollateralRatio(); //12500 by default, to be divided by 100\n   uint256 currentDebtLimit = _collateral * currentCollateralRatio / 100; // 1 xBTC can be minted (borrowed) for every 1.25 BTC collateral by default.\n   return currentDebtLimit;\n }\n\n// compute redeem price in BTC for each xBTC\n function computeRedeemPrice(address _oracle) internal returns (uint256){\n   Orc = OracleLike(_oracle);\n   uint256 currentBX = Orc.peekBX(); //BTC-USD exchange rate\n   uint256 currentBSMA = Orc.peekBSMA(); //Current USD redemption rate of 1 xBTC\n   uint256 currentRedeemPrice = (currentBSMA*1000000)/currentBX; //10e6 multiplier to preserve precision of fraction.\n   return currentRedeemPrice;\n }\n\n function sendRBTC(address payable _to, uint256 amount) internal {\n        // Call returns a boolean value indicating success or failure.\n        (bool sent, bytes memory data) = _to.call{value: amount}(\"\");\n        require(sent, \"Failed to send RBTC\");\n    }\n\n // deposit RBTC collateral in safe\n function depositCollateral() public payable {\n    require(msg.value>=dust, 'CDPTracker/non-dusty-collateral-required');\n    safes[msg.sender].collateral = (safes[msg.sender].collateral) + msg.value;\n  }\n\n// take out xBTC debt\n  function takeDebt(uint256 amount) public {\n    safes[msg.sender].originRate = updateAccumulatedRate0();\n    uint256 debtLimit = computeDebtLimit(Oracle);\n    uint256 issuedDebt = updateUserDebt1(msg.sender);\n    uint256 availableDebt = debtLimit - issuedDebt;\n    require(availableDebt >= amount, \"CDPTracker/insufficient-collateral-to-mint-stables\"); //collateral sufficiency check\n    coin = CoinLike(Coin);\n    safes[msg.sender].debtIssued = add(safes[msg.sender].debtIssued, amount);\n    globalDebt += amount;\n    coin.mint(msg.sender, amount);\n    safes[msg.sender].updateTime = now;\n\n  }\n\n// return xBTC debt\n  function returnDebt(uint256 amount) public {\n    uint256 issuedDebt = updateUserDebt2(msg.sender); // update balance to include interest. Replace with updateUserDebt in production.\n    require(issuedDebt >= amount, \"CDPTracker/exceeds-debt-amount\");\n    coin = CoinLike(Coin);\n    safes[msg.sender].debtIssued = sub(safes[msg.sender].debtIssued, amount);\n    globalDebt -= amount;\n    coin.burn(msg.sender, amount);\n  }\n\n// redeem xBTC stablecoins for RBTC collateral at current redemption rate. Maintains price stability\n  function redeemCoins(uint256 amount) public payable {\n    coin = CoinLike(Coin);\n    require(coin.balanceOf(msg.sender)>=amount, \"CDPTracker/exceeds-balance\");\n    uint256 redemptionRatePerCoin = computeRedeemPrice(Oracle);\n    uint256 totalRedemptionAmount = mul(redemptionRatePerCoin, amount)/1000000;\n    coin.burn(msg.sender, amount);\n    globalDebt -= amount;\n    sendRBTC(msg.sender, totalRedemptionAmount);\n  }\n\n// withdraw collateral after debts have been repaid\n  function removeCollateral(uint256 amount) public payable {\n     require(amount>=dust, 'CDPTracker/non-dusty-collateral-required');\n     uint256 _collateral = safes[msg.sender].collateral; //Amount of RBTC Collateral in CDP\n     require(amount<=_collateral, 'CDPTracker/amount-exceeds-deposits');\n     uint256 issuedDebt = safes[msg.sender].debtIssued;\n     require(issuedDebt==0, 'CDPTracker/debt-not-repaid');\n     safes[msg.sender].collateral = (safes[msg.sender].collateral) - amount;\n     sendRBTC(msg.sender, amount);\n   }\n\n}\n",
  "sourcePath": "/Users/dm/Documents/jojoba/hohoba/XSS/contracts/CDPTracker.sol",
  "compiler": {
    "name": "solc",
    "version": "0.6.7+commit.b8d736ae.Emscripten.clang"
  },
  "schemaVersion": "3.4.3",
  "updatedAt": "2022-06-02T18:35:24.322Z",
  "devdoc": {
    "methods": {}
  },
  "userdoc": {
    "methods": {}
  }
}