{
  "contractName": "OracleLike",
  "abi": [
    {
      "inputs": [
        {
          "internalType": "address",
          "name": "account",
          "type": "address"
        }
      ],
      "name": "addAuthorization",
      "outputs": [],
      "stateMutability": "nonpayable",
      "type": "function"
    },
    {
      "inputs": [
        {
          "internalType": "address",
          "name": "account",
          "type": "address"
        }
      ],
      "name": "removeAuthorization",
      "outputs": [],
      "stateMutability": "nonpayable",
      "type": "function"
    },
    {
      "inputs": [
        {
          "internalType": "uint256",
          "name": "ratio",
          "type": "uint256"
        }
      ],
      "name": "setCollateralRatio",
      "outputs": [],
      "stateMutability": "nonpayable",
      "type": "function"
    },
    {
      "inputs": [],
      "name": "peekCollateralRatio",
      "outputs": [
        {
          "internalType": "uint256",
          "name": "",
          "type": "uint256"
        }
      ],
      "stateMutability": "nonpayable",
      "type": "function"
    },
    {
      "inputs": [],
      "name": "peekBSMA",
      "outputs": [
        {
          "internalType": "uint256",
          "name": "",
          "type": "uint256"
        }
      ],
      "stateMutability": "nonpayable",
      "type": "function"
    },
    {
      "inputs": [],
      "name": "peekBX",
      "outputs": [
        {
          "internalType": "uint256",
          "name": "",
          "type": "uint256"
        }
      ],
      "stateMutability": "nonpayable",
      "type": "function"
    }
  ],
  "bytecode": "0x608060405234801561001057600080fd5b506101c5806100206000396000f3fe608060405234801561001057600080fd5b50600436106100625760003560e01c80631ef476b71461006757806335b28153146100855780636060663e146100c957806394f3f81d146100f7578063d513c5101461013b578063fe1d923414610159575b600080fd5b61006f610177565b6040518082815260200191505060405180910390f35b6100c76004803603602081101561009b57600080fd5b81019080803573ffffffffffffffffffffffffffffffffffffffff16906020019092919050505061017c565b005b6100f5600480360360208110156100df57600080fd5b810190808035906020019092919050505061017f565b005b6101396004803603602081101561010d57600080fd5b81019080803573ffffffffffffffffffffffffffffffffffffffff169060200190929190505050610182565b005b610143610185565b6040518082815260200191505060405180910390f35b61016161018a565b6040518082815260200191505060405180910390f35b600090565b50565b50565b50565b600090565b60009056fea26469706673582212206f5218a782722959e817d417a4bc09320809dc0d883735f10c1ae52ceb152a0e64736f6c63430006070033",
  "immutableReferences": {},
  "source": "pragma solidity 0.6.7;\n\n\ncontract CoinLike{\n  mapping (address => uint256)                      public balanceOf;\n  // Mapping of allowances\n  mapping (address => mapping (address => uint256)) public allowance;\n  // Mapping of nonces used for permits\n  mapping (address => uint256)                      public nonces;\n  function addAuthorization(address account) external {}\n  function removeAuthorization(address account) external {}\n  function transfer(address dst, uint256 amount) external returns (bool) {}\n  function transferFrom(address src, address dst, uint256 amount)\n        public returns (bool){}\n  function mint(address usr, uint256 amount) external {}\n  function burn(address usr, uint256 amount) external {}\n  function approve(address usr, uint256 amount) external returns (bool) {}\n  function push(address usr, uint256 amount) external {}\n  function pull(address usr, uint256 amount) external {}\n  function move(address src, address dst, uint256 amount) external {}\n  function permit(\n        address holder,\n        address spender,\n        uint256 nonce,\n        uint256 expiry,\n        bool allowed,\n        uint8 v,\n        bytes32 r,\n        bytes32 s\n    ) external\n    {}\n}\n\ncontract OracleLike{\n  function addAuthorization(address account) external {}\n  function removeAuthorization(address account) external {}\n  function setCollateralRatio(uint256 ratio) external {}\n  function peekCollateralRatio() external returns(uint256) {}\n  function peekBSMA() external returns(uint256){}\n  function peekBX() external returns(uint256){}\n}\n\ncontract CDPTracker {\n\nmapping (address=>uint256) public collateral; // collateral deposited by UserAddress\nmapping (address=>uint256) public debtIssued; // debt issued by UserAddress\n\naddress Oracle;\naddress Coin;\nuint256 dust; //Minimum amount of collateral deposited\n\nOracleLike Orc;\nCoinLike coin;\n\nconstructor(address ORC, uint256 DUST) public {\n  Oracle = ORC;\n  dust = DUST;\n  authorizedAccounts[msg.sender] = 1;\n}\nevent AddAuthorization(address account);\nevent RemoveAuthorization(address account);\n\nmapping (address => uint256) public authorizedAccounts;\n/**\n * @notice Add auth to an account\n * @param account Account to add auth to\n */\nfunction addAuthorization(address account) external isAuthorized {\n    authorizedAccounts[account] = 1;\n    emit AddAuthorization(account);\n}\n/**\n * @notice Remove auth from an account\n * @param account Account to remove auth from\n */\nfunction removeAuthorization(address account) external isAuthorized {\n    authorizedAccounts[account] = 0;\n    emit RemoveAuthorization(account);\n}\n/**\n* @notice Checks whether msg.sender can call an authed function\n**/\nmodifier isAuthorized {\n    require(authorizedAccounts[msg.sender] == 1, \"Coin/account-not-authorized\");\n    _;\n}\n\n// math\nfunction add(uint x, uint y) internal pure returns (uint z) {\n    require((z = x + y) >= x);\n}\nfunction sub(uint x, uint y) internal pure returns (uint z) {\n    require((z = x - y) <= x);\n}\nfunction mul(uint x, uint y) internal pure returns (uint z) {\n    require(y == 0 || (z = x * y) / y == x);\n}\n\nfunction setCoin(address STABLE) external isAuthorized {\n  Coin = STABLE;\n}\n\nfunction computeDebtLimit(address _oracle) internal returns (uint256){\n   Orc = OracleLike(_oracle);\n   uint256 _collateral = collateral[msg.sender]; //Amount of RBTC Collateral in SAFE\n   uint256 currentBX = Orc.peekBX();\n   uint256 currentCollateralRatio = Orc.peekCollateralRatio(); //12500 by default, to be divided by 100\n   uint256 currentDebtLimit = _collateral * currentCollateralRatio / 10000; // 1 xBTC can be minted (borrowed) for every 1.25 BTC collateral by default.\n   return currentDebtLimit;\n }\n\n function computeRedeemPrice(address _oracle) internal returns (uint256){\n   Orc = OracleLike(_oracle);\n   uint256 currentBX = Orc.peekBX(); //BTC-USD exchange rate\n   uint256 currentBSMA = Orc.peekBSMA(); //Current USD redemption rate of 1 xBTC\n   uint256 currentRedeemPrice = mul(currentBSMA,1000000)/currentBX; //10e3 multiplier to preserve precision of fraction.\n   return currentRedeemPrice;\n }\n\n function sendRBTC(address payable _to, uint256 amount) internal {\n        // Call returns a boolean value indicating success or failure.\n        (bool sent, bytes memory data) = _to.call{value: amount}(\"\");\n        require(sent, \"Failed to send RBTC\");\n    }\n\n //deposit RBTC collateral in safe\n function depositCollateral() public payable {\n    require(msg.value>=dust, 'CDPTracker/non-dusty-collateral-required');\n    collateral[msg.sender] = (collateral[msg.sender]) + msg.value;\n    debtIssued[msg.sender] = 0;\n  }\n\n  function takeDebt(uint256 amount) public {\n    uint256 debtLimit = computeDebtLimit(Oracle);\n    uint256 issuedDebt = debtIssued[msg.sender];\n    uint256 availableDebt = debtLimit - issuedDebt;\n    require(availableDebt >= amount, \"CDPTracker/insufficient-collateral-to-mint-stables\"); //collateral sufficiency check\n    coin = CoinLike(Coin);\n    debtIssued[msg.sender] = (debtIssued[msg.sender] + amount);\n    coin.mint(msg.sender, amount);\n  }\n\n  function returnDebt(uint256 amount) public {\n    uint256 issuedDebt = debtIssued[msg.sender];\n    require(issuedDebt >= amount, \"CDPTracker/exceeds-debt-amount\");\n    coin = CoinLike(Coin);\n    debtIssued[msg.sender] = (debtIssued[msg.sender] - amount);\n    coin.burn(msg.sender, amount);\n  }\n\n  function redeemCoins(uint256 amount) public payable {\n    coin = CoinLike(Coin);\n    require(coin.balanceOf(msg.sender)>=amount, \"CDPTracker/exceeds-balance\");\n    uint256 redemptionRatePerCoin = computeRedeemPrice(Oracle);\n    uint256 totalRedemptionAmount = mul(redemptionRatePerCoin, amount)/1000000;\n    coin.burn(msg.sender, amount);\n    sendRBTC(msg.sender, totalRedemptionAmount);\n  }\n\n  function removeCollateral(uint256 amount) public payable {\n     require(amount>=dust, 'CDPTracker/non-dusty-collateral-required');\n     uint256 _collateral = collateral[msg.sender]; //Amount of RBTC Collateral in CDP\n     require(amount<=_collateral, 'CDPTracker/amount-exceeds-deposits');\n     uint256 issuedDebt = debtIssued[msg.sender];\n     require(issuedDebt==0, 'CDPTracker/debt-not-repaid');\n     collateral[msg.sender] = (collateral[msg.sender]) - amount;\n     sendRBTC(msg.sender, amount);\n   }\n}\n",
  "sourcePath": "/Users/dm/Documents/jojoba/XSS/contracts/CDPTracker.sol",
  "compiler": {
    "name": "solc",
    "version": "0.6.7+commit.b8d736ae.Emscripten.clang"
  },
  "schemaVersion": "3.4.3",
  "updatedAt": "2022-06-02T14:54:56.124Z",
  "devdoc": {
    "methods": {}
  },
  "userdoc": {
    "methods": {}
  }
}