{
  "contractName": "Orc",
  "abi": [
    {
      "inputs": [],
      "stateMutability": "nonpayable",
      "type": "constructor"
    },
    {
      "anonymous": false,
      "inputs": [
        {
          "indexed": false,
          "internalType": "address",
          "name": "account",
          "type": "address"
        }
      ],
      "name": "AddAuthorization",
      "type": "event"
    },
    {
      "anonymous": false,
      "inputs": [
        {
          "indexed": true,
          "internalType": "address",
          "name": "src",
          "type": "address"
        },
        {
          "indexed": true,
          "internalType": "address",
          "name": "guy",
          "type": "address"
        },
        {
          "indexed": false,
          "internalType": "uint256",
          "name": "amount",
          "type": "uint256"
        }
      ],
      "name": "Approval",
      "type": "event"
    },
    {
      "anonymous": false,
      "inputs": [
        {
          "indexed": false,
          "internalType": "address",
          "name": "account",
          "type": "address"
        }
      ],
      "name": "RemoveAuthorization",
      "type": "event"
    },
    {
      "inputs": [
        {
          "internalType": "address",
          "name": "",
          "type": "address"
        }
      ],
      "name": "authorizedAccounts",
      "outputs": [
        {
          "internalType": "uint256",
          "name": "",
          "type": "uint256"
        }
      ],
      "stateMutability": "view",
      "type": "function",
      "constant": true
    },
    {
      "inputs": [
        {
          "internalType": "address",
          "name": "account",
          "type": "address"
        }
      ],
      "name": "addAuthorization",
      "outputs": [],
      "stateMutability": "nonpayable",
      "type": "function"
    },
    {
      "inputs": [
        {
          "internalType": "address",
          "name": "account",
          "type": "address"
        }
      ],
      "name": "removeAuthorization",
      "outputs": [],
      "stateMutability": "nonpayable",
      "type": "function"
    },
    {
      "inputs": [
        {
          "internalType": "uint256",
          "name": "ratio",
          "type": "uint256"
        }
      ],
      "name": "setCollateralRatio",
      "outputs": [],
      "stateMutability": "nonpayable",
      "type": "function"
    },
    {
      "inputs": [],
      "name": "peekCollateralRatio",
      "outputs": [
        {
          "internalType": "uint256",
          "name": "",
          "type": "uint256"
        }
      ],
      "stateMutability": "nonpayable",
      "type": "function"
    },
    {
      "inputs": [],
      "name": "peekBSMA",
      "outputs": [
        {
          "internalType": "uint256",
          "name": "",
          "type": "uint256"
        }
      ],
      "stateMutability": "nonpayable",
      "type": "function"
    },
    {
      "inputs": [],
      "name": "peekBX",
      "outputs": [
        {
          "internalType": "uint256",
          "name": "",
          "type": "uint256"
        }
      ],
      "stateMutability": "nonpayable",
      "type": "function"
    }
  ],
  "bytecode": "0x6080604052607d60015534801561001557600080fd5b507f599a298163e1678bb1c676052a8930bf0b8a1261ed6e01b8a2391e55f700010233604051808273ffffffffffffffffffffffffffffffffffffffff1673ffffffffffffffffffffffffffffffffffffffff16815260200191505060405180910390a16105da806100886000396000f3fe608060405234801561001057600080fd5b506004361061007d5760003560e01c80636060663e1161005b5780636060663e1461013c57806394f3f81d1461016a578063d513c510146101ae578063fe1d9234146101cc5761007d565b80631ef476b71461008257806324ba5884146100a057806335b28153146100f8575b600080fd5b61008a6101ea565b6040518082815260200191505060405180910390f35b6100e2600480360360208110156100b657600080fd5b81019080803573ffffffffffffffffffffffffffffffffffffffff1690602001909291905050506101f9565b6040518082815260200191505060405180910390f35b61013a6004803603602081101561010e57600080fd5b81019080803573ffffffffffffffffffffffffffffffffffffffff169060200190929190505050610211565b005b6101686004803603602081101561015257600080fd5b810190808035906020019092919050505061036f565b005b6101ac6004803603602081101561018057600080fd5b81019080803573ffffffffffffffffffffffffffffffffffffffff16906020019092919050505061042d565b005b6101b661058b565b6040518082815260200191505060405180910390f35b6101d4610595565b6040518082815260200191505060405180910390f35b600080619c4090508091505090565b60006020528060005260406000206000915090505481565b60016000803373ffffffffffffffffffffffffffffffffffffffff1673ffffffffffffffffffffffffffffffffffffffff16815260200190815260200160002054146102c5576040517f08c379a000000000000000000000000000000000000000000000000000000000815260040180806020018281038252601b8152602001807f436f696e2f6163636f756e742d6e6f742d617574686f72697a6564000000000081525060200191505060405180910390fd5b60016000808373ffffffffffffffffffffffffffffffffffffffff1673ffffffffffffffffffffffffffffffffffffffff168152602001908152602001600020819055507f599a298163e1678bb1c676052a8930bf0b8a1261ed6e01b8a2391e55f700010281604051808273ffffffffffffffffffffffffffffffffffffffff1673ffffffffffffffffffffffffffffffffffffffff16815260200191505060405180910390a150565b60016000803373ffffffffffffffffffffffffffffffffffffffff1673ffffffffffffffffffffffffffffffffffffffff1681526020019081526020016000205414610423576040517f08c379a000000000000000000000000000000000000000000000000000000000815260040180806020018281038252601b8152602001807f436f696e2f6163636f756e742d6e6f742d617574686f72697a6564000000000081525060200191505060405180910390fd5b8060018190555050565b60016000803373ffffffffffffffffffffffffffffffffffffffff1673ffffffffffffffffffffffffffffffffffffffff16815260200190815260200160002054146104e1576040517f08c379a000000000000000000000000000000000000000000000000000000000815260040180806020018281038252601b8152602001807f436f696e2f6163636f756e742d6e6f742d617574686f72697a6564000000000081525060200191505060405180910390fd5b60008060008373ffffffffffffffffffffffffffffffffffffffff1673ffffffffffffffffffffffffffffffffffffffff168152602001908152602001600020819055507f8834a87e641e9716be4f34527af5d23e11624f1ddeefede6ad75a9acfc31b90381604051808273ffffffffffffffffffffffffffffffffffffffff1673ffffffffffffffffffffffffffffffffffffffff16815260200191505060405180910390a150565b6000600154905090565b6000806146509050809150509056fea2646970667358221220912e549d66fc9c26a63e11fc56ce8b706efe3957626eb0cf6972d3aaba42d11464736f6c63430006070033",
  "immutableReferences": {},
  "source": "pragma solidity 0.6.7;\n\n\ncontract Orc {\n  mapping (address => uint256) public authorizedAccounts;\n  /**\n   * @notice Add auth to an account\n   * @param account Account to add auth to\n   */\n  function addAuthorization(address account) external isAuthorized {\n      authorizedAccounts[account] = 1;\n      emit AddAuthorization(account);\n  }\n  /**\n   * @notice Remove auth from an account\n   * @param account Account to remove auth from\n   */\n  function removeAuthorization(address account) external isAuthorized {\n      authorizedAccounts[account] = 0;\n      emit RemoveAuthorization(account);\n  }\n  /**\n  * @notice Checks whether msg.sender can call an authed function\n  **/\n  modifier isAuthorized {\n      require(authorizedAccounts[msg.sender] == 1, \"Coin/account-not-authorized\");\n      _;\n  }\n\n  event AddAuthorization(address account);\n  event RemoveAuthorization(address account);\n  event Approval(address indexed src, address indexed guy, uint256 amount);\n\n  constructor() public {\n    emit AddAuthorization(msg.sender);\n  }\n\n  // Default Collateral Ratio of 125%\n  uint256 collateralRatio = 125;\n  function setCollateralRatio(uint256 ratio) external isAuthorized {\n      collateralRatio = ratio;\n  }\n\n  function peekCollateralRatio() external returns(uint256) {\n    return collateralRatio;\n  }\n\n  // Returns current 4 year SMA for BTC/USD. FIXME: Template Function used.\n  function peekBSMA() external returns(uint256){\n    uint256 BSMA = 18000;\n    return BSMA;\n  }\n\n// Returns current BTC/USD exchange rate. FIXME: Template Function used.\n  function peekBX() external returns(uint256){\n    uint256 BX = 40000;\n    return BX;\n  }\n}\n",
  "sourcePath": "/Users/dm/Documents/jojoba/hohoba/XSS/contracts/oracle.sol",
  "compiler": {
    "name": "solc",
    "version": "0.6.7+commit.b8d736ae.Emscripten.clang"
  },
  "schemaVersion": "3.4.3",
  "updatedAt": "2022-06-02T18:35:27.301Z",
  "networkType": "ethereum",
  "devdoc": {
    "methods": {
      "addAuthorization(address)": {
        "params": {
          "account": "Account to add auth to"
        }
      },
      "removeAuthorization(address)": {
        "params": {
          "account": "Account to remove auth from"
        }
      }
    }
  },
  "userdoc": {
    "methods": {
      "addAuthorization(address)": {
        "notice": "Add auth to an account"
      },
      "removeAuthorization(address)": {
        "notice": "Remove auth from an account"
      }
    }
  }
}