{
  "contractName": "SafeTracker",
  "abi": [
    {
      "inputs": [
        {
          "internalType": "address",
          "name": "ORC",
          "type": "address"
        },
        {
          "internalType": "address",
          "name": "STABLE",
          "type": "address"
        },
        {
          "internalType": "uint256",
          "name": "DUST",
          "type": "uint256"
        }
      ],
      "stateMutability": "nonpayable",
      "type": "constructor"
    },
    {
      "inputs": [
        {
          "internalType": "address",
          "name": "",
          "type": "address"
        }
      ],
      "name": "collateral",
      "outputs": [
        {
          "internalType": "uint256",
          "name": "",
          "type": "uint256"
        }
      ],
      "stateMutability": "view",
      "type": "function"
    },
    {
      "inputs": [
        {
          "internalType": "address",
          "name": "",
          "type": "address"
        }
      ],
      "name": "debtIssued",
      "outputs": [
        {
          "internalType": "uint256",
          "name": "",
          "type": "uint256"
        }
      ],
      "stateMutability": "view",
      "type": "function"
    },
    {
      "inputs": [],
      "name": "depositCollateral",
      "outputs": [],
      "stateMutability": "payable",
      "type": "function"
    },
    {
      "inputs": [
        {
          "internalType": "uint256",
          "name": "amount",
          "type": "uint256"
        }
      ],
      "name": "takeDebt",
      "outputs": [],
      "stateMutability": "nonpayable",
      "type": "function"
    },
    {
      "inputs": [
        {
          "internalType": "uint256",
          "name": "amount",
          "type": "uint256"
        }
      ],
      "name": "returnDebt",
      "outputs": [],
      "stateMutability": "nonpayable",
      "type": "function"
    },
    {
      "inputs": [
        {
          "internalType": "uint256",
          "name": "amount",
          "type": "uint256"
        }
      ],
      "name": "redeemCoins",
      "outputs": [],
      "stateMutability": "payable",
      "type": "function"
    },
    {
      "inputs": [
        {
          "internalType": "uint256",
          "name": "amount",
          "type": "uint256"
        }
      ],
      "name": "removeCollateral",
      "outputs": [],
      "stateMutability": "payable",
      "type": "function"
    }
  ],
  "bytecode": "0x608060405234801561001057600080fd5b5060405161133b38038061133b8339818101604052606081101561003357600080fd5b8101908080519060200190929190805190602001909291908051906020019092919050505082600260006101000a81548173ffffffffffffffffffffffffffffffffffffffff021916908373ffffffffffffffffffffffffffffffffffffffff16021790555081600360006101000a81548173ffffffffffffffffffffffffffffffffffffffff021916908373ffffffffffffffffffffffffffffffffffffffff16021790555080600481905550505050611248806100f36000396000f3fe6080604052600436106100705760003560e01c80636f7581401161004e5780636f7581401461010c578063a5fdc5de14610116578063d2cedf041461017b578063db4f2d34146101b657610070565b80632fd97af3146100755780633237c158146100b057806339eb283c146100de575b600080fd5b34801561008157600080fd5b506100ae6004803603602081101561009857600080fd5b810190808035906020019092919050505061021b565b005b6100dc600480360360208110156100c657600080fd5b810190808035906020019092919050505061049d565b005b61010a600480360360208110156100f457600080fd5b8101908080359060200190929190505050610625565b005b6101146108e9565b005b34801561012257600080fd5b506101656004803603602081101561013957600080fd5b81019080803573ffffffffffffffffffffffffffffffffffffffff1690602001909291905050506109c9565b6040518082815260200191505060405180910390f35b34801561018757600080fd5b506101b46004803603602081101561019e57600080fd5b81019080803590602001909291905050506109e1565b005b3480156101c257600080fd5b50610205600480360360208110156101d957600080fd5b81019080803573ffffffffffffffffffffffffffffffffffffffff169060200190929190505050610c48565b6040518082815260200191505060405180910390f35b6000610248600260009054906101000a900473ffffffffffffffffffffffffffffffffffffffff16610c60565b90506000600160003373ffffffffffffffffffffffffffffffffffffffff1673ffffffffffffffffffffffffffffffffffffffff16815260200190815260200160002054905060008183039050838110156102ee576040517f08c379a00000000000000000000000000000000000000000000000000000000081526004018080602001828103825260328152602001806111bf6032913960400191505060405180910390fd5b600360009054906101000a900473ffffffffffffffffffffffffffffffffffffffff16600660006101000a81548173ffffffffffffffffffffffffffffffffffffffff021916908373ffffffffffffffffffffffffffffffffffffffff16021790555083600160003373ffffffffffffffffffffffffffffffffffffffff1673ffffffffffffffffffffffffffffffffffffffff1681526020019081526020016000205401600160003373ffffffffffffffffffffffffffffffffffffffff1673ffffffffffffffffffffffffffffffffffffffff16815260200190815260200160002081905550600660009054906101000a900473ffffffffffffffffffffffffffffffffffffffff1673ffffffffffffffffffffffffffffffffffffffff166340c10f1933866040518363ffffffff1660e01b8152600401808373ffffffffffffffffffffffffffffffffffffffff1673ffffffffffffffffffffffffffffffffffffffff16815260200182815260200192505050600060405180830381600087803b15801561047f57600080fd5b505af1158015610493573d6000803e3d6000fd5b5050505050505050565b6004548110156104f8576040517f08c379a00000000000000000000000000000000000000000000000000000000081526004018080602001828103825260288152602001806111976028913960400191505060405180910390fd5b60008060003373ffffffffffffffffffffffffffffffffffffffff1673ffffffffffffffffffffffffffffffffffffffff16815260200190815260200160002054905080821115610594576040517f08c379a00000000000000000000000000000000000000000000000000000000081526004018080602001828103825260228152602001806111f16022913960400191505060405180910390fd5b816000803373ffffffffffffffffffffffffffffffffffffffff1673ffffffffffffffffffffffffffffffffffffffff16815260200190815260200160002054036000803373ffffffffffffffffffffffffffffffffffffffff1673ffffffffffffffffffffffffffffffffffffffff168152602001908152602001600020819055506106213383610efe565b5050565b600360009054906101000a900473ffffffffffffffffffffffffffffffffffffffff16600660006101000a81548173ffffffffffffffffffffffffffffffffffffffff021916908373ffffffffffffffffffffffffffffffffffffffff16021790555080600660009054906101000a900473ffffffffffffffffffffffffffffffffffffffff1673ffffffffffffffffffffffffffffffffffffffff166370a08231336040518263ffffffff1660e01b8152600401808273ffffffffffffffffffffffffffffffffffffffff1673ffffffffffffffffffffffffffffffffffffffff16815260200191505060206040518083038186803b15801561072857600080fd5b505afa15801561073c573d6000803e3d6000fd5b505050506040513d602081101561075257600080fd5b810190808051906020019092919050505010156107d7576040517f08c379a000000000000000000000000000000000000000000000000000000000815260040180806020018281038252601a8152602001807f73616665656e67696e652f657863656564732d62616c616e636500000000000081525060200191505060405180910390fd5b6000610804600260009054906101000a900473ffffffffffffffffffffffffffffffffffffffff16610fe3565b90506000620f42408383028161081657fe5b049050600660009054906101000a900473ffffffffffffffffffffffffffffffffffffffff1673ffffffffffffffffffffffffffffffffffffffff16639dc29fac33856040518363ffffffff1660e01b8152600401808373ffffffffffffffffffffffffffffffffffffffff1673ffffffffffffffffffffffffffffffffffffffff16815260200182815260200192505050600060405180830381600087803b1580156108c257600080fd5b505af11580156108d6573d6000803e3d6000fd5b505050506108e43382610efe565b505050565b600454341015610944576040517f08c379a00000000000000000000000000000000000000000000000000000000081526004018080602001828103825260288152602001806111976028913960400191505060405180910390fd5b346000803373ffffffffffffffffffffffffffffffffffffffff1673ffffffffffffffffffffffffffffffffffffffff16815260200190815260200160002054016000803373ffffffffffffffffffffffffffffffffffffffff1673ffffffffffffffffffffffffffffffffffffffff16815260200190815260200160002081905550565b60006020528060005260406000206000915090505481565b6000600160003373ffffffffffffffffffffffffffffffffffffffff1673ffffffffffffffffffffffffffffffffffffffff16815260200190815260200160002054905081811015610a9b576040517f08c379a000000000000000000000000000000000000000000000000000000000815260040180806020018281038252601e8152602001807f73616665656e67696e652f657863656564732d646562742d616d6f756e74000081525060200191505060405180910390fd5b600360009054906101000a900473ffffffffffffffffffffffffffffffffffffffff16600660006101000a81548173ffffffffffffffffffffffffffffffffffffffff021916908373ffffffffffffffffffffffffffffffffffffffff16021790555081600160003373ffffffffffffffffffffffffffffffffffffffff1673ffffffffffffffffffffffffffffffffffffffff1681526020019081526020016000205403600160003373ffffffffffffffffffffffffffffffffffffffff1673ffffffffffffffffffffffffffffffffffffffff16815260200190815260200160002081905550600660009054906101000a900473ffffffffffffffffffffffffffffffffffffffff1673ffffffffffffffffffffffffffffffffffffffff16639dc29fac33846040518363ffffffff1660e01b8152600401808373ffffffffffffffffffffffffffffffffffffffff1673ffffffffffffffffffffffffffffffffffffffff16815260200182815260200192505050600060405180830381600087803b158015610c2c57600080fd5b505af1158015610c40573d6000803e3d6000fd5b505050505050565b60016020528060005260406000206000915090505481565b600081600560006101000a81548173ffffffffffffffffffffffffffffffffffffffff021916908373ffffffffffffffffffffffffffffffffffffffff16021790555060008060003373ffffffffffffffffffffffffffffffffffffffff1673ffffffffffffffffffffffffffffffffffffffff1681526020019081526020016000205490506000600560009054906101000a900473ffffffffffffffffffffffffffffffffffffffff1673ffffffffffffffffffffffffffffffffffffffff1663fe1d92346040518163ffffffff1660e01b8152600401602060405180830381600087803b158015610d5257600080fd5b505af1158015610d66573d6000803e3d6000fd5b505050506040513d6020811015610d7c57600080fd5b810190808051906020019092919050505090506000600560009054906101000a900473ffffffffffffffffffffffffffffffffffffffff1673ffffffffffffffffffffffffffffffffffffffff16631ef476b76040518163ffffffff1660e01b8152600401602060405180830381600087803b158015610dfb57600080fd5b505af1158015610e0f573d6000803e3d6000fd5b505050506040513d6020811015610e2557600080fd5b810190808051906020019092919050505090506000600560009054906101000a900473ffffffffffffffffffffffffffffffffffffffff1673ffffffffffffffffffffffffffffffffffffffff1663d513c5106040518163ffffffff1660e01b8152600401602060405180830381600087803b158015610ea457600080fd5b505af1158015610eb8573d6000803e3d6000fd5b505050506040513d6020811015610ece57600080fd5b8101908080519060200190929190505050905060008284860281610eee57fe5b0490508095505050505050919050565b600060608373ffffffffffffffffffffffffffffffffffffffff168360405180600001905060006040518083038185875af1925050503d8060008114610f60576040519150601f19603f3d011682016040523d82523d6000602084013e610f65565b606091505b509150915081610fdd576040517f08c379a00000000000000000000000000000000000000000000000000000000081526004018080602001828103825260138152602001807f4661696c656420746f2073656e6420524254430000000000000000000000000081525060200191505060405180910390fd5b50505050565b600081600560006101000a81548173ffffffffffffffffffffffffffffffffffffffff021916908373ffffffffffffffffffffffffffffffffffffffff1602179055506000600560009054906101000a900473ffffffffffffffffffffffffffffffffffffffff1673ffffffffffffffffffffffffffffffffffffffff16631ef476b76040518163ffffffff1660e01b8152600401602060405180830381600087803b15801561109257600080fd5b505af11580156110a6573d6000803e3d6000fd5b505050506040513d60208110156110bc57600080fd5b810190808051906020019092919050505090506000600560009054906101000a900473ffffffffffffffffffffffffffffffffffffffff1673ffffffffffffffffffffffffffffffffffffffff1663fe1d92346040518163ffffffff1660e01b8152600401602060405180830381600087803b15801561113b57600080fd5b505af115801561114f573d6000803e3d6000fd5b505050506040513d602081101561116557600080fd5b810190808051906020019092919050505090506000620f424082848161118757fe5b0402905080935050505091905056fe73616665656e67696e652f6e6f6e2d64757374792d636f6c6c61746572616c2d726571756972656473616665656e67696e652f696e73756666696369656e742d636f6c6c61746572616c2d746f2d6d696e742d737461626c657373616665656e67696e652f616d6f756e742d657863656564732d6465706f73697473a2646970667358221220b8f7bb35a8c782b33316d0a12490f0bde308a3d3c64e79cf2e299db416d6f5f764736f6c63430006070033",
  "immutableReferences": {},
  "source": "pragma solidity 0.6.7;\n\n\ncontract CoinLike{\n  mapping (address => uint256)                      public balanceOf;\n  // Mapping of allowances\n  mapping (address => mapping (address => uint256)) public allowance;\n  // Mapping of nonces used for permits\n  mapping (address => uint256)                      public nonces;\n  function addAuthorization(address account) external {}\n  function removeAuthorization(address account) external {}\n  function transfer(address dst, uint256 amount) external returns (bool) {}\n  function transferFrom(address src, address dst, uint256 amount)\n        public returns (bool){}\n  function mint(address usr, uint256 amount) external {}\n  function burn(address usr, uint256 amount) external {}\n  function approve(address usr, uint256 amount) external returns (bool) {}\n  function push(address usr, uint256 amount) external {}\n  function pull(address usr, uint256 amount) external {}\n  function move(address src, address dst, uint256 amount) external {}\n  function permit(\n        address holder,\n        address spender,\n        uint256 nonce,\n        uint256 expiry,\n        bool allowed,\n        uint8 v,\n        bytes32 r,\n        bytes32 s\n    ) external\n    {}\n}\n\ncontract OracleLike{\n  function addAuthorization(address account) external {}\n  function removeAuthorization(address account) external {}\n  function setCollateralRatio(uint256 ratio) external {}\n  function peekCollateralRatio() external returns(uint256) {}\n  function peekBSMA() external returns(uint256){}\n  function peekBX() external returns(uint256){}\n}\n\ncontract SafeTracker {\n\nmapping (address=>uint256) public collateral; // collateral deposited by UserAddress\nmapping (address=>uint256) public debtIssued; // debt issued by UserAddress\n\naddress Oracle;\naddress Coin;\nuint256 dust; //Minimum amount of collateral deposited\n\nOracleLike Orc;\nCoinLike coin;\n\nconstructor(address ORC, address STABLE, uint256 DUST) public {\n  Oracle = ORC;\n  Coin = STABLE;\n  dust = DUST;\n}\n\n function computeDebtLimit(address _oracle) internal returns (uint256){\n   Orc = OracleLike(_oracle);\n   //TODO: check safeID exists;\n   uint256 _collateral = collateral[msg.sender]; //Amount of RBTC Collateral in SAFE\n   uint256 currentBSMA = Orc.peekBSMA(); //Current USD redemption rate of 1 xBTC\n   uint256 currentBX = Orc.peekBX();\n   // uint256 currentBSMA = 24000;\n   uint256 currentCollateralRatio = Orc.peekCollateralRatio(); //12500 by default, to be divided by 100\n   uint256 currentDebtLimit = ((_collateral * currentBSMA ) / currentBX) ; // maximum amount of xBTC that can be minted by a particular safe given current collateral\n   return currentDebtLimit;\n }\n\n function computeRedeemPrice(address _oracle) internal returns (uint256){\n   Orc = OracleLike(_oracle);\n   //TODO: check safeID exists;\n   uint256 currentSMA = Orc.peekBX(); //BTC-USD exchange rate\n   uint256 currentBSMA = Orc.peekBSMA(); //Current USD redemption rate of 1 xBTC\n   uint256 currentRedeemPrice = (currentSMA/currentBSMA)*1000000; //10e6 multiplier to preserve precision of fraction\n   return currentRedeemPrice;\n }\n\n function sendRBTC(address payable _to, uint256 amount) internal {\n        // Call returns a boolean value indicating success or failure.\n        (bool sent, bytes memory data) = _to.call{value: amount}(\"\");\n        require(sent, \"Failed to send RBTC\");\n    }\n\n //deposit RBTC collateral in safe\n //use existing safeID or make new safe with lastSAFEID+1\n function depositCollateral() public payable {\n    require(msg.value>=dust, 'safeengine/non-dusty-collateral-required');\n    // TODO: check SAFEID exists, or create new one via getLastSafeID function.\n    // SAFE storage safe = safes[SafeID]; // modularized for clarity\n    collateral[msg.sender] = (collateral[msg.sender]) + msg.value;\n  }\n\n  function takeDebt(uint256 amount) public {\n    //collateral sufficiency check\n    // SAFE storage safe = safes[SafeID];\n    uint256 debtLimit = computeDebtLimit(Oracle);\n    uint256 issuedDebt = debtIssued[msg.sender];\n    uint256 availableDebt = debtLimit - issuedDebt;\n    require(availableDebt >= amount, \"safeengine/insufficient-collateral-to-mint-stables\");\n    coin = CoinLike(Coin);\n    debtIssued[msg.sender] = (debtIssued[msg.sender] + amount);\n    coin.mint(msg.sender, amount);\n  }\n\n  function returnDebt(uint256 amount) public {\n    uint256 issuedDebt = debtIssued[msg.sender];\n    require(issuedDebt >= amount, \"safeengine/exceeds-debt-amount\");\n    coin = CoinLike(Coin);\n    debtIssued[msg.sender] = (debtIssued[msg.sender] - amount);\n    coin.burn(msg.sender, amount);\n  }\n\n  function redeemCoins(uint256 amount) public payable {\n    coin = CoinLike(Coin);\n    require(coin.balanceOf(msg.sender)>=amount, \"safeengine/exceeds-balance\");\n    uint256 redemptionRatePerCoin = computeRedeemPrice(Oracle);\n    uint256 totalRedemptionAmount = (redemptionRatePerCoin * amount)/1000000;\n    coin.burn(msg.sender, amount);\n    sendRBTC(msg.sender, totalRedemptionAmount);\n  }\n\n  function removeCollateral(uint256 amount) public payable {\n     require(amount>=dust, 'safeengine/non-dusty-collateral-required');\n     // TODO: check SAFEID exists.\n     uint256 _collateral = collateral[msg.sender]; //Amount of RBTC Collateral in SAFE\n     require(amount<=_collateral, 'safeengine/amount-exceeds-deposits');\n     collateral[msg.sender] = (collateral[msg.sender]) - amount;\n     sendRBTC(msg.sender, amount);\n   }\n}\n",
  "sourcePath": "/Users/dm/Documents/wishbone/BrainDAO/contracts/safeengine.sol",
  "compiler": {
    "name": "solc",
    "version": "0.6.7+commit.b8d736ae.Emscripten.clang"
  },
  "schemaVersion": "3.4.3",
  "updatedAt": "2021-11-27T16:54:24.601Z",
  "networkType": "ethereum",
  "devdoc": {
    "methods": {}
  },
  "userdoc": {
    "methods": {}
  }
}