{
  "contractName": "SafeTracker",
  "abi": [
    {
      "inputs": [
        {
          "internalType": "address",
          "name": "ORC",
          "type": "address"
        },
        {
          "internalType": "uint256",
          "name": "DUST",
          "type": "uint256"
        }
      ],
      "stateMutability": "nonpayable",
      "type": "constructor"
    },
    {
      "anonymous": false,
      "inputs": [
        {
          "indexed": false,
          "internalType": "address",
          "name": "account",
          "type": "address"
        }
      ],
      "name": "AddAuthorization",
      "type": "event"
    },
    {
      "anonymous": false,
      "inputs": [
        {
          "indexed": false,
          "internalType": "address",
          "name": "account",
          "type": "address"
        }
      ],
      "name": "RemoveAuthorization",
      "type": "event"
    },
    {
      "inputs": [
        {
          "internalType": "address",
          "name": "",
          "type": "address"
        }
      ],
      "name": "authorizedAccounts",
      "outputs": [
        {
          "internalType": "uint256",
          "name": "",
          "type": "uint256"
        }
      ],
      "stateMutability": "view",
      "type": "function",
      "constant": true
    },
    {
      "inputs": [
        {
          "internalType": "address",
          "name": "",
          "type": "address"
        }
      ],
      "name": "collateral",
      "outputs": [
        {
          "internalType": "uint256",
          "name": "",
          "type": "uint256"
        }
      ],
      "stateMutability": "view",
      "type": "function",
      "constant": true
    },
    {
      "inputs": [
        {
          "internalType": "address",
          "name": "",
          "type": "address"
        }
      ],
      "name": "debtIssued",
      "outputs": [
        {
          "internalType": "uint256",
          "name": "",
          "type": "uint256"
        }
      ],
      "stateMutability": "view",
      "type": "function",
      "constant": true
    },
    {
      "inputs": [
        {
          "internalType": "address",
          "name": "account",
          "type": "address"
        }
      ],
      "name": "addAuthorization",
      "outputs": [],
      "stateMutability": "nonpayable",
      "type": "function"
    },
    {
      "inputs": [
        {
          "internalType": "address",
          "name": "account",
          "type": "address"
        }
      ],
      "name": "removeAuthorization",
      "outputs": [],
      "stateMutability": "nonpayable",
      "type": "function"
    },
    {
      "inputs": [
        {
          "internalType": "address",
          "name": "STABLE",
          "type": "address"
        }
      ],
      "name": "setCoin",
      "outputs": [],
      "stateMutability": "nonpayable",
      "type": "function"
    },
    {
      "inputs": [],
      "name": "depositCollateral",
      "outputs": [],
      "stateMutability": "payable",
      "type": "function",
      "payable": true
    },
    {
      "inputs": [
        {
          "internalType": "uint256",
          "name": "amount",
          "type": "uint256"
        }
      ],
      "name": "takeDebt",
      "outputs": [],
      "stateMutability": "nonpayable",
      "type": "function"
    },
    {
      "inputs": [
        {
          "internalType": "uint256",
          "name": "amount",
          "type": "uint256"
        }
      ],
      "name": "returnDebt",
      "outputs": [],
      "stateMutability": "nonpayable",
      "type": "function"
    },
    {
      "inputs": [
        {
          "internalType": "uint256",
          "name": "amount",
          "type": "uint256"
        }
      ],
      "name": "redeemCoins",
      "outputs": [],
      "stateMutability": "payable",
      "type": "function",
      "payable": true
    },
    {
      "inputs": [
        {
          "internalType": "uint256",
          "name": "amount",
          "type": "uint256"
        }
      ],
      "name": "removeCollateral",
      "outputs": [],
      "stateMutability": "payable",
      "type": "function",
      "payable": true
    }
  ],
  "bytecode": "0x608060405234801561001057600080fd5b506040516118ba3803806118ba8339818101604052604081101561003357600080fd5b81019080805190602001909291908051906020019092919050505081600260006101000a81548173ffffffffffffffffffffffffffffffffffffffff021916908373ffffffffffffffffffffffffffffffffffffffff160217905550806004819055506001600760003373ffffffffffffffffffffffffffffffffffffffff1673ffffffffffffffffffffffffffffffffffffffff1681526020019081526020016000208190555050506117ce806100ec6000396000f3fe60806040526004361061009c5760003560e01c80636f758140116100645780636f758140146101ee57806382e46b75146101f857806394f3f81d14610249578063a5fdc5de1461029a578063d2cedf04146102ff578063db4f2d341461033a5761009c565b806324ba5884146100a15780632fd97af3146101065780633237c1581461014157806335b281531461016f57806339eb283c146101c0575b600080fd5b3480156100ad57600080fd5b506100f0600480360360208110156100c457600080fd5b81019080803573ffffffffffffffffffffffffffffffffffffffff16906020019092919050505061039f565b6040518082815260200191505060405180910390f35b34801561011257600080fd5b5061013f6004803603602081101561012957600080fd5b81019080803590602001909291905050506103b7565b005b61016d6004803603602081101561015757600080fd5b8101908080359060200190929190505050610639565b005b34801561017b57600080fd5b506101be6004803603602081101561019257600080fd5b81019080803573ffffffffffffffffffffffffffffffffffffffff1690602001909291905050506107c1565b005b6101ec600480360360208110156101d657600080fd5b8101908080359060200190929190505050610921565b005b6101f6610bec565b005b34801561020457600080fd5b506102476004803603602081101561021b57600080fd5b81019080803573ffffffffffffffffffffffffffffffffffffffff169060200190929190505050610ccc565b005b34801561025557600080fd5b506102986004803603602081101561026c57600080fd5b81019080803573ffffffffffffffffffffffffffffffffffffffff169060200190929190505050610dc5565b005b3480156102a657600080fd5b506102e9600480360360208110156102bd57600080fd5b81019080803573ffffffffffffffffffffffffffffffffffffffff169060200190929190505050610f25565b6040518082815260200191505060405180910390f35b34801561030b57600080fd5b506103386004803603602081101561032257600080fd5b8101908080359060200190929190505050610f3d565b005b34801561034657600080fd5b506103896004803603602081101561035d57600080fd5b81019080803573ffffffffffffffffffffffffffffffffffffffff1690602001909291905050506111a4565b6040518082815260200191505060405180910390f35b60076020528060005260406000206000915090505481565b60006103e4600260009054906101000a900473ffffffffffffffffffffffffffffffffffffffff166111bc565b90506000600160003373ffffffffffffffffffffffffffffffffffffffff1673ffffffffffffffffffffffffffffffffffffffff168152602001908152602001600020549050600081830390508381101561048a576040517f08c379a00000000000000000000000000000000000000000000000000000000081526004018080602001828103825260328152602001806117456032913960400191505060405180910390fd5b600360009054906101000a900473ffffffffffffffffffffffffffffffffffffffff16600660006101000a81548173ffffffffffffffffffffffffffffffffffffffff021916908373ffffffffffffffffffffffffffffffffffffffff16021790555083600160003373ffffffffffffffffffffffffffffffffffffffff1673ffffffffffffffffffffffffffffffffffffffff1681526020019081526020016000205401600160003373ffffffffffffffffffffffffffffffffffffffff1673ffffffffffffffffffffffffffffffffffffffff16815260200190815260200160002081905550600660009054906101000a900473ffffffffffffffffffffffffffffffffffffffff1673ffffffffffffffffffffffffffffffffffffffff166340c10f1933866040518363ffffffff1660e01b8152600401808373ffffffffffffffffffffffffffffffffffffffff1673ffffffffffffffffffffffffffffffffffffffff16815260200182815260200192505050600060405180830381600087803b15801561061b57600080fd5b505af115801561062f573d6000803e3d6000fd5b5050505050505050565b600454811015610694576040517f08c379a000000000000000000000000000000000000000000000000000000000815260040180806020018281038252602881526020018061171d6028913960400191505060405180910390fd5b60008060003373ffffffffffffffffffffffffffffffffffffffff1673ffffffffffffffffffffffffffffffffffffffff16815260200190815260200160002054905080821115610730576040517f08c379a00000000000000000000000000000000000000000000000000000000081526004018080602001828103825260228152602001806117776022913960400191505060405180910390fd5b816000803373ffffffffffffffffffffffffffffffffffffffff1673ffffffffffffffffffffffffffffffffffffffff16815260200190815260200160002054036000803373ffffffffffffffffffffffffffffffffffffffff1673ffffffffffffffffffffffffffffffffffffffff168152602001908152602001600020819055506107bd3383611451565b5050565b6001600760003373ffffffffffffffffffffffffffffffffffffffff1673ffffffffffffffffffffffffffffffffffffffff1681526020019081526020016000205414610876576040517f08c379a000000000000000000000000000000000000000000000000000000000815260040180806020018281038252601b8152602001807f436f696e2f6163636f756e742d6e6f742d617574686f72697a6564000000000081525060200191505060405180910390fd5b6001600760008373ffffffffffffffffffffffffffffffffffffffff1673ffffffffffffffffffffffffffffffffffffffff168152602001908152602001600020819055507f599a298163e1678bb1c676052a8930bf0b8a1261ed6e01b8a2391e55f700010281604051808273ffffffffffffffffffffffffffffffffffffffff1673ffffffffffffffffffffffffffffffffffffffff16815260200191505060405180910390a150565b600360009054906101000a900473ffffffffffffffffffffffffffffffffffffffff16600660006101000a81548173ffffffffffffffffffffffffffffffffffffffff021916908373ffffffffffffffffffffffffffffffffffffffff16021790555080600660009054906101000a900473ffffffffffffffffffffffffffffffffffffffff1673ffffffffffffffffffffffffffffffffffffffff166370a08231336040518263ffffffff1660e01b8152600401808273ffffffffffffffffffffffffffffffffffffffff1673ffffffffffffffffffffffffffffffffffffffff16815260200191505060206040518083038186803b158015610a2457600080fd5b505afa158015610a38573d6000803e3d6000fd5b505050506040513d6020811015610a4e57600080fd5b81019080805190602001909291905050501015610ad3576040517f08c379a000000000000000000000000000000000000000000000000000000000815260040180806020018281038252601a8152602001807f73616665656e67696e652f657863656564732d62616c616e636500000000000081525060200191505060405180910390fd5b6000610b00600260009054906101000a900473ffffffffffffffffffffffffffffffffffffffff16611536565b90506000620f4240610b1283856116f0565b81610b1957fe5b049050600660009054906101000a900473ffffffffffffffffffffffffffffffffffffffff1673ffffffffffffffffffffffffffffffffffffffff16639dc29fac33856040518363ffffffff1660e01b8152600401808373ffffffffffffffffffffffffffffffffffffffff1673ffffffffffffffffffffffffffffffffffffffff16815260200182815260200192505050600060405180830381600087803b158015610bc557600080fd5b505af1158015610bd9573d6000803e3d6000fd5b50505050610be73382611451565b505050565b600454341015610c47576040517f08c379a000000000000000000000000000000000000000000000000000000000815260040180806020018281038252602881526020018061171d6028913960400191505060405180910390fd5b346000803373ffffffffffffffffffffffffffffffffffffffff1673ffffffffffffffffffffffffffffffffffffffff16815260200190815260200160002054016000803373ffffffffffffffffffffffffffffffffffffffff1673ffffffffffffffffffffffffffffffffffffffff16815260200190815260200160002081905550565b6001600760003373ffffffffffffffffffffffffffffffffffffffff1673ffffffffffffffffffffffffffffffffffffffff1681526020019081526020016000205414610d81576040517f08c379a000000000000000000000000000000000000000000000000000000000815260040180806020018281038252601b8152602001807f436f696e2f6163636f756e742d6e6f742d617574686f72697a6564000000000081525060200191505060405180910390fd5b80600360006101000a81548173ffffffffffffffffffffffffffffffffffffffff021916908373ffffffffffffffffffffffffffffffffffffffff16021790555050565b6001600760003373ffffffffffffffffffffffffffffffffffffffff1673ffffffffffffffffffffffffffffffffffffffff1681526020019081526020016000205414610e7a576040517f08c379a000000000000000000000000000000000000000000000000000000000815260040180806020018281038252601b8152602001807f436f696e2f6163636f756e742d6e6f742d617574686f72697a6564000000000081525060200191505060405180910390fd5b6000600760008373ffffffffffffffffffffffffffffffffffffffff1673ffffffffffffffffffffffffffffffffffffffff168152602001908152602001600020819055507f8834a87e641e9716be4f34527af5d23e11624f1ddeefede6ad75a9acfc31b90381604051808273ffffffffffffffffffffffffffffffffffffffff1673ffffffffffffffffffffffffffffffffffffffff16815260200191505060405180910390a150565b60006020528060005260406000206000915090505481565b6000600160003373ffffffffffffffffffffffffffffffffffffffff1673ffffffffffffffffffffffffffffffffffffffff16815260200190815260200160002054905081811015610ff7576040517f08c379a000000000000000000000000000000000000000000000000000000000815260040180806020018281038252601e8152602001807f73616665656e67696e652f657863656564732d646562742d616d6f756e74000081525060200191505060405180910390fd5b600360009054906101000a900473ffffffffffffffffffffffffffffffffffffffff16600660006101000a81548173ffffffffffffffffffffffffffffffffffffffff021916908373ffffffffffffffffffffffffffffffffffffffff16021790555081600160003373ffffffffffffffffffffffffffffffffffffffff1673ffffffffffffffffffffffffffffffffffffffff1681526020019081526020016000205403600160003373ffffffffffffffffffffffffffffffffffffffff1673ffffffffffffffffffffffffffffffffffffffff16815260200190815260200160002081905550600660009054906101000a900473ffffffffffffffffffffffffffffffffffffffff1673ffffffffffffffffffffffffffffffffffffffff16639dc29fac33846040518363ffffffff1660e01b8152600401808373ffffffffffffffffffffffffffffffffffffffff1673ffffffffffffffffffffffffffffffffffffffff16815260200182815260200192505050600060405180830381600087803b15801561118857600080fd5b505af115801561119c573d6000803e3d6000fd5b505050505050565b60016020528060005260406000206000915090505481565b600081600560006101000a81548173ffffffffffffffffffffffffffffffffffffffff021916908373ffffffffffffffffffffffffffffffffffffffff16021790555060008060003373ffffffffffffffffffffffffffffffffffffffff1673ffffffffffffffffffffffffffffffffffffffff1681526020019081526020016000205490506000600560009054906101000a900473ffffffffffffffffffffffffffffffffffffffff1673ffffffffffffffffffffffffffffffffffffffff1663fe1d92346040518163ffffffff1660e01b8152600401602060405180830381600087803b1580156112ae57600080fd5b505af11580156112c2573d6000803e3d6000fd5b505050506040513d60208110156112d857600080fd5b810190808051906020019092919050505090506000600560009054906101000a900473ffffffffffffffffffffffffffffffffffffffff1673ffffffffffffffffffffffffffffffffffffffff16631ef476b76040518163ffffffff1660e01b8152600401602060405180830381600087803b15801561135757600080fd5b505af115801561136b573d6000803e3d6000fd5b505050506040513d602081101561138157600080fd5b810190808051906020019092919050505090506000600560009054906101000a900473ffffffffffffffffffffffffffffffffffffffff1673ffffffffffffffffffffffffffffffffffffffff1663d513c5106040518163ffffffff1660e01b8152600401602060405180830381600087803b15801561140057600080fd5b505af1158015611414573d6000803e3d6000fd5b505050506040513d602081101561142a57600080fd5b81019080805190602001909291905050509050600081850290508095505050505050919050565b600060608373ffffffffffffffffffffffffffffffffffffffff168360405180600001905060006040518083038185875af1925050503d80600081146114b3576040519150601f19603f3d011682016040523d82523d6000602084013e6114b8565b606091505b509150915081611530576040517f08c379a00000000000000000000000000000000000000000000000000000000081526004018080602001828103825260138152602001807f4661696c656420746f2073656e6420524254430000000000000000000000000081525060200191505060405180910390fd5b50505050565b600081600560006101000a81548173ffffffffffffffffffffffffffffffffffffffff021916908373ffffffffffffffffffffffffffffffffffffffff1602179055506000600560009054906101000a900473ffffffffffffffffffffffffffffffffffffffff1673ffffffffffffffffffffffffffffffffffffffff16631ef476b76040518163ffffffff1660e01b8152600401602060405180830381600087803b1580156115e557600080fd5b505af11580156115f9573d6000803e3d6000fd5b505050506040513d602081101561160f57600080fd5b810190808051906020019092919050505090506000600560009054906101000a900473ffffffffffffffffffffffffffffffffffffffff1673ffffffffffffffffffffffffffffffffffffffff1663fe1d92346040518163ffffffff1660e01b8152600401602060405180830381600087803b15801561168e57600080fd5b505af11580156116a2573d6000803e3d6000fd5b505050506040513d60208110156116b857600080fd5b810190808051906020019092919050505090506000826116db83620f42406116f0565b816116e257fe5b049050809350505050919050565b60008082148061170d575082828385029250828161170a57fe5b04145b61171657600080fd5b9291505056fe73616665656e67696e652f6e6f6e2d64757374792d636f6c6c61746572616c2d726571756972656473616665656e67696e652f696e73756666696369656e742d636f6c6c61746572616c2d746f2d6d696e742d737461626c657373616665656e67696e652f616d6f756e742d657863656564732d6465706f73697473a2646970667358221220a59dd9459661d9eecde532be311ceb8b0bf5a1e99624e50a42c3b0a6cfc513f564736f6c63430006070033",
  "immutableReferences": {},
  "source": "pragma solidity 0.6.7;\n\n\ncontract CoinLike{\n  mapping (address => uint256)                      public balanceOf;\n  // Mapping of allowances\n  mapping (address => mapping (address => uint256)) public allowance;\n  // Mapping of nonces used for permits\n  mapping (address => uint256)                      public nonces;\n  function addAuthorization(address account) external {}\n  function removeAuthorization(address account) external {}\n  function transfer(address dst, uint256 amount) external returns (bool) {}\n  function transferFrom(address src, address dst, uint256 amount)\n        public returns (bool){}\n  function mint(address usr, uint256 amount) external {}\n  function burn(address usr, uint256 amount) external {}\n  function approve(address usr, uint256 amount) external returns (bool) {}\n  function push(address usr, uint256 amount) external {}\n  function pull(address usr, uint256 amount) external {}\n  function move(address src, address dst, uint256 amount) external {}\n  function permit(\n        address holder,\n        address spender,\n        uint256 nonce,\n        uint256 expiry,\n        bool allowed,\n        uint8 v,\n        bytes32 r,\n        bytes32 s\n    ) external\n    {}\n}\n\ncontract OracleLike{\n  function addAuthorization(address account) external {}\n  function removeAuthorization(address account) external {}\n  function setCollateralRatio(uint256 ratio) external {}\n  function peekCollateralRatio() external returns(uint256) {}\n  function peekBSMA() external returns(uint256){}\n  function peekBX() external returns(uint256){}\n}\n\ncontract SafeTracker {\n\nmapping (address=>uint256) public collateral; // collateral deposited by UserAddress\nmapping (address=>uint256) public debtIssued; // debt issued by UserAddress\n\naddress Oracle;\naddress Coin;\nuint256 dust; //Minimum amount of collateral deposited\n\nOracleLike Orc;\nCoinLike coin;\n\nconstructor(address ORC, uint256 DUST) public {\n  Oracle = ORC;\n  dust = DUST;\n  authorizedAccounts[msg.sender] = 1;\n}\nevent AddAuthorization(address account);\nevent RemoveAuthorization(address account);\n\nmapping (address => uint256) public authorizedAccounts;\n/**\n * @notice Add auth to an account\n * @param account Account to add auth to\n */\nfunction addAuthorization(address account) external isAuthorized {\n    authorizedAccounts[account] = 1;\n    emit AddAuthorization(account);\n}\n/**\n * @notice Remove auth from an account\n * @param account Account to remove auth from\n */\nfunction removeAuthorization(address account) external isAuthorized {\n    authorizedAccounts[account] = 0;\n    emit RemoveAuthorization(account);\n}\n/**\n* @notice Checks whether msg.sender can call an authed function\n**/\nmodifier isAuthorized {\n    require(authorizedAccounts[msg.sender] == 1, \"Coin/account-not-authorized\");\n    _;\n}\n\n// math\nfunction add(uint x, uint y) internal pure returns (uint z) {\n    require((z = x + y) >= x);\n}\nfunction sub(uint x, uint y) internal pure returns (uint z) {\n    require((z = x - y) <= x);\n}\nfunction mul(uint x, uint y) internal pure returns (uint z) {\n    require(y == 0 || (z = x * y) / y == x);\n}\n\nfunction setCoin(address STABLE) external isAuthorized {\n  Coin = STABLE;\n}\n\nfunction computeDebtLimit(address _oracle) internal returns (uint256){\n   Orc = OracleLike(_oracle);\n   //TODO: check safeID exists;\n   uint256 _collateral = collateral[msg.sender]; //Amount of RBTC Collateral in SAFE\n   uint256 currentBSMA = Orc.peekBSMA(); //Current USD redemption rate of 1 xBTC\n   uint256 currentBX = Orc.peekBX();\n   // uint256 currentBSMA = 24000;\n   uint256 currentCollateralRatio = Orc.peekCollateralRatio(); //12500 by default, to be divided by 100\n   // uint256 currentDebtLimit = ((_collateral * currentBSMA ) / currentBX) ; // maximum amount of xBTC that can be minted by a particular safe given current collateral\n   uint256 currentDebtLimit = _collateral * currentCollateralRatio; // 1 xBTC can be minted (borrowed) for every 1.25 BTC collateral by default.\n   return currentDebtLimit;\n }\n\n function computeRedeemPrice(address _oracle) internal returns (uint256){\n   Orc = OracleLike(_oracle);\n   //TODO: check safeID exists;\n   uint256 currentBX = Orc.peekBX(); //BTC-USD exchange rate\n   uint256 currentBSMA = Orc.peekBSMA(); //Current USD redemption rate of 1 xBTC\n   uint256 currentRedeemPrice = mul(currentBSMA,1000000)/currentBX; //10e3 multiplier to preserve precision of fraction.\n   return currentRedeemPrice;\n }\n\n function sendRBTC(address payable _to, uint256 amount) internal {\n        // Call returns a boolean value indicating success or failure.\n        (bool sent, bytes memory data) = _to.call{value: amount}(\"\");\n        require(sent, \"Failed to send RBTC\");\n    }\n\n //deposit RBTC collateral in safe\n //use existing safeID or make new safe with lastSAFEID+1\n function depositCollateral() public payable {\n    require(msg.value>=dust, 'safeengine/non-dusty-collateral-required');\n    // TODO: check SAFEID exists, or create new one via getLastSafeID function.\n    // SAFE storage safe = safes[SafeID]; // modularized for clarity\n    collateral[msg.sender] = (collateral[msg.sender]) + msg.value;\n  }\n\n  function takeDebt(uint256 amount) public {\n    //collateral sufficiency check\n    // SAFE storage safe = safes[SafeID];\n    uint256 debtLimit = computeDebtLimit(Oracle);\n    uint256 issuedDebt = debtIssued[msg.sender];\n    uint256 availableDebt = debtLimit - issuedDebt;\n    require(availableDebt >= amount, \"safeengine/insufficient-collateral-to-mint-stables\");\n    coin = CoinLike(Coin);\n    debtIssued[msg.sender] = (debtIssued[msg.sender] + amount);\n    coin.mint(msg.sender, amount);\n  }\n\n  function returnDebt(uint256 amount) public {\n    uint256 issuedDebt = debtIssued[msg.sender];\n    require(issuedDebt >= amount, \"safeengine/exceeds-debt-amount\");\n    coin = CoinLike(Coin);\n    debtIssued[msg.sender] = (debtIssued[msg.sender] - amount);\n    coin.burn(msg.sender, amount);\n  }\n\n  function redeemCoins(uint256 amount) public payable {\n    coin = CoinLike(Coin);\n    require(coin.balanceOf(msg.sender)>=amount, \"safeengine/exceeds-balance\");\n    uint256 redemptionRatePerCoin = computeRedeemPrice(Oracle);\n    uint256 totalRedemptionAmount = mul(redemptionRatePerCoin, amount)/1000000;\n    coin.burn(msg.sender, amount);\n    sendRBTC(msg.sender, totalRedemptionAmount);\n  }\n\n  function removeCollateral(uint256 amount) public payable {\n     require(amount>=dust, 'safeengine/non-dusty-collateral-required');\n     // TODO: check SAFEID exists.\n     uint256 _collateral = collateral[msg.sender]; //Amount of RBTC Collateral in SAFE\n     require(amount<=_collateral, 'safeengine/amount-exceeds-deposits');\n     collateral[msg.sender] = (collateral[msg.sender]) - amount;\n     sendRBTC(msg.sender, amount);\n   }\n}\n",
  "sourcePath": "/Users/dm/Documents/wishbone/BrainDAO/contracts/safeengine.sol",
  "compiler": {
    "name": "solc",
    "version": "0.6.7+commit.b8d736ae.Emscripten.clang"
  },
  "schemaVersion": "3.4.3",
  "updatedAt": "2022-01-28T15:57:14.647Z",
  "networkType": "ethereum",
  "devdoc": {
    "methods": {
      "addAuthorization(address)": {
        "params": {
          "account": "Account to add auth to"
        }
      },
      "removeAuthorization(address)": {
        "params": {
          "account": "Account to remove auth from"
        }
      }
    }
  },
  "userdoc": {
    "methods": {
      "addAuthorization(address)": {
        "notice": "Add auth to an account"
      },
      "removeAuthorization(address)": {
        "notice": "Remove auth from an account"
      }
    }
  }
}