{
  "contractName": "SafeTracker",
  "abi": [
    {
      "inputs": [
        {
          "internalType": "address",
          "name": "ORC",
          "type": "address"
        },
        {
          "internalType": "address",
          "name": "STABLE",
          "type": "address"
        },
        {
          "internalType": "uint256",
          "name": "DUST",
          "type": "uint256"
        }
      ],
      "stateMutability": "nonpayable",
      "type": "constructor"
    },
    {
      "inputs": [
        {
          "internalType": "uint256",
          "name": "index",
          "type": "uint256"
        }
      ],
      "name": "getSafeCollateral",
      "outputs": [
        {
          "internalType": "uint256",
          "name": "",
          "type": "uint256"
        }
      ],
      "stateMutability": "nonpayable",
      "type": "function"
    },
    {
      "inputs": [
        {
          "internalType": "uint256",
          "name": "index",
          "type": "uint256"
        }
      ],
      "name": "getSafeDebt",
      "outputs": [
        {
          "internalType": "uint256",
          "name": "",
          "type": "uint256"
        }
      ],
      "stateMutability": "nonpayable",
      "type": "function"
    },
    {
      "inputs": [
        {
          "internalType": "uint256",
          "name": "SafeId",
          "type": "uint256"
        }
      ],
      "name": "depositCollateral",
      "outputs": [],
      "stateMutability": "payable",
      "type": "function",
      "payable": true
    },
    {
      "inputs": [
        {
          "internalType": "uint256",
          "name": "amount",
          "type": "uint256"
        },
        {
          "internalType": "uint256",
          "name": "SafeId",
          "type": "uint256"
        }
      ],
      "name": "takeDebt",
      "outputs": [],
      "stateMutability": "nonpayable",
      "type": "function"
    },
    {
      "inputs": [
        {
          "internalType": "uint256",
          "name": "amount",
          "type": "uint256"
        },
        {
          "internalType": "uint256",
          "name": "SafeId",
          "type": "uint256"
        }
      ],
      "name": "returnDebt",
      "outputs": [],
      "stateMutability": "nonpayable",
      "type": "function"
    },
    {
      "inputs": [
        {
          "internalType": "uint256",
          "name": "amount",
          "type": "uint256"
        }
      ],
      "name": "redeemCoins",
      "outputs": [],
      "stateMutability": "payable",
      "type": "function",
      "payable": true
    },
    {
      "inputs": [
        {
          "internalType": "uint256",
          "name": "SafeID",
          "type": "uint256"
        },
        {
          "internalType": "uint256",
          "name": "amount",
          "type": "uint256"
        }
      ],
      "name": "removeCollateral",
      "outputs": [],
      "stateMutability": "payable",
      "type": "function",
      "payable": true
    }
  ],
  "bytecode": "0x608060405234801561001057600080fd5b5060405161131b38038061131b8339818101604052606081101561003357600080fd5b8101908080519060200190929190805190602001909291908051906020019092919050505082600160006101000a81548173ffffffffffffffffffffffffffffffffffffffff021916908373ffffffffffffffffffffffffffffffffffffffff16021790555081600260006101000a81548173ffffffffffffffffffffffffffffffffffffffff021916908373ffffffffffffffffffffffffffffffffffffffff16021790555080600381905550505050611228806100f36000396000f3fe6080604052600436106100705760003560e01c806349d88e8c1161004e57806349d88e8c146101375780636a9b18911461017c57806370029995146101b4578063bad4a01f1461020357610070565b806308652076146100755780632bfb1d05146100c457806339eb283c14610109575b600080fd5b34801561008157600080fd5b506100ae6004803603602081101561009857600080fd5b8101908080359060200190929190505050610231565b6040518082815260200191505060405180910390f35b3480156100d057600080fd5b50610107600480360360408110156100e757600080fd5b810190808035906020019092919080359060200190929190505050610264565b005b6101356004803603602081101561011f57600080fd5b8101908080359060200190929190505050610563565b005b34801561014357600080fd5b5061017a6004803603604081101561015a57600080fd5b810190808035906020019092919080359060200190929190505050610827565b005b6101b26004803603604081101561019257600080fd5b810190808035906020019092919080359060200190929190505050610b0a565b005b3480156101c057600080fd5b506101ed600480360360208110156101d757600080fd5b8101908080359060200190929190505050610c32565b6040518082815260200191505060405180910390f35b61022f6004803603602081101561021957600080fd5b8101908080359060200190929190505050610c65565b005b6000806000838154811061024157fe5b906000526020600020906003020190506000816000015490508092505050919050565b3373ffffffffffffffffffffffffffffffffffffffff166000828154811061028857fe5b906000526020600020906003020160020160009054906101000a900473ffffffffffffffffffffffffffffffffffffffff1673ffffffffffffffffffffffffffffffffffffffff1614610343576040517f08c379a000000000000000000000000000000000000000000000000000000000815260040180806020018281038252601e8152602001807f73616665656e67696e652f736166652d6e6f742d617574686f7269736564000081525060200191505060405180910390fd5b600061037182600160009054906101000a900473ffffffffffffffffffffffffffffffffffffffff16610d06565b9050600080838154811061038157fe5b906000526020600020906003020160010154905060008183039050848110156103f5576040517f08c379a000000000000000000000000000000000000000000000000000000000815260040180806020018281038252603281526020018061119f6032913960400191505060405180910390fd5b600260009054906101000a900473ffffffffffffffffffffffffffffffffffffffff16600560006101000a81548173ffffffffffffffffffffffffffffffffffffffff021916908373ffffffffffffffffffffffffffffffffffffffff160217905550846000858154811061046657fe5b906000526020600020906003020160010154016000858154811061048657fe5b906000526020600020906003020160010181905550600560009054906101000a900473ffffffffffffffffffffffffffffffffffffffff1673ffffffffffffffffffffffffffffffffffffffff166340c10f1933876040518363ffffffff1660e01b8152600401808373ffffffffffffffffffffffffffffffffffffffff1673ffffffffffffffffffffffffffffffffffffffff16815260200182815260200192505050600060405180830381600087803b15801561054457600080fd5b505af1158015610558573d6000803e3d6000fd5b505050505050505050565b600260009054906101000a900473ffffffffffffffffffffffffffffffffffffffff16600560006101000a81548173ffffffffffffffffffffffffffffffffffffffff021916908373ffffffffffffffffffffffffffffffffffffffff16021790555080600560009054906101000a900473ffffffffffffffffffffffffffffffffffffffff1673ffffffffffffffffffffffffffffffffffffffff166370a08231336040518263ffffffff1660e01b8152600401808273ffffffffffffffffffffffffffffffffffffffff1673ffffffffffffffffffffffffffffffffffffffff16815260200191505060206040518083038186803b15801561066657600080fd5b505afa15801561067a573d6000803e3d6000fd5b505050506040513d602081101561069057600080fd5b81019080805190602001909291905050501015610715576040517f08c379a000000000000000000000000000000000000000000000000000000000815260040180806020018281038252601a8152602001807f73616665656e67696e652f657863656564732d62616c616e636500000000000081525060200191505060405180910390fd5b6000610742600160009054906101000a900473ffffffffffffffffffffffffffffffffffffffff16610ede565b90506000620f42408383028161075457fe5b049050600560009054906101000a900473ffffffffffffffffffffffffffffffffffffffff1673ffffffffffffffffffffffffffffffffffffffff16639dc29fac33856040518363ffffffff1660e01b8152600401808373ffffffffffffffffffffffffffffffffffffffff1673ffffffffffffffffffffffffffffffffffffffff16815260200182815260200192505050600060405180830381600087803b15801561080057600080fd5b505af1158015610814573d6000803e3d6000fd5b505050506108223382611091565b505050565b3373ffffffffffffffffffffffffffffffffffffffff166000828154811061084b57fe5b906000526020600020906003020160020160009054906101000a900473ffffffffffffffffffffffffffffffffffffffff1673ffffffffffffffffffffffffffffffffffffffff1614610906576040517f08c379a000000000000000000000000000000000000000000000000000000000815260040180806020018281038252601e8152602001807f73616665656e67696e652f736166652d6e6f742d617574686f7269736564000081525060200191505060405180910390fd5b600080828154811061091457fe5b90600052602060002090600302016001015490508281101561099e576040517f08c379a000000000000000000000000000000000000000000000000000000000815260040180806020018281038252601e8152602001807f73616665656e67696e652f657863656564732d646562742d616d6f756e74000081525060200191505060405180910390fd5b600260009054906101000a900473ffffffffffffffffffffffffffffffffffffffff16600560006101000a81548173ffffffffffffffffffffffffffffffffffffffff021916908373ffffffffffffffffffffffffffffffffffffffff1602179055508260008381548110610a0f57fe5b9060005260206000209060030201600101540360008381548110610a2f57fe5b906000526020600020906003020160010181905550600560009054906101000a900473ffffffffffffffffffffffffffffffffffffffff1673ffffffffffffffffffffffffffffffffffffffff16639dc29fac33856040518363ffffffff1660e01b8152600401808373ffffffffffffffffffffffffffffffffffffffff1673ffffffffffffffffffffffffffffffffffffffff16815260200182815260200192505050600060405180830381600087803b158015610aed57600080fd5b505af1158015610b01573d6000803e3d6000fd5b50505050505050565b600354811015610b65576040517f08c379a00000000000000000000000000000000000000000000000000000000081526004018080602001828103825260288152602001806111776028913960400191505060405180910390fd5b6000808381548110610b7357fe5b906000526020600020906003020160000154905080821115610be0576040517f08c379a00000000000000000000000000000000000000000000000000000000081526004018080602001828103825260228152602001806111d16022913960400191505060405180910390fd5b8160008481548110610bee57fe5b9060005260206000209060030201600001540360008481548110610c0e57fe5b906000526020600020906003020160000181905550610c2d3383611091565b505050565b60008060008381548110610c4257fe5b906000526020600020906003020190506000816001015490508092505050919050565b600354341015610cc0576040517f08c379a00000000000000000000000000000000000000000000000000000000081526004018080602001828103825260288152602001806111776028913960400191505060405180910390fd5b3460008281548110610cce57fe5b9060005260206000209060030201600001540160008281548110610cee57fe5b90600052602060002090600302016000018190555050565b600081600460006101000a81548173ffffffffffffffffffffffffffffffffffffffff021916908373ffffffffffffffffffffffffffffffffffffffff1602179055506000808481548110610d5757fe5b90600052602060002090600302016000015490506000600460009054906101000a900473ffffffffffffffffffffffffffffffffffffffff1673ffffffffffffffffffffffffffffffffffffffff1663fe1d92346040518163ffffffff1660e01b8152600401602060405180830381600087803b158015610dd757600080fd5b505af1158015610deb573d6000803e3d6000fd5b505050506040513d6020811015610e0157600080fd5b810190808051906020019092919050505090506000600460009054906101000a900473ffffffffffffffffffffffffffffffffffffffff1673ffffffffffffffffffffffffffffffffffffffff1663d513c5106040518163ffffffff1660e01b8152600401602060405180830381600087803b158015610e8057600080fd5b505af1158015610e94573d6000803e3d6000fd5b505050506040513d6020811015610eaa57600080fd5b8101908080519060200190929190505050905060006127108284860281610ecd57fe5b040290508094505050505092915050565b600081600460006101000a81548173ffffffffffffffffffffffffffffffffffffffff021916908373ffffffffffffffffffffffffffffffffffffffff1602179055506000600460009054906101000a900473ffffffffffffffffffffffffffffffffffffffff1673ffffffffffffffffffffffffffffffffffffffff16631ef476b76040518163ffffffff1660e01b8152600401602060405180830381600087803b158015610f8d57600080fd5b505af1158015610fa1573d6000803e3d6000fd5b505050506040513d6020811015610fb757600080fd5b810190808051906020019092919050505090506000600460009054906101000a900473ffffffffffffffffffffffffffffffffffffffff1673ffffffffffffffffffffffffffffffffffffffff1663fe1d92346040518163ffffffff1660e01b8152600401602060405180830381600087803b15801561103657600080fd5b505af115801561104a573d6000803e3d6000fd5b505050506040513d602081101561106057600080fd5b810190808051906020019092919050505090506000620f424082848161108257fe5b04029050809350505050919050565b600060608373ffffffffffffffffffffffffffffffffffffffff168360405180600001905060006040518083038185875af1925050503d80600081146110f3576040519150601f19603f3d011682016040523d82523d6000602084013e6110f8565b606091505b509150915081611170576040517f08c379a00000000000000000000000000000000000000000000000000000000081526004018080602001828103825260138152602001807f4661696c656420746f2073656e6420524254430000000000000000000000000081525060200191505060405180910390fd5b5050505056fe73616665656e67696e652f6e6f6e2d64757374792d636f6c6c61746572616c2d726571756972656473616665656e67696e652f696e73756666696369656e742d636f6c6c61746572616c2d746f2d6d696e742d737461626c657373616665656e67696e652f616d6f756e742d657863656564732d6465706f73697473a2646970667358221220965c6a6eb37c6e6246161917f0b9de474877fdc4b68dcd03cf4cc3459e5d31f464736f6c63430006070033",
  "immutableReferences": {},
  "source": "pragma solidity 0.6.7;\n\n\ncontract CoinLike{\n  mapping (address => uint256)                      public balanceOf;\n  // Mapping of allowances\n  mapping (address => mapping (address => uint256)) public allowance;\n  // Mapping of nonces used for permits\n  mapping (address => uint256)                      public nonces;\n  function addAuthorization(address account) external {}\n  function removeAuthorization(address account) external {}\n  function transfer(address dst, uint256 amount) external returns (bool) {}\n  function transferFrom(address src, address dst, uint256 amount)\n        public returns (bool){}\n  function mint(address usr, uint256 amount) external {}\n  function burn(address usr, uint256 amount) external {}\n  function approve(address usr, uint256 amount) external returns (bool) {}\n  function push(address usr, uint256 amount) external {}\n  function pull(address usr, uint256 amount) external {}\n  function move(address src, address dst, uint256 amount) external {}\n  function permit(\n        address holder,\n        address spender,\n        uint256 nonce,\n        uint256 expiry,\n        bool allowed,\n        uint8 v,\n        bytes32 r,\n        bytes32 s\n    ) external\n    {}\n}\n\ncontract OracleLike{\n  function addAuthorization(address account) external {}\n  function removeAuthorization(address account) external {}\n  function setCollateralRatio(uint256 ratio) external {}\n  function peekCollateralRatio() external returns(uint256) {}\n  function peekBSMA() external returns(uint256){}\n  function peekBX() external returns(uint256){}\n}\n\ncontract SafeTracker {\n\nstruct SAFE {\n    uint256 collateral;\n    uint256 debtIssued;\n    address UserAddress;\n    }\n\n    SAFE[] safes; // list of all SAFE Balances\n\n\n\naddress Oracle;\naddress Coin;\nuint256 dust; //Minimum amount of collateral deposited\n\nOracleLike Orc;\nCoinLike coin;\n\nconstructor(address ORC, address STABLE, uint256 DUST) public {\n  Oracle = ORC;\n  Coin = STABLE;\n  dust = DUST;\n}\n\n// Test function; can be decomposed.\nfunction getSafeCollateral(uint256 index) public returns (uint256) {\n    SAFE storage safe = safes[index];\n    uint256 collateral = safe.collateral;\n    //\n    return collateral;\n}\n\n// Test function; can be decomposed.\nfunction getSafeDebt(uint256 index) public returns (uint256) {\n  SAFE storage safe = safes[index];\n  uint256 debtIssued = safe.debtIssued;\n  return debtIssued;\n}\n\n function computeDebtLimit(uint256 SafeId, address _oracle) internal returns (uint256){\n   Orc = OracleLike(_oracle);\n   //TODO: check safeID exists;\n   uint256 collateral = safes[SafeId].collateral; //Amount of RBTC Collateral in SAFE\n   uint256 currentBSMA = Orc.peekBSMA(); //Current USD redemption rate of 1 xBTC\n   uint256 currentCollateralRatio = Orc.peekCollateralRatio(); //12500 by default, to be divided by 100\n   uint256 currentDebtLimit = (collateral * currentBSMA) / currentCollateralRatio * 10000; // maximum amount of xBTC that can be minted by a particular safe given current collateral\n   return currentDebtLimit;\n }\n\n function computeRedeemPrice(address _oracle) internal returns (uint256){\n   Orc = OracleLike(_oracle);\n   //TODO: check safeID exists;\n   uint256 currentSMA = Orc.peekBX(); //BTC-USD exchange rate\n   uint256 currentBSMA = Orc.peekBSMA(); //Current USD redemption rate of 1 xBTC\n   uint256 currentRedeemPrice = (currentSMA/currentBSMA)*1000000; //10e6 multiplier to preserve precision of fraction\n   return currentRedeemPrice;\n }\n\n function sendRBTC(address payable _to, uint256 amount) internal {\n        // Call returns a boolean value indicating success or failure.\n        (bool sent, bytes memory data) = _to.call{value: amount}(\"\");\n        require(sent, \"Failed to send RBTC\");\n    }\n\n //deposit RBTC collateral in safe\n //use existing safeID or make new safe with lastSAFEID+1\n function depositCollateral(uint256 SafeId) public payable {\n    require(msg.value>=dust, 'safeengine/non-dusty-collateral-required');\n    // TODO: check SAFEID exists, or create new one via getLastSafeID function.\n    // SAFE storage safe = safes[SafeID]; // modularized for clarity\n    safes[SafeId].collateral = (safes[SafeId].collateral) + msg.value;\n  }\n\n  function takeDebt(uint256 amount, uint256 SafeId) public {\n    require(safes[SafeId].UserAddress==msg.sender, 'safeengine/safe-not-authorised'); // SAFE only accessible by creator\n    //collateral sufficiency check\n    // SAFE storage safe = safes[SafeID];\n    uint256 debtLimit = computeDebtLimit(SafeId, Oracle);\n    uint256 issuedDebt = safes[SafeId].debtIssued;\n    uint256 availableDebt = debtLimit - issuedDebt;\n    require(availableDebt >= amount, \"safeengine/insufficient-collateral-to-mint-stables\");\n    coin = CoinLike(Coin);\n    safes[SafeId].debtIssued = (safes[SafeId].debtIssued + amount);\n    coin.mint(msg.sender, amount);\n  }\n\n  function returnDebt(uint256 amount, uint256 SafeId) public {\n    require(safes[SafeId].UserAddress==msg.sender, 'safeengine/safe-not-authorised');\n    uint256 issuedDebt = safes[SafeId].debtIssued;\n    require(issuedDebt >= amount, \"safeengine/exceeds-debt-amount\");\n    coin = CoinLike(Coin);\n    safes[SafeId].debtIssued = (safes[SafeId].debtIssued - amount);\n    coin.burn(msg.sender, amount);\n  }\n\n  function redeemCoins(uint256 amount) public payable {\n    coin = CoinLike(Coin);\n    require(coin.balanceOf(msg.sender)>=amount, \"safeengine/exceeds-balance\");\n    uint256 redemptionRatePerCoin = computeRedeemPrice(Oracle);\n    uint256 totalRedemptionAmount = (redemptionRatePerCoin * amount)/1000000;\n    coin.burn(msg.sender, amount);\n    sendRBTC(msg.sender, totalRedemptionAmount);\n  }\n\n  function removeCollateral(uint256 SafeID, uint256 amount) public payable {\n     require(amount>=dust, 'safeengine/non-dusty-collateral-required');\n     // TODO: check SAFEID exists.\n     uint256 collateral = safes[SafeID].collateral; //Amount of RBTC Collateral in SAFE\n     require(amount<=collateral, 'safeengine/amount-exceeds-deposits');\n     safes[SafeID].collateral = (safes[SafeID].collateral) - amount;\n     sendRBTC(msg.sender, amount);\n   }\n}\n",
  "sourcePath": "/Users/dm/Documents/wishbone/BrainDAO/contracts/safeengine.sol",
  "compiler": {
    "name": "solc",
    "version": "0.6.7+commit.b8d736ae.Emscripten.clang"
  },
  "schemaVersion": "3.4.3",
  "updatedAt": "2021-11-27T15:09:05.579Z",
  "networkType": "ethereum",
  "devdoc": {
    "methods": {}
  },
  "userdoc": {
    "methods": {}
  }
}