{
  "contractName": "TaxCollector",
  "abi": [
    {
      "inputs": [
        {
          "internalType": "address",
          "name": "CDPcontract",
          "type": "address"
        }
      ],
      "stateMutability": "nonpayable",
      "type": "constructor"
    },
    {
      "anonymous": false,
      "inputs": [
        {
          "indexed": false,
          "internalType": "address",
          "name": "account",
          "type": "address"
        }
      ],
      "name": "AddAuthorization",
      "type": "event"
    },
    {
      "anonymous": false,
      "inputs": [
        {
          "indexed": true,
          "internalType": "bytes32",
          "name": "collateralType",
          "type": "bytes32"
        },
        {
          "indexed": false,
          "internalType": "uint256",
          "name": "latestAccumulatedRate",
          "type": "uint256"
        },
        {
          "indexed": false,
          "internalType": "int256",
          "name": "deltaRate",
          "type": "int256"
        }
      ],
      "name": "CollectTax",
      "type": "event"
    },
    {
      "anonymous": false,
      "inputs": [
        {
          "indexed": true,
          "internalType": "bytes32",
          "name": "collateralType",
          "type": "bytes32"
        },
        {
          "indexed": true,
          "internalType": "address",
          "name": "target",
          "type": "address"
        },
        {
          "indexed": false,
          "internalType": "int256",
          "name": "taxCut",
          "type": "int256"
        }
      ],
      "name": "DistributeTax",
      "type": "event"
    },
    {
      "anonymous": false,
      "inputs": [
        {
          "indexed": false,
          "internalType": "bytes32",
          "name": "parameter",
          "type": "bytes32"
        },
        {
          "indexed": false,
          "internalType": "uint256",
          "name": "data",
          "type": "uint256"
        }
      ],
      "name": "ModifyParameters",
      "type": "event"
    },
    {
      "anonymous": false,
      "inputs": [
        {
          "indexed": false,
          "internalType": "bytes32",
          "name": "parameter",
          "type": "bytes32"
        },
        {
          "indexed": false,
          "internalType": "address",
          "name": "data",
          "type": "address"
        }
      ],
      "name": "ModifyParameters",
      "type": "event"
    },
    {
      "anonymous": false,
      "inputs": [
        {
          "indexed": false,
          "internalType": "uint256",
          "name": "position",
          "type": "uint256"
        },
        {
          "indexed": false,
          "internalType": "uint256",
          "name": "val",
          "type": "uint256"
        }
      ],
      "name": "ModifyParameters",
      "type": "event"
    },
    {
      "anonymous": false,
      "inputs": [
        {
          "indexed": false,
          "internalType": "uint256",
          "name": "position",
          "type": "uint256"
        },
        {
          "indexed": false,
          "internalType": "uint256",
          "name": "taxPercentage",
          "type": "uint256"
        },
        {
          "indexed": false,
          "internalType": "address",
          "name": "receiverAccount",
          "type": "address"
        }
      ],
      "name": "ModifyParameters",
      "type": "event"
    },
    {
      "anonymous": false,
      "inputs": [
        {
          "indexed": false,
          "internalType": "address",
          "name": "account",
          "type": "address"
        }
      ],
      "name": "RemoveAuthorization",
      "type": "event"
    },
    {
      "inputs": [
        {
          "internalType": "address",
          "name": "",
          "type": "address"
        }
      ],
      "name": "authorizedAccounts",
      "outputs": [
        {
          "internalType": "uint256",
          "name": "",
          "type": "uint256"
        }
      ],
      "stateMutability": "view",
      "type": "function",
      "constant": true
    },
    {
      "inputs": [],
      "name": "primaryTaxReceiver",
      "outputs": [
        {
          "internalType": "address",
          "name": "",
          "type": "address"
        }
      ],
      "stateMutability": "view",
      "type": "function",
      "constant": true
    },
    {
      "inputs": [],
      "name": "taxSingleOutcomeL",
      "outputs": [
        {
          "internalType": "uint256",
          "name": "",
          "type": "uint256"
        }
      ],
      "stateMutability": "nonpayable",
      "type": "function"
    },
    {
      "inputs": [],
      "name": "updateAR",
      "outputs": [
        {
          "internalType": "uint256",
          "name": "",
          "type": "uint256"
        }
      ],
      "stateMutability": "nonpayable",
      "type": "function"
    },
    {
      "inputs": [
        {
          "internalType": "uint256",
          "name": "newRate",
          "type": "uint256"
        }
      ],
      "name": "changeInterest",
      "outputs": [
        {
          "internalType": "bool",
          "name": "",
          "type": "bool"
        }
      ],
      "stateMutability": "nonpayable",
      "type": "function"
    },
    {
      "inputs": [
        {
          "internalType": "address",
          "name": "account",
          "type": "address"
        }
      ],
      "name": "addAuthorization",
      "outputs": [],
      "stateMutability": "nonpayable",
      "type": "function"
    },
    {
      "inputs": [
        {
          "internalType": "address",
          "name": "account",
          "type": "address"
        }
      ],
      "name": "removeAuthorization",
      "outputs": [],
      "stateMutability": "nonpayable",
      "type": "function"
    }
  ],
  "bytecode": "0x60806040526a52b7d889cd3320860c8362600055620186a06002556a52b7f179957df14dbc836260035534801561003557600080fd5b506040516108ed3803806108ed8339818101604052602081101561005857600080fd5b810190808051906020019092919050505080600560006101000a81548173ffffffffffffffffffffffffffffffffffffffff021916908373ffffffffffffffffffffffffffffffffffffffff16021790555050610833806100ba6000396000f3fe608060405234801561001057600080fd5b506004361061007d5760003560e01c8063542f76a61161005b578063542f76a61461013c5780635a63561c146101865780637a7c156e146101cc57806394f3f81d146101ea5761007d565b806324ba58841461008257806328271b85146100da57806335b28153146100f8575b600080fd5b6100c46004803603602081101561009857600080fd5b81019080803573ffffffffffffffffffffffffffffffffffffffff16906020019092919050505061022e565b6040518082815260200191505060405180910390f35b6100e2610246565b6040518082815260200191505060405180910390f35b61013a6004803603602081101561010e57600080fd5b81019080803573ffffffffffffffffffffffffffffffffffffffff169060200190929190505050610270565b005b6101446103b3565b604051808273ffffffffffffffffffffffffffffffffffffffff1673ffffffffffffffffffffffffffffffffffffffff16815260200191505060405180910390f35b6101b26004803603602081101561019c57600080fd5b81019080803590602001909291905050506103d9565b604051808215151515815260200191505060405180910390f35b6101d461048c565b6040518082815260200191505060405180910390f35b61022c6004803603602081101561020057600080fd5b81019080803573ffffffffffffffffffffffffffffffffffffffff1690602001909291905050506104b4565b005b60086020528060005260406000206000915090505481565b6000806000549050600061025f60035462014c086105f7565b905080600081905550809250505090565b6001600860003373ffffffffffffffffffffffffffffffffffffffff1673ffffffffffffffffffffffffffffffffffffffff1681526020019081526020016000205414610308576040517f08c379a00000000000000000000000000000000000000000000000000000000081526004018080602001828103825260238152602001806107db6023913960400191505060405180910390fd5b6001600860008373ffffffffffffffffffffffffffffffffffffffff1673ffffffffffffffffffffffffffffffffffffffff168152602001908152602001600020819055507f599a298163e1678bb1c676052a8930bf0b8a1261ed6e01b8a2391e55f700010281604051808273ffffffffffffffffffffffffffffffffffffffff1673ffffffffffffffffffffffffffffffffffffffff16815260200191505060405180910390a150565b600460009054906101000a900473ffffffffffffffffffffffffffffffffffffffff1681565b60006001600860003373ffffffffffffffffffffffffffffffffffffffff1673ffffffffffffffffffffffffffffffffffffffff1681526020019081526020016000205414610473576040517f08c379a00000000000000000000000000000000000000000000000000000000081526004018080602001828103825260238152602001806107db6023913960400191505060405180910390fd5b600061047d61048c565b90508260038190555050919050565b600080610497610246565b905080600660010181905550426006600001819055508091505090565b6001600860003373ffffffffffffffffffffffffffffffffffffffff1673ffffffffffffffffffffffffffffffffffffffff168152602001908152602001600020541461054c576040517f08c379a00000000000000000000000000000000000000000000000000000000081526004018080602001828103825260238152602001806107db6023913960400191505060405180910390fd5b6000600860008373ffffffffffffffffffffffffffffffffffffffff1673ffffffffffffffffffffffffffffffffffffffff168152602001908152602001600020819055507f8834a87e641e9716be4f34527af5d23e11624f1ddeefede6ad75a9acfc31b90381604051808273ffffffffffffffffffffffffffffffffffffffff1673ffffffffffffffffffffffffffffffffffffffff16815260200191505060405180910390a150565b6000806002838161060457fe5b06141561061d576b033b2e3c9fd0803ce800000061061f565b825b90506002828161062b57fe5b0491505b6000821461067457610641838461067a565b925060006002838161064f57fe5b06146106625761065f818461067a565b90505b6002828161066c57fe5b04915061062f565b92915050565b60006b033b2e3c9fd0803ce80000006106b261069685856106c2565b60026b033b2e3c9fd0803ce8000000816106ac57fe5b04610757565b816106b957fe5b04905092915050565b6000808214806106df57508282838502925082816106dc57fe5b04145b610751576040517f08c379a00000000000000000000000000000000000000000000000000000000081526004018080602001828103825260148152602001807f64732d6d6174682d6d756c2d6f766572666c6f7700000000000000000000000081525060200191505060405180910390fd5b92915050565b60008282840191508110156107d4576040517f08c379a00000000000000000000000000000000000000000000000000000000081526004018080602001828103825260148152602001807f64732d6d6174682d6164642d6f766572666c6f7700000000000000000000000081525060200191505060405180910390fd5b9291505056fe546178436f6c6c6563746f722f6163636f756e742d6e6f742d617574686f72697a6564a26469706673582212209c99c7fa82552fa96669cb22e23f2ef22720a7bfe35ae09a0ed7e464d4bd4ba664736f6c63430006070033",
  "immutableReferences": {},
  "source": "// This program is free software: you can redistribute it and/or modify\n// it under the terms of the GNU General Public License as published by\n// the Free Software Foundation, either version 3 of the License, or\n// (at your option) any later version.\n\n// This program is distributed in the hope that it will be useful,\n// but WITHOUT ANY WARRANTY; without even the implied warranty of\n// MERCHANTABILITY or FITNESS FOR A PARTICULAR PURPOSE.  See the\n// GNU General Public License for more details.\n\n// You should have received a copy of the GNU General Public License\n// along with this program.  If not, see <http://www.gnu.org/licenses/>.\n\npragma solidity 0.6.7;\n\nimport \"./dsmath.sol\";\n\nabstract contract CDPlike {\n    function collateralData() virtual public view returns (\n        uint256 debtAmount,       // [wad]\n        uint256 accumulatedRate   // [ray]\n    );\n    function updateAccumulatedRate(bytes32,address,int256) virtual external;\n    function coinBalance(address) virtual public view returns (uint256);\n}\n\n\n\ncontract TaxCollector is DSMath {\n    uint256 RATE = 100000104701133626865910626; //[ray] per second rate, 5% per day\n    uint256 ACCRATE;\n    uint256 AccruedDebt = 100000;\n    uint256 globalStabilityFee= 100000564701133626865910626; //current per second interestDue rate\n    address public primaryTaxReceiver;\n    CDPlike CDP;\n\n    constructor(address CDPcontract) public {\n       CDP = CDPlike(CDPcontract);\n    }\n\n    //AR : Rate Accumulator\n    struct AR {\n      uint256 updateTime;\n      uint256 accumulatedRate; // [ray]\n    }\n\n    AR RateAccumulator;\n\n    // interest per second ^ N\n    function taxSingleOutcome() internal view returns (uint256, uint256) {\n      // (, uint256 lastAccumulatedRate) = CDP.collateralData();\n      uint256 lastAccumulatedRate = RATE;\n      uint256 newlyAccumulatedRate =\n        rmul(\n          rpow(\n              globalStabilityFee,     // Only one collateral type.\n            sub1(\n              now,\n              RateAccumulator.updateTime\n            )\n          ),\n        lastAccumulatedRate);\n      return (newlyAccumulatedRate, sub1(newlyAccumulatedRate, lastAccumulatedRate));\n      }\n\n      function taxSingleOutcomeL() public returns (uint256) {\n        uint256 lastAccumulatedRate = RATE;\n        uint256 newrate =rpow(\n            globalStabilityFee,     // Only one collateral type.\n          85000\n        );\n        RATE=newrate;\n        return newrate;\n        }\n\n    function updateAR() public returns (uint256) {\n      if (now <= RateAccumulator.updateTime) {\n        //(, uint256 latestAccumulatedRate) = CDP.collateralData();\n        // return latestAccumulatedRate;\n      }\n      uint256 latestAccumulatedRate = taxSingleOutcomeL();  // calculate latest AR, save it\n      // Check how much debt has been generated\n      // (uint256 debtAmount, ) = CDP.collateralData(); //globalDebt\n      // distribute Delta tax to treasury\n      RateAccumulator.accumulatedRate = latestAccumulatedRate; //update the Structs\n      RateAccumulator.updateTime = now;\n      // uint256 GeneratedDebt = debtAmount;\n      // uint256 surplus = AccruedDebt - GeneratedDebt;\n      // distributeTax(primaryTaxReceiver, debtAmount, surplus);\n      // AccruedDebt -= surplus;\n\n      // updateTime = now;\n      // emit CollectTax(latestAccumulatedRate, deltaRate);\n      return latestAccumulatedRate;\n    }\n\n\n      function changeInterest(uint256 newRate) public isAuthorized returns (bool) {\n        uint256 currentAR = updateAR(); // [ray] update AR based on old interest till current block\n        globalStabilityFee = newRate ; // [ray]  update interest rate per second\n      }\n\n      function distributeTax(\n          address receiver,\n          uint256 debtAmount,\n          uint256 surplusAmount\n      ) internal {\n          require(CDP.coinBalance(receiver) < 2**255, \"TaxCollector/coin-balance-does-not-fit-into-int256\");\n          // Check how many coins the receiver has and negate the value\n          // int256 coinBalance   = -int256(CDP.coinBalance(receiver));\n          // add to cumulative ticker of interest issued.\n          // CDP.updateIssuedInterest(receiver, surplusAmount);\n          //transfer Coins to Treasury\n          // Treasury.transfer(receiver, surplusAmount);\n          // emit DistributeTax(receiver, surplusAmount);\n        }\n\n    // --- Auth ---\n    mapping (address => uint256) public authorizedAccounts;\n    /**\n     * @notice Add auth to an account\n     * @param account Account to add auth to\n     */\n    function addAuthorization(address account) external isAuthorized {\n        authorizedAccounts[account] = 1;\n        emit AddAuthorization(account);\n    }\n    /**\n     * @notice Remove auth from an account\n     * @param account Account to remove auth from\n     */\n    function removeAuthorization(address account) external isAuthorized {\n        authorizedAccounts[account] = 0;\n        emit RemoveAuthorization(account);\n    }\n    /**\n    * @notice Checks whether msg.sender can call an authed function\n    **/\n    modifier isAuthorized {\n        require(authorizedAccounts[msg.sender] == 1, \"TaxCollector/account-not-authorized\");\n        _;\n    }\n\n    // --- Events ---\n    event AddAuthorization(address account);\n    event RemoveAuthorization(address account);\n    // event InitializeCollateralType(bytes32 collateralType);\n    event ModifyParameters(bytes32 parameter, uint256 data);\n    event ModifyParameters(bytes32 parameter, address data);\n    event ModifyParameters(\n      uint256 position,\n      uint256 val\n    );\n    event ModifyParameters(\n      uint256 position,\n      uint256 taxPercentage,\n      address receiverAccount\n    );\n    event CollectTax(bytes32 indexed collateralType, uint256 latestAccumulatedRate, int256 deltaRate);\n    event DistributeTax(bytes32 indexed collateralType, address indexed target, int256 taxCut);\n}\n",
  "sourcePath": "/Users/dm/Documents/wishbone/BrainDAO/contracts/TaxColl.sol",
  "compiler": {
    "name": "solc",
    "version": "0.6.7+commit.b8d736ae.Emscripten.clang"
  },
  "schemaVersion": "3.4.3",
  "updatedAt": "2022-01-28T15:10:22.153Z",
  "networkType": "ethereum",
  "devdoc": {
    "methods": {
      "addAuthorization(address)": {
        "params": {
          "account": "Account to add auth to"
        }
      },
      "removeAuthorization(address)": {
        "params": {
          "account": "Account to remove auth from"
        }
      }
    }
  },
  "userdoc": {
    "methods": {
      "addAuthorization(address)": {
        "notice": "Add auth to an account"
      },
      "removeAuthorization(address)": {
        "notice": "Remove auth from an account"
      }
    }
  }
}