{
  "contractName": "TaxCollector",
  "abi": [
    {
      "inputs": [
        {
          "internalType": "address",
          "name": "CDPcontract",
          "type": "address"
        },
        {
          "internalType": "address",
          "name": "TreasuryContract",
          "type": "address"
        }
      ],
      "stateMutability": "nonpayable",
      "type": "constructor"
    },
    {
      "anonymous": false,
      "inputs": [
        {
          "indexed": false,
          "internalType": "address",
          "name": "account",
          "type": "address"
        }
      ],
      "name": "AddAuthorization",
      "type": "event"
    },
    {
      "anonymous": false,
      "inputs": [
        {
          "indexed": true,
          "internalType": "bytes32",
          "name": "collateralType",
          "type": "bytes32"
        },
        {
          "indexed": false,
          "internalType": "uint256",
          "name": "latestAccumulatedRate",
          "type": "uint256"
        },
        {
          "indexed": false,
          "internalType": "int256",
          "name": "deltaRate",
          "type": "int256"
        }
      ],
      "name": "CollectTax",
      "type": "event"
    },
    {
      "anonymous": false,
      "inputs": [
        {
          "indexed": true,
          "internalType": "bytes32",
          "name": "collateralType",
          "type": "bytes32"
        },
        {
          "indexed": true,
          "internalType": "address",
          "name": "target",
          "type": "address"
        },
        {
          "indexed": false,
          "internalType": "int256",
          "name": "taxCut",
          "type": "int256"
        }
      ],
      "name": "DistributeTax",
      "type": "event"
    },
    {
      "anonymous": false,
      "inputs": [
        {
          "indexed": false,
          "internalType": "bytes32",
          "name": "parameter",
          "type": "bytes32"
        },
        {
          "indexed": false,
          "internalType": "uint256",
          "name": "data",
          "type": "uint256"
        }
      ],
      "name": "ModifyParameters",
      "type": "event"
    },
    {
      "anonymous": false,
      "inputs": [
        {
          "indexed": false,
          "internalType": "bytes32",
          "name": "parameter",
          "type": "bytes32"
        },
        {
          "indexed": false,
          "internalType": "address",
          "name": "data",
          "type": "address"
        }
      ],
      "name": "ModifyParameters",
      "type": "event"
    },
    {
      "anonymous": false,
      "inputs": [
        {
          "indexed": false,
          "internalType": "uint256",
          "name": "position",
          "type": "uint256"
        },
        {
          "indexed": false,
          "internalType": "uint256",
          "name": "val",
          "type": "uint256"
        }
      ],
      "name": "ModifyParameters",
      "type": "event"
    },
    {
      "anonymous": false,
      "inputs": [
        {
          "indexed": false,
          "internalType": "uint256",
          "name": "position",
          "type": "uint256"
        },
        {
          "indexed": false,
          "internalType": "uint256",
          "name": "taxPercentage",
          "type": "uint256"
        },
        {
          "indexed": false,
          "internalType": "address",
          "name": "receiverAccount",
          "type": "address"
        }
      ],
      "name": "ModifyParameters",
      "type": "event"
    },
    {
      "anonymous": false,
      "inputs": [
        {
          "indexed": false,
          "internalType": "address",
          "name": "account",
          "type": "address"
        }
      ],
      "name": "RemoveAuthorization",
      "type": "event"
    },
    {
      "inputs": [],
      "name": "Treasury",
      "outputs": [
        {
          "internalType": "address",
          "name": "",
          "type": "address"
        }
      ],
      "stateMutability": "view",
      "type": "function"
    },
    {
      "inputs": [
        {
          "internalType": "address",
          "name": "",
          "type": "address"
        }
      ],
      "name": "authorizedAccounts",
      "outputs": [
        {
          "internalType": "uint256",
          "name": "",
          "type": "uint256"
        }
      ],
      "stateMutability": "view",
      "type": "function"
    },
    {
      "inputs": [
        {
          "internalType": "address",
          "name": "account",
          "type": "address"
        }
      ],
      "name": "addAuthorization",
      "outputs": [],
      "stateMutability": "nonpayable",
      "type": "function"
    },
    {
      "inputs": [
        {
          "internalType": "address",
          "name": "account",
          "type": "address"
        }
      ],
      "name": "removeAuthorization",
      "outputs": [],
      "stateMutability": "nonpayable",
      "type": "function"
    },
    {
      "inputs": [],
      "name": "updateAccumulatedRate",
      "outputs": [
        {
          "internalType": "uint128",
          "name": "",
          "type": "uint128"
        }
      ],
      "stateMutability": "nonpayable",
      "type": "function"
    }
  ],
  "bytecode": "0x60806040526a52b7f179957df14dbc83626000556a52b7f179957df14dbc836260015534801561002e57600080fd5b50604051610c4e380380610c4e8339818101604052604081101561005157600080fd5b81019080805190602001909291908051906020019092919050505081600360006101000a81548173ffffffffffffffffffffffffffffffffffffffff021916908373ffffffffffffffffffffffffffffffffffffffff16021790555080600260006101000a81548173ffffffffffffffffffffffffffffffffffffffff021916908373ffffffffffffffffffffffffffffffffffffffff1602179055505050610b4f806100ff6000396000f3fe608060405234801561001057600080fd5b50600436106100575760003560e01c806324ba58841461005c57806335b28153146100b4578063563df32f146100f857806364dbfd811461014257806394f3f81d14610184575b600080fd5b61009e6004803603602081101561007257600080fd5b81019080803573ffffffffffffffffffffffffffffffffffffffff1690602001909291905050506101c8565b6040518082815260200191505060405180910390f35b6100f6600480360360208110156100ca57600080fd5b81019080803573ffffffffffffffffffffffffffffffffffffffff1690602001909291905050506101e0565b005b610100610323565b604051808273ffffffffffffffffffffffffffffffffffffffff1673ffffffffffffffffffffffffffffffffffffffff16815260200191505060405180910390f35b61014a610349565b60405180826fffffffffffffffffffffffffffffffff166fffffffffffffffffffffffffffffffff16815260200191505060405180910390f35b6101c66004803603602081101561019a57600080fd5b81019080803573ffffffffffffffffffffffffffffffffffffffff169060200190929190505050610794565b005b60066020528060005260406000206000915090505481565b6001600660003373ffffffffffffffffffffffffffffffffffffffff1673ffffffffffffffffffffffffffffffffffffffff1681526020019081526020016000205414610278576040517f08c379a0000000000000000000000000000000000000000000000000000000008152600401808060200182810382526023815260200180610af76023913960400191505060405180910390fd5b6001600660008373ffffffffffffffffffffffffffffffffffffffff1673ffffffffffffffffffffffffffffffffffffffff168152602001908152602001600020819055507f599a298163e1678bb1c676052a8930bf0b8a1261ed6e01b8a2391e55f700010281604051808273ffffffffffffffffffffffffffffffffffffffff1673ffffffffffffffffffffffffffffffffffffffff16815260200191505060405180910390a150565b600260009054906101000a900473ffffffffffffffffffffffffffffffffffffffff1681565b600080600460010160009054906101000a90046fffffffffffffffffffffffffffffffff169050600460000154421161078f576000620151869050600061039c6001548367ffffffffffffffff166108d7565b90506000600360009054906101000a900473ffffffffffffffffffffffffffffffffffffffff1673ffffffffffffffffffffffffffffffffffffffff16638543d5e06040518163ffffffff1660e01b815260040160206040518083038186803b15801561040857600080fd5b505afa15801561041c573d6000803e3d6000fd5b505050506040513d602081101561043257600080fd5b810190808051906020019092919050505090506000600360009054906101000a900473ffffffffffffffffffffffffffffffffffffffff1673ffffffffffffffffffffffffffffffffffffffff1663b5c9d7996040518163ffffffff1660e01b815260040160206040518083038186803b1580156104af57600080fd5b505afa1580156104c3573d6000803e3d6000fd5b505050506040513d60208110156104d957600080fd5b81019080805190602001909291905050509050600061051361050d876fffffffffffffffffffffffffffffffff168461095a565b84610996565b905083600460010160006101000a8154816fffffffffffffffffffffffffffffffff02191690836fffffffffffffffffffffffffffffffff160217905550600360009054906101000a900473ffffffffffffffffffffffffffffffffffffffff1673ffffffffffffffffffffffffffffffffffffffff16631ee17f2d856040518263ffffffff1660e01b815260040180828152602001915050600060405180830381600087803b1580156105c657600080fd5b505af11580156105da573d6000803e3d6000fd5b50505050600360009054906101000a900473ffffffffffffffffffffffffffffffffffffffff1673ffffffffffffffffffffffffffffffffffffffff1663e8284910826040518263ffffffff1660e01b815260040180828152602001915050600060405180830381600087803b15801561065357600080fd5b505af1158015610667573d6000803e3d6000fd5b5050505060008382039050600081111561075f57600360009054906101000a900473ffffffffffffffffffffffffffffffffffffffff1673ffffffffffffffffffffffffffffffffffffffff1663d1715b6d82600260009054906101000a900473ffffffffffffffffffffffffffffffffffffffff166040518363ffffffff1660e01b8152600401808381526020018273ffffffffffffffffffffffffffffffffffffffff1673ffffffffffffffffffffffffffffffffffffffff16815260200192505050600060405180830381600087803b15801561074657600080fd5b505af115801561075a573d6000803e3d6000fd5b505050505b600460010160009054906101000a90046fffffffffffffffffffffffffffffffff16975050505050505050610791565b505b90565b6001600660003373ffffffffffffffffffffffffffffffffffffffff1673ffffffffffffffffffffffffffffffffffffffff168152602001908152602001600020541461082c576040517f08c379a0000000000000000000000000000000000000000000000000000000008152600401808060200182810382526023815260200180610af76023913960400191505060405180910390fd5b6000600660008373ffffffffffffffffffffffffffffffffffffffff1673ffffffffffffffffffffffffffffffffffffffff168152602001908152602001600020819055507f8834a87e641e9716be4f34527af5d23e11624f1ddeefede6ad75a9acfc31b90381604051808273ffffffffffffffffffffffffffffffffffffffff1673ffffffffffffffffffffffffffffffffffffffff16815260200191505060405180910390a150565b600080600283816108e457fe5b0614156108fd576b033b2e3c9fd0803ce80000006108ff565b825b90506002828161090b57fe5b0491505b60008214610954576109218384610996565b925060006002838161092f57fe5b06146109425761093f8184610996565b90505b6002828161094c57fe5b04915061090f565b92915050565b600081610986610976856b033b2e3c9fd0803ce80000006109de565b6002858161098057fe5b04610a73565b8161098d57fe5b04905092915050565b60006b033b2e3c9fd0803ce80000006109ce6109b285856109de565b60026b033b2e3c9fd0803ce8000000816109c857fe5b04610a73565b816109d557fe5b04905092915050565b6000808214806109fb57508282838502925082816109f857fe5b04145b610a6d576040517f08c379a00000000000000000000000000000000000000000000000000000000081526004018080602001828103825260148152602001807f64732d6d6174682d6d756c2d6f766572666c6f7700000000000000000000000081525060200191505060405180910390fd5b92915050565b6000828284019150811015610af0576040517f08c379a00000000000000000000000000000000000000000000000000000000081526004018080602001828103825260148152602001807f64732d6d6174682d6164642d6f766572666c6f7700000000000000000000000081525060200191505060405180910390fd5b9291505056fe546178436f6c6c6563746f722f6163636f756e742d6e6f742d617574686f72697a6564a2646970667358221220f0b7058920faad36f9e002b392031e8fca9ba1b4696fd57f940d0e6a36843a2464736f6c63430006070033",
  "immutableReferences": {},
  "source": "// This program is free software: you can redistribute it and/or modify\n// it under the terms of the GNU General Public License as published by\n// the Free Software Foundation, either version 3 of the License, or\n// (at your option) any later version.\n\n// This program is distributed in the hope that it will be useful,\n// but WITHOUT ANY WARRANTY; without even the implied warranty of\n// MERCHANTABILITY or FITNESS FOR A PARTICULAR PURPOSE.  See the\n// GNU General Public License for more details.\n\n// You should have received a copy of the GNU General Public License\n// along with this program.  If not, see <http://www.gnu.org/licenses/>.\n\npragma solidity 0.6.7;\n\nimport \"./dsmath.sol\";\n\nabstract contract CDPlike {\n    function collateralData() virtual public view returns (\n        uint256 debtAmount,       // [wad]\n        uint256 accumulatedRate   // [ray]\n    );\n    function newAR(uint256 newRATE) external {\n    }\n\n    // Function called by TaxCollector Contract\n    function updateGlobalDebt(uint256 newDebt) external {\n    }\n\n    // Function called by TaxCollector Contract\n    function issueSurplus(uint256 amount, address treasury) external {\n      }\n    function updateAccumulatedRate(bytes32,address,int256) virtual external;\n    function coinBalance(address) virtual public view returns (uint256);\n    uint256 public globalDebt;\n    uint256 public totalSurplus;\n    uint256 public lastAR;\n}\n\n\n\ncontract TaxCollector is DSMath {\n    uint256 RATE = 100000564701133626865910626; //[ray] per second rate, 5% per day\n    uint256 globalStabilityFee= 100000564701133626865910626; //current per second interestDue rate\n    address public Treasury;\n    CDPlike CDP;\n\n    constructor(address CDPcontract, address TreasuryContract) public {\n       CDP = CDPlike(CDPcontract);\n       Treasury = TreasuryContract;\n    }\n\n    //AR : Rate Accumulator\n    // RATE : Global Stability Fee\n    struct AR {\n      uint256 updateTime;\n      uint128 RATE; // [ray]\n    }\n\n    AR RateAccumulator;\n\n    // --- Auth ---\n    mapping (address => uint256) public authorizedAccounts;\n    /**\n     * @notice Add auth to an account\n     * @param account Account to add auth to\n     */\n    function addAuthorization(address account) external isAuthorized {\n        authorizedAccounts[account] = 1;\n        emit AddAuthorization(account);\n    }\n    /**\n     * @notice Remove auth from an account\n     * @param account Account to remove auth from\n     */\n    function removeAuthorization(address account) external isAuthorized {\n        authorizedAccounts[account] = 0;\n        emit RemoveAuthorization(account);\n    }\n    /**\n    * @notice Checks whether msg.sender can call an authed function\n    **/\n    modifier isAuthorized {\n        require(authorizedAccounts[msg.sender] == 1, \"TaxCollector/account-not-authorized\");\n        _;\n    }\n\n    // interest per second ^ N\n  function updateAccumulatedRate() public returns (uint128) {\n    uint128 lastRate = RateAccumulator.RATE;\n    if (now <= RateAccumulator.updateTime) {\n    uint64 powertime = 86406; // set to 1 day by default. replace with time gap since last update using\n    //uint64 powertime = block.timestamp - INIT\n    uint256 rateupdate = rpow(globalStabilityFee, powertime);\n    uint256 globalDebt = CDP.globalDebt();\n    uint256 globalLastAR = CDP.lastAR();\n    uint256 newDebt = rmul(rdiv(lastRate, globalLastAR), globalDebt); // surplus since last update.\n    RateAccumulator.RATE=uint128(rateupdate);\n    CDP.newAR(rateupdate);\n    CDP.updateGlobalDebt(newDebt);\n    uint256 surplus = newDebt - globalDebt;\n    // surplus is minted at the time of calculation, all funds including interest are burnt when debt is repaid.\n    if(surplus>0){\n      CDP.issueSurplus(surplus, Treasury);\n  }\n    return RateAccumulator.RATE;\n    }\n  }\n\n\n    // --- Events ---\n    event AddAuthorization(address account);\n    event RemoveAuthorization(address account);\n    // event InitializeCollateralType(bytes32 collateralType);\n    event ModifyParameters(bytes32 parameter, uint256 data);\n    event ModifyParameters(bytes32 parameter, address data);\n    event ModifyParameters(\n      uint256 position,\n      uint256 val\n    );\n    event ModifyParameters(\n      uint256 position,\n      uint256 taxPercentage,\n      address receiverAccount\n    );\n    event CollectTax(bytes32 indexed collateralType, uint256 latestAccumulatedRate, int256 deltaRate);\n    event DistributeTax(bytes32 indexed collateralType, address indexed target, int256 taxCut);\n}\n",
  "sourcePath": "/Users/dm/Documents/wishbone/BrainDAO/contracts/TaxColl.sol",
  "compiler": {
    "name": "solc",
    "version": "0.6.7+commit.b8d736ae.Emscripten.clang"
  },
  "schemaVersion": "3.4.3",
  "updatedAt": "2022-01-31T00:20:40.801Z",
  "devdoc": {
    "methods": {
      "addAuthorization(address)": {
        "params": {
          "account": "Account to add auth to"
        }
      },
      "removeAuthorization(address)": {
        "params": {
          "account": "Account to remove auth from"
        }
      }
    }
  },
  "userdoc": {
    "methods": {
      "addAuthorization(address)": {
        "notice": "Add auth to an account"
      },
      "removeAuthorization(address)": {
        "notice": "Remove auth from an account"
      }
    }
  }
}