{
  "contractName": "TaxCollector",
  "abi": [
    {
      "inputs": [
        {
          "internalType": "address",
          "name": "CDPcontract",
          "type": "address"
        }
      ],
      "stateMutability": "nonpayable",
      "type": "constructor"
    },
    {
      "anonymous": false,
      "inputs": [
        {
          "indexed": false,
          "internalType": "address",
          "name": "account",
          "type": "address"
        }
      ],
      "name": "AddAuthorization",
      "type": "event"
    },
    {
      "anonymous": false,
      "inputs": [
        {
          "indexed": true,
          "internalType": "bytes32",
          "name": "collateralType",
          "type": "bytes32"
        },
        {
          "indexed": false,
          "internalType": "uint256",
          "name": "latestAccumulatedRate",
          "type": "uint256"
        },
        {
          "indexed": false,
          "internalType": "int256",
          "name": "deltaRate",
          "type": "int256"
        }
      ],
      "name": "CollectTax",
      "type": "event"
    },
    {
      "anonymous": false,
      "inputs": [
        {
          "indexed": true,
          "internalType": "bytes32",
          "name": "collateralType",
          "type": "bytes32"
        },
        {
          "indexed": true,
          "internalType": "address",
          "name": "target",
          "type": "address"
        },
        {
          "indexed": false,
          "internalType": "int256",
          "name": "taxCut",
          "type": "int256"
        }
      ],
      "name": "DistributeTax",
      "type": "event"
    },
    {
      "anonymous": false,
      "inputs": [
        {
          "indexed": false,
          "internalType": "bytes32",
          "name": "parameter",
          "type": "bytes32"
        },
        {
          "indexed": false,
          "internalType": "uint256",
          "name": "data",
          "type": "uint256"
        }
      ],
      "name": "ModifyParameters",
      "type": "event"
    },
    {
      "anonymous": false,
      "inputs": [
        {
          "indexed": false,
          "internalType": "bytes32",
          "name": "parameter",
          "type": "bytes32"
        },
        {
          "indexed": false,
          "internalType": "address",
          "name": "data",
          "type": "address"
        }
      ],
      "name": "ModifyParameters",
      "type": "event"
    },
    {
      "anonymous": false,
      "inputs": [
        {
          "indexed": false,
          "internalType": "uint256",
          "name": "position",
          "type": "uint256"
        },
        {
          "indexed": false,
          "internalType": "uint256",
          "name": "val",
          "type": "uint256"
        }
      ],
      "name": "ModifyParameters",
      "type": "event"
    },
    {
      "anonymous": false,
      "inputs": [
        {
          "indexed": false,
          "internalType": "uint256",
          "name": "position",
          "type": "uint256"
        },
        {
          "indexed": false,
          "internalType": "uint256",
          "name": "taxPercentage",
          "type": "uint256"
        },
        {
          "indexed": false,
          "internalType": "address",
          "name": "receiverAccount",
          "type": "address"
        }
      ],
      "name": "ModifyParameters",
      "type": "event"
    },
    {
      "anonymous": false,
      "inputs": [
        {
          "indexed": false,
          "internalType": "address",
          "name": "account",
          "type": "address"
        }
      ],
      "name": "RemoveAuthorization",
      "type": "event"
    },
    {
      "inputs": [
        {
          "internalType": "address",
          "name": "",
          "type": "address"
        }
      ],
      "name": "authorizedAccounts",
      "outputs": [
        {
          "internalType": "uint256",
          "name": "",
          "type": "uint256"
        }
      ],
      "stateMutability": "view",
      "type": "function"
    },
    {
      "inputs": [],
      "name": "primaryTaxReceiver",
      "outputs": [
        {
          "internalType": "address",
          "name": "",
          "type": "address"
        }
      ],
      "stateMutability": "view",
      "type": "function"
    },
    {
      "inputs": [],
      "name": "updateAR",
      "outputs": [
        {
          "internalType": "uint256",
          "name": "",
          "type": "uint256"
        }
      ],
      "stateMutability": "nonpayable",
      "type": "function"
    },
    {
      "inputs": [
        {
          "internalType": "uint256",
          "name": "newRate",
          "type": "uint256"
        }
      ],
      "name": "changeInterest",
      "outputs": [
        {
          "internalType": "bool",
          "name": "",
          "type": "bool"
        }
      ],
      "stateMutability": "nonpayable",
      "type": "function"
    },
    {
      "inputs": [
        {
          "internalType": "address",
          "name": "account",
          "type": "address"
        }
      ],
      "name": "addAuthorization",
      "outputs": [],
      "stateMutability": "nonpayable",
      "type": "function"
    },
    {
      "inputs": [
        {
          "internalType": "address",
          "name": "account",
          "type": "address"
        }
      ],
      "name": "removeAuthorization",
      "outputs": [],
      "stateMutability": "nonpayable",
      "type": "function"
    }
  ],
  "bytecode": "0x6080604052655af3107a7dc760005534801561001a57600080fd5b50604051610d35380380610d358339818101604052602081101561003d57600080fd5b810190808051906020019092919050505080600560006101000a81548173ffffffffffffffffffffffffffffffffffffffff021916908373ffffffffffffffffffffffffffffffffffffffff16021790555050610c968061009f6000396000f3fe608060405234801561001057600080fd5b50600436106100625760003560e01c806324ba58841461006757806335b28153146100bf578063542f76a6146101035780635a63561c1461014d5780637a7c156e1461019357806394f3f81d146101b1575b600080fd5b6100a96004803603602081101561007d57600080fd5b81019080803573ffffffffffffffffffffffffffffffffffffffff1690602001909291905050506101f5565b6040518082815260200191505060405180910390f35b610101600480360360208110156100d557600080fd5b81019080803573ffffffffffffffffffffffffffffffffffffffff16906020019092919050505061020d565b005b61010b610350565b604051808273ffffffffffffffffffffffffffffffffffffffff1673ffffffffffffffffffffffffffffffffffffffff16815260200191505060405180910390f35b6101796004803603602081101561016357600080fd5b8101908080359060200190929190505050610376565b604051808215151515815260200191505060405180910390f35b61019b610429565b6040518082815260200191505060405180910390f35b6101f3600480360360208110156101c757600080fd5b81019080803573ffffffffffffffffffffffffffffffffffffffff16906020019092919050505061061c565b005b60086020528060005260406000206000915090505481565b6001600860003373ffffffffffffffffffffffffffffffffffffffff1673ffffffffffffffffffffffffffffffffffffffff16815260200190815260200160002054146102a5576040517f08c379a0000000000000000000000000000000000000000000000000000000008152600401808060200182810382526023815260200180610c0c6023913960400191505060405180910390fd5b6001600860008373ffffffffffffffffffffffffffffffffffffffff1673ffffffffffffffffffffffffffffffffffffffff168152602001908152602001600020819055507f599a298163e1678bb1c676052a8930bf0b8a1261ed6e01b8a2391e55f700010281604051808273ffffffffffffffffffffffffffffffffffffffff1673ffffffffffffffffffffffffffffffffffffffff16815260200191505060405180910390a150565b600460009054906101000a900473ffffffffffffffffffffffffffffffffffffffff1681565b60006001600860003373ffffffffffffffffffffffffffffffffffffffff1673ffffffffffffffffffffffffffffffffffffffff1681526020019081526020016000205414610410576040517f08c379a0000000000000000000000000000000000000000000000000000000008152600401808060200182810382526023815260200180610c0c6023913960400191505060405180910390fd5b600061041a610429565b90508260038190555050919050565b600060066000015442116104f1576000600560009054906101000a900473ffffffffffffffffffffffffffffffffffffffff1673ffffffffffffffffffffffffffffffffffffffff1663a77daf706040518163ffffffff1660e01b8152600401604080518083038186803b1580156104a057600080fd5b505afa1580156104b4573d6000803e3d6000fd5b505050506040513d60408110156104ca57600080fd5b81019080805190602001909291908051906020019092919050505091505080915050610619565b6000806104fc61075f565b915091506000600560009054906101000a900473ffffffffffffffffffffffffffffffffffffffff1673ffffffffffffffffffffffffffffffffffffffff1663a77daf706040518163ffffffff1660e01b8152600401604080518083038186803b15801561056957600080fd5b505afa15801561057d573d6000803e3d6000fd5b505050506040513d604081101561059357600080fd5b81019080805190602001909291908051906020019092919050505050905082600660010181905550426006600001819055506000819050600081600254039050610600600460009054906101000a900473ffffffffffffffffffffffffffffffffffffffff16848361084f565b8060026000828254039250508190555084955050505050505b90565b6001600860003373ffffffffffffffffffffffffffffffffffffffff1673ffffffffffffffffffffffffffffffffffffffff16815260200190815260200160002054146106b4576040517f08c379a0000000000000000000000000000000000000000000000000000000008152600401808060200182810382526023815260200180610c0c6023913960400191505060405180910390fd5b6000600860008373ffffffffffffffffffffffffffffffffffffffff1673ffffffffffffffffffffffffffffffffffffffff168152602001908152602001600020819055507f8834a87e641e9716be4f34527af5d23e11624f1ddeefede6ad75a9acfc31b90381604051808273ffffffffffffffffffffffffffffffffffffffff1673ffffffffffffffffffffffffffffffffffffffff16815260200191505060405180910390a150565b6000806000600560009054906101000a900473ffffffffffffffffffffffffffffffffffffffff1673ffffffffffffffffffffffffffffffffffffffff1663a77daf706040518163ffffffff1660e01b8152600401604080518083038186803b1580156107cb57600080fd5b505afa1580156107df573d6000803e3d6000fd5b505050506040513d60408110156107f557600080fd5b810190808051906020019092919080519060200190929190505050915050600061083861083260035461082d426006600001546109a5565b610a28565b83610aab565b90508061084582846109a5565b9350935050509091565b7f8000000000000000000000000000000000000000000000000000000000000000600560009054906101000a900473ffffffffffffffffffffffffffffffffffffffff1673ffffffffffffffffffffffffffffffffffffffff1663fabde80c856040518263ffffffff1660e01b8152600401808273ffffffffffffffffffffffffffffffffffffffff1673ffffffffffffffffffffffffffffffffffffffff16815260200191505060206040518083038186803b15801561090f57600080fd5b505afa158015610923573d6000803e3d6000fd5b505050506040513d602081101561093957600080fd5b8101908080519060200190929190505050106109a0576040517f08c379a0000000000000000000000000000000000000000000000000000000008152600401808060200182810382526032815260200180610c2f6032913960400191505060405180910390fd5b505050565b6000828284039150811115610a22576040517f08c379a00000000000000000000000000000000000000000000000000000000081526004018080602001828103825260158152602001807f64732d6d6174682d7375622d756e646572666c6f77000000000000000000000081525060200191505060405180910390fd5b92915050565b60008060028381610a3557fe5b061415610a4e576b033b2e3c9fd0803ce8000000610a50565b825b905060028281610a5c57fe5b0491505b60008214610aa557610a728384610aab565b9250600060028381610a8057fe5b0614610a9357610a908184610aab565b90505b60028281610a9d57fe5b049150610a60565b92915050565b60006b033b2e3c9fd0803ce8000000610ae3610ac78585610af3565b60026b033b2e3c9fd0803ce800000081610add57fe5b04610b88565b81610aea57fe5b04905092915050565b600080821480610b105750828283850292508281610b0d57fe5b04145b610b82576040517f08c379a00000000000000000000000000000000000000000000000000000000081526004018080602001828103825260148152602001807f64732d6d6174682d6d756c2d6f766572666c6f7700000000000000000000000081525060200191505060405180910390fd5b92915050565b6000828284019150811015610c05576040517f08c379a00000000000000000000000000000000000000000000000000000000081526004018080602001828103825260148152602001807f64732d6d6174682d6164642d6f766572666c6f7700000000000000000000000081525060200191505060405180910390fd5b9291505056fe546178436f6c6c6563746f722f6163636f756e742d6e6f742d617574686f72697a6564546178436f6c6c6563746f722f636f696e2d62616c616e63652d646f65732d6e6f742d6669742d696e746f2d696e74323536a26469706673582212202290f9988f1992b2cbe984d0454cae925cfd20d62fc247a6ee29b2bc971c1cc164736f6c63430006070033",
  "immutableReferences": {},
  "source": "// This program is free software: you can redistribute it and/or modify\n// it under the terms of the GNU General Public License as published by\n// the Free Software Foundation, either version 3 of the License, or\n// (at your option) any later version.\n\n// This program is distributed in the hope that it will be useful,\n// but WITHOUT ANY WARRANTY; without even the implied warranty of\n// MERCHANTABILITY or FITNESS FOR A PARTICULAR PURPOSE.  See the\n// GNU General Public License for more details.\n\n// You should have received a copy of the GNU General Public License\n// along with this program.  If not, see <http://www.gnu.org/licenses/>.\n\npragma solidity 0.6.7;\n\nimport \"./dsmath.sol\";\n\nabstract contract CDPlike {\n    function collateralData() virtual public view returns (\n        uint256 debtAmount,       // [wad]\n        uint256 accumulatedRate   // [ray]\n    );\n    function updateAccumulatedRate(bytes32,address,int256) virtual external;\n    function coinBalance(address) virtual public view returns (uint256);\n}\n\n\n\ncontract TaxCollector is DSMath {\n    uint256 RATE = 100000000015815; // per second rate\n    uint256 ACCRATE;\n    uint256 AccruedDebt;\n    uint256 globalStabilityFee; //current per second interestDue rate\n    address public primaryTaxReceiver;\n    CDPlike CDP;\n\n    constructor(address CDPcontract) public {\n       CDP = CDPlike(CDPcontract);\n    }\n\n    //AR : Rate Accumulator\n    struct AR {\n      uint256 updateTime;\n      uint256 accumulatedRate; // [ray]\n    }\n\n    AR RateAccumulator;\n\n    // interest per second ^ N\n    function taxSingleOutcome() internal view returns (uint256, uint256) {\n      (, uint256 lastAccumulatedRate) = CDP.collateralData();\n      uint256 newlyAccumulatedRate =\n        rmul(\n          rpow(\n              globalStabilityFee,     // Only one collateral type.\n            sub1(\n              now,\n              RateAccumulator.updateTime\n            )\n          ),\n        lastAccumulatedRate);\n      return (newlyAccumulatedRate, sub1(newlyAccumulatedRate, lastAccumulatedRate));\n      }\n\n    function updateAR() public returns (uint256) {\n      if (now <= RateAccumulator.updateTime) {\n        (, uint256 latestAccumulatedRate) = CDP.collateralData();\n        return latestAccumulatedRate;\n      }\n      (uint256 latestAccumulatedRate, uint256 deltaRate) = taxSingleOutcome();  // calculate latest AR, save it\n      // Check how much debt has been generated\n      (uint256 debtAmount, ) = CDP.collateralData(); //globalDebt\n      // distribute Delta tax to treasury\n      RateAccumulator.accumulatedRate = latestAccumulatedRate; //update the Structs\n      RateAccumulator.updateTime = now;\n      uint256 GeneratedDebt = debtAmount;\n      uint256 surplus = AccruedDebt - GeneratedDebt;\n      distributeTax(primaryTaxReceiver, debtAmount, surplus);\n      AccruedDebt -= surplus;\n\n      // updateTime = now;\n      // emit CollectTax(latestAccumulatedRate, deltaRate);\n      return latestAccumulatedRate;\n    }\n\n      function changeInterest(uint256 newRate) public isAuthorized returns (bool) {\n        uint256 currentAR = updateAR(); // [ray] update AR based on old interest till current block\n        globalStabilityFee = newRate ; // [ray]  update interest rate per second\n      }\n\n      function distributeTax(\n          address receiver,\n          uint256 debtAmount,\n          uint256 surplusAmount\n      ) internal {\n          require(CDP.coinBalance(receiver) < 2**255, \"TaxCollector/coin-balance-does-not-fit-into-int256\");\n          // Check how many coins the receiver has and negate the value\n          // int256 coinBalance   = -int256(CDP.coinBalance(receiver));\n          // add to cumulative ticker of interest issued.\n          // CDP.updateIssuedInterest(receiver, surplusAmount);\n          //transfer Coins to Treasury\n          // Treasury.transfer(receiver, surplusAmount);\n          // emit DistributeTax(receiver, surplusAmount);\n        }\n\n    // --- Auth ---\n    mapping (address => uint256) public authorizedAccounts;\n    /**\n     * @notice Add auth to an account\n     * @param account Account to add auth to\n     */\n    function addAuthorization(address account) external isAuthorized {\n        authorizedAccounts[account] = 1;\n        emit AddAuthorization(account);\n    }\n    /**\n     * @notice Remove auth from an account\n     * @param account Account to remove auth from\n     */\n    function removeAuthorization(address account) external isAuthorized {\n        authorizedAccounts[account] = 0;\n        emit RemoveAuthorization(account);\n    }\n    /**\n    * @notice Checks whether msg.sender can call an authed function\n    **/\n    modifier isAuthorized {\n        require(authorizedAccounts[msg.sender] == 1, \"TaxCollector/account-not-authorized\");\n        _;\n    }\n\n    // --- Events ---\n    event AddAuthorization(address account);\n    event RemoveAuthorization(address account);\n    // event InitializeCollateralType(bytes32 collateralType);\n    event ModifyParameters(bytes32 parameter, uint256 data);\n    event ModifyParameters(bytes32 parameter, address data);\n    event ModifyParameters(\n      uint256 position,\n      uint256 val\n    );\n    event ModifyParameters(\n      uint256 position,\n      uint256 taxPercentage,\n      address receiverAccount\n    );\n    event CollectTax(bytes32 indexed collateralType, uint256 latestAccumulatedRate, int256 deltaRate);\n    event DistributeTax(bytes32 indexed collateralType, address indexed target, int256 taxCut);\n}\n",
  "sourcePath": "/Users/dm/Documents/wishbone/BrainDAO/contracts/TaxColl.sol",
  "compiler": {
    "name": "solc",
    "version": "0.6.7+commit.b8d736ae.Emscripten.clang"
  },
  "schemaVersion": "3.4.3",
  "updatedAt": "2022-01-26T19:58:30.386Z",
  "devdoc": {
    "methods": {
      "addAuthorization(address)": {
        "params": {
          "account": "Account to add auth to"
        }
      },
      "removeAuthorization(address)": {
        "params": {
          "account": "Account to remove auth from"
        }
      }
    }
  },
  "userdoc": {
    "methods": {
      "addAuthorization(address)": {
        "notice": "Add auth to an account"
      },
      "removeAuthorization(address)": {
        "notice": "Remove auth from an account"
      }
    }
  }
}